:0400000026EF00F0F7
:100008005C82FACF33F0FBCF34F0F2AC0EEF00F0A5
:1000180010EF00F020EF00F076AC15EF00F017EFCE
:1000280000F020EF00F077AC1CEF00F01EEF00F0BE
:1000380020EF00F0D7EC0BF034C0FBFF33C0FAFF21
:100048005C921100A0EF0AF03850800B416E3850D6
:100058003824476E37AE33EF00F035EF00F036EF57
:1000680000F047804750D8B43CEF00F03EEF00F076
:1000780051EF00F04728D8A444EF00F046EF00F015
:100088004EEF00F0000E356E000E366E000E376E25
:10009800000E386E378E59EF00F0000E356E000EE8
:1000A800366E000E376E000E386E3C50800B411ACB
:1000B8003C503C24466E3BAE64EF00F066EF00F027
:1000C80067EF00F046804650D8B46DEF00F06FEF50
:1000D80000F082EF00F04628D8A475EF00F077EF23
:1000E80000F07FEF00F0000E396E000E3A6E000E41
:1000F8003B6E000E3C6E3B8E8AEF00F0000E396EB0
:10010800000E3A6E000E3B6E000E3C6E4650D8B4A0
:1001180090EF00F092EF00F09AEF00F04750D8A46B
:1001280098EF00F09AEF00F0A4EF00F0000E356EA3
:10013800000E366E000E376E000E386E3CEF02F081
:100148003B503502F3CF4CF0F4CF4DF04C50426E9B
:10015800436A446A456A4D50486E496A4A6A4B6A1E
:100168003A503602F3CF4CF0F4CF4DF04C504226C3
:10017800000E4322442245224D504826000E4922B3
:100188004A224B2239503702F3CF4CF0F4CF4DF0CE
:100198004C504226000E4322442245224D50482608
:1001A800000E49224A224B2244C045F043C044F085
:1001B80042C043F0426A39503602F3CF4CF0F4CFD4
:1001C8004DF04C5042264D504322000E4422000E62
:1001D80045223A503502F3CF4CF0F4CF4DF04C5055
:1001E80042264D504322000E4422000E452244C0B0
:1001F80045F043C044F042C043F0426A39503502EA
:10020800F3CF4CF0F4CF4DF04C5042264D504322E2
:10021800000E4422000E45223B503602F3CF4CF02C
:10022800F4CF4DF04C5048264D504922000E4A223A
:10023800000E4B223A503702F3CF4CF0F4CF4DF07A
:100248004C5048264D504922000E4A22000E4B229F
:100258003B503702F3CF4CF0F4CF4DF04C503D6E8D
:100268004D503E6E3F6A406A3FC040F03EC03FF08E
:100278003DC03EF03D6A3D5048263E5049223F5021
:100288004A2240504B2242C03DF043C03EF044C099
:100298003FF045C040F0190E57EF01F0D8904032BA
:1002A8003F323E323D32E82E52EF01F03D504826B3
:1002B8003E5049223F504A2240504B2244C045F00C
:1002C80043C044F042C043F0426A465047C03DF044
:1002D8003E6A3D26000E3E22820E3D244C6EFF0EE5
:1002E8003E204D6E8DEF01F0D890483649364A369B
:1002F8004B3645AE82EF01F084EF01F085EF01F057
:100308004880D89042364336443645364C06D8A005
:100318004D064AAE92EF01F094EF01F078EF01F04C
:10032800000E466E45AE9BEF01F09DEF01F0C1EF68
:1003380001F0FF0E42143D6EFF0E43143E6EFF0E99
:1003480044143F6E7F0E4514406E3D503E103F10E2
:100358004010D8B4B2EF01F0B4EF01F0B8EF01F0FB
:10036800010E466EC1EF01F048A0BDEF01F0BFEFEE
:1003780001F0C1EF01F0B4EF01F04650D8B4C7EF77
:1003880001F0C9EF01F0EDEF01F0010E4826000E73
:1003980049224A224B224BA0D4EF01F0D6EF01F0BC
:1003A800EDEF01F048C03DF049C03EF04AC03FF0D3
:1003B8004BC040F0403440323F323E323D323DC0C7
:1003C80048F03EC049F03FC04AF040C04BF04C4AAC
:1003D8004D2A4DBEF8EF01F04D5008E14C28D8A049
:1003E800F8EF01F0FAEF01F004EF02F0000E486EAA
:1003F800000E496E800E4A6E7F0E4B6E32EF02F091
:100408004DBE11EF02F04D5006E14C04D8B00FEF8D
:1004180002F011EF02F01DEF02F0000E486E000E20
:10042800496E000E4A6E000E4B6E000E416E32EFA2
:1004380002F04CC047F0FF0E4816FF0E49167F0E1B
:100448004A16000E4B1647A02CEF02F02EEF02F0D2
:100458002FEF02F04A8ED89047304B6E41504B1226
:1004680048C035F049C036F04AC037F04BC038F0C4
:100478001200000E496E000E4A6E000E4B6E000E02
:100488004C6E0F0120B74BEF02F04DEF02F0C7EFB3
:1004980002F020EE01F04750D9264850DA22DECF8C
:1004A80035F0DECF36F0DECF37F0DECF38F047C09C
:1004B800D9FF48C0DAFFDF50396E490E3A6E000E98
:1004C8003B6E4A0E3C6E000E3D6E4B0E3E6E000EAD
:1004D8003F6E4C0E406E000E416EA1EC06F049C016
:1004E80023FF4AC024FF4BC021FF4CC022FF20EE4F
:1004F80005F04750D9264850DA22DF500F01256F02
:1005080020EE06F04750D9264850DA22DF50266FF1
:1005180020EE07F04750D9264850DA22DF50276FDF
:1005280020EE08F04750D9264850DA22DF50286FCD
:1005380020EE09F04750D9264850DA22DF50296FBB
:1005480020EE0AF04750D9264850DA22DF502A6FA9
:1005580020EE0BF04750D9264850DA22DF502B6F97
:1005680020EE0CF04750D9264850DA22DF502C6F85
:1005780020EE0DF04750D9264850DA22DF502D6F73
:100588002087C9EF03F010B7CCEF02F0CEEF02F0EE
:1005980048EF03F020EE01F04750D9264850DA2200
:1005A800DECF35F0DECF36F0DECF37F0DECF38F0F5
:1005B80047C0D9FF48C0DAFFDF50396E490E3A6E9E
:1005C800000E3B6E4A0E3C6E000E3D6E4B0E3E6EAC
:1005D800000E3F6E4C0E406E000E416EA1EC06F010
:1005E80049C013FF4AC014FF4BC011FF4CC012FF93
:1005F80020EE05F04750D9264850DA22DF500F0187
:10060800156F20EE06F04750D9264850DA22DF5001
:10061800166F20EE07F04750D9264850DA22DF50EF
:10062800176F20EE08F04750D9264850DA22DF50DD
:10063800186F20EE09F04750D9264850DA22DF50CB
:10064800196F20EE0AF04750D9264850DA22DF50B9
:100658001A6F20EE0BF04750D9264850DA22DF50A7
:100668001B6F20EE0CF04750D9264850DA22DF5095
:100678001C6F20EE0DF04750D9264850DA22DF5083
:100688001D6F1087C5EF02F000B74DEF03F04FEF75
:1006980003F0C9EF03F020EE01F04750D926485087
:1006A800DA22DECF35F0DECF36F0DECF37F0DECF20
:1006B80038F047C0D9FF48C0DAFFDF50396E490E1D
:1006C8003A6E000E3B6E4A0E3C6E000E3D6E4B0EAF
:1006D8003E6E000E3F6E4C0E406E000E416EA1EC59
:1006E80006F049C003FF4AC004FF4BC001FF4CC0DD
:1006F80002FF20EE05F04750D9264850DA22DF5095
:100708000F01056F20EE06F04750D9264850DA222F
:10071800DF50066F20EE07F04750D9264850DA22FE
:10072800DF50076F20EE08F04750D9264850DA22EC
:10073800DF50086F20EE09F04750D9264850DA22DA
:10074800DF50096F20EE0AF04750D9264850DA22C8
:10075800DF500A6F20EE0BF04750D9264850DA22B6
:10076800DF500B6F20EE0CF04750D9264850DA22A4
:10077800DF500C6F20EE0DF04750D9264850DA2292
:10078800DF500D6F0087C5EF02F01200000E4A6EB1
:1007980060AED1EF03F0D3EF03F05FEF04F062A691
:1007A800D8EF03F0DAEF03F0F9EF03F048C0D9FF10
:1007B80049C0DAFF020EDF6E64CF35F061CF36F044
:1007C80062CF37F0635007EC08F020EE01F0485094
:1007D800D9264950DA2235C0DEFF36C0DEFF37C0E1
:1007E800DEFF38C0DEFF12EF04F048C0D9FF49C071
:1007F800DAFF010EDF6E62CF35F061503CEC0AF093
:1008080020EE01F04850D9264950DA2235C0DEFFE3
:1008180036C0DEFF37C0DEFF38C0DEFF20EE05F051
:100828004850D9264950DA2265CFDFFF20EE06F07E
:100838004850D9264950DA2266CFDFFF20EE07F06C
:100848004850D9264950DA2267CFDFFF20EE08F05A
:100858004850D9264950DA2268CFDFFF20EE09F048
:100868004850D9264950DA2269CFDFFF20EE0AF036
:100878004850D9264950DA226ACFDFFF20EE0BF024
:100888004850D9264950DA226BCFDFFF20EE0CF012
:100898004850D9264950DA226CCFDFFF20EE0DF000
:1008A8004850D9264950DA226DCFDFFF609E010EED
:1008B8004A6EF2EF04F00F0130AF65EF04F067EF16
:1008C80004F0F2EF04F032A76CEF04F06EEF04F0DE
:1008D8008DEF04F048C0D9FF49C0DAFF020EDF6E81
:1008E80034CF35F031CF36F032CF37F0335107EC13
:1008F80008F020EE01F04850D9264950DA2235C0D8
:10090800DEFF36C0DEFF37C0DEFF38C0DEFFA6EFF1
:1009180004F048C0D9FF49C0DAFF010EDF6E32CFBC
:1009280035F031513CEC0AF020EE01F04850D92660
:100938004950DA2235C0DEFF36C0DEFF37C0DEFFA1
:1009480038C0DEFF20EE05F04850D9264950DA229B
:1009580035CFDFFF20EE06F04850D9264950DA227D
:1009680036CFDFFF20EE07F04850D9264950DA226B
:1009780037CFDFFF20EE08F04850D9264950DA2259
:1009880038CFDFFF20EE09F04850D9264950DA2247
:1009980039CFDFFF20EE0AF04850D9264950DA2235
:1009A8003ACFDFFF20EE0BF04850D9264950DA2223
:1009B8003BCFDFFF20EE0CF04850D9264950DA2211
:1009C8003CCFDFFF20EE0DF04850D9264950DA22FF
:1009D8003DCFDFFF0F01309F5BEF04F04A5012005C
:1009E800426E4250D8B4FBEF04F0FDEF04F01FEF65
:1009F80005F03DBE04EF05F002EF05F01FEF05F02E
:100A08003AC03EF03BC03FF03CC040F03DC041F032
:100A18003E1E3F1E401E411E3E2A000E3F2240221F
:100A280041223EC044F03FC045F040C046F041C0BE
:100A380047F027EF05F03AC044F03BC045F03CC012
:100A480046F03DC047F03A503B103C103D10D8A44A
:100A580030EF05F032EF05F03CEF05F0000E3A6E8E
:100A6800000E3B6E000E3C6E000E3D6ECDEF05F0A5
:100A7800960E436E46EF05F0432AD8904732463229
:100A880045324432000E44143E6E000E45143F6E4B
:100A9800000E4614406EFE0E4714416E3E503F1045
:100AA80040104110D8A45BEF05F05DEF05F040EF72
:100AB80005F06BEF05F0432A010E4426000E45228F
:100AC80046224722D8904732463245324432000EF9
:100AD80044143E6E000E45143F6E000E4614406EE0
:100AE800FF0E4714416E3E503F1040104110D8A4ED
:100AF80080EF05F082EF05F05FEF05F08AEF05F073
:100B08004306D890443645364636473646BE8FEFBC
:100B180005F091EF05F099EF05F0020E436097EFAD
:100B280005F099EF05F084EF05F043B09EEF05F06E
:100B3800A0EF05F0A1EF05F0469ED890433243C0E0
:100B48003EF03F6A406A416A3EC041F0406A3F6AEF
:100B58003E6A3E5044123F504512405046124150A2
:100B680047124250D8B4BBEF05F0BDEF05F0C5EF12
:100B780005F03DBEC4EF05F0C2EF05F0C5EF05F086
:100B8800478E44C03AF045C03BF046C03CF047C0F1
:100B98003DF01200800E6F6E6E50E00B800AD8A4F4
:100BA800D8EF05F0DAEF05F0D0EF05F0400E726EE1
:100BB800200E706E000E0E017D6FFA69FB69050E3E
:100BC800F86FC30EF96FFE69FF69FC69E30EFD6FEC
:100BD800010E466F000E476F000E796F000E7A6F98
:100BE800000E7B6F000E7C6F000E716F000E726F2F
:100BF800000E736F000E746F000E756F000E766F27
:100C0800000E776F000E786F020EE26F250EE36F0D
:100C1800440EE06FA90EE16F000EE66F000EE76F5D
:100C2800000EE46F000EE56F000EEA6F000EEB6F2A
:100C3800000EE86F000EE96F000EEE6F000EEF6F0A
:100C4800000EEC6F000EED6F000EF26F000EF36FEA
:100C5800000EF06F000EF16F000EF66F000EF76FCA
:100C6800000EF46F000EF56F000E4A6F000E4B6F0A
:100C7800000E486F000E496F000E4E6F000E4F6F4A
:100C8800000E4C6F000E4D6F000E526F000E536F2A
:100C9800000E506F000E516F000E566F000E576F0A
:100CA800000E546F000E556F000E5A6F000E5B6FEA
:100CB800000E586F000E596F000E5E6F000E5F6FCA
:100CC800000E5C6F000E5D6F000E626F000E636FAA
:100CD800000E606F000E616F000E666F000E676F8A
:100CE800000E646F000E656F000E6A6F000E6B6F6A
:100CF800000E686F000E696F6E696F696C69E30EAC
:100D08006D6F130E436FA80E446F010E456F2E0EC4
:100D1800356E180E366E0EEC0CF0779C768C000E45
:100D28006F6E6ECF37F0E00E3716D8A49EEF06F040
:100D3800A0EF06F095EF06F01200020E3918D8A4BD
:100D4800A8EF06F0AAEF06F02DEF07F03CC0D9FF98
:100D58003DC0DAFF35C0DFFF35C042F036C043F092
:100D680037C044F038C045F043C042F044C043F0B7
:100D780045C044F0456A42C035F043C036F044C02F
:100D880037F045C038F03AC0D9FF3BC0DAFF35C06C
:100D9800DFFF35C042F036C043F037C044F038C0FA
:100DA80045F043C042F044C043F045C044F0456AB2
:100DB80042C035F043C036F044C037F045C038F083
:100DC8003550030B466E35C042F036C043F037C08D
:100DD80044F038C045F0030ED890423643364436C6
:100DE8004536E82EF0EF06F042C035F043C036F045
:100DF80044C037F045C038F03550E00B4624466E05
:100E08004650080F466E4650EB0B40C0D9FF41C014
:100E1800DAFFDF6E35C042F036C043F037C044F029
:100E280038C045F043C042F044C043F045C044F0E8
:100E3800456A42C035F043C036F044C037F045C07B
:100E480038F03EC0D9FF3FC0DAFF35C0DFFF58EFAA
:100E580007F03AC0D9FF3BC0DAFFDF6A3CC0D9FFD0
:100E68003DC0DAFFDF6A35C042F036C043F037C014
:100E780044F038C045F0050ED89042364336443623
:100E88004536E82E40EF07F042C035F043C036F053
:100E980044C037F045C038F040C0D9FF41C0DAFF40
:100EA80035C0DFFF0EEF07F0120026EC09F04E0404
:100EB8004F10D8A462EF07F064EF07F006EF08F0D0
:100EC80089808B8C84A26BEF07F06DEF07F0FEEF43
:100ED80007F0898489868B828B88210E0001DE6F5A
:100EE800760EE82EFED7DE2FFCD700F08B848B8A97
:100EF800210E0001DE6F760EE82EFED7DE2FFCD71E
:100F080000F0000E4E6E020E4D6E2DEC0BF0D00E62
:100F1800486E000E496ECAEC03F00009D8B497EF8A
:100F280007F099EF07F0AEEF07F0250E0001D11991
:100F38000DE1020ED2190AE1950ED31907E1080E48
:100F4800D419D8A4AAEF07F0ACEF07F0AEEF07F07A
:100F5800B0EF07F0014A022A02BEBCEF07F0E90E23
:100F6800015C030E0258D8A0BCEF07F0BEEF07F0F3
:100F7800C8EF07F0A2EC09F0000E4E6E010E4D6EA0
:100F8800B0EC0BF006EF08F08B808B860D0E00019D
:100F9800DF6FAF0EDE6FB60EE82EFED7DE2FFCD762
:100FA800DF2FFAD700F08B948B9A410E0001DE6F89
:100FB800EE0EE82EFED7DE2FFCD700F08982000E59
:100FC800046E010E036E010E0001606F220E616F48
:100FD800000E626F000E636F000E646F010E656F86
:100FE800010E666F600E476E000E486E3DEC02F013
:100FF80006EF08F0A2EC09F0000E4E6E010E4D6EE1
:101008009BEC0BF012003D6E000E446E000E456E18
:10101800000E466E000E476E3750030B426E37388F
:10102800E842070B436E3650396E3A6AD890393623
:101038003A36D89039363A36D89039363A3639C0B1
:1010480044F03AC045F0000E45BEFF0E466E476EAE
:1010580043504424446E000E4520456E000E462041
:10106800466E000E4720476E44C039F045C03AF03E
:1010780046C03BF047C03CF0020ED89039363A36AD
:101088003B363C36E82E41EF08F039C044F03AC010
:1010980045F03BC046F03CC047F042504424446E03
:1010A800000E4520456E000E4620466E000E472075
:1010B800476E44C03AF045C03BF046C03CF0396A40
:1010C80039C044F03AC045F03BC046F03CC047F058
:1010D8003D504424446E000E4520456E000E4620C7
:1010E800466E000E4720476E44C03AF045C03BF0BC
:1010F80046C03CF0396A39C044F03AC045F03BC0BC
:1011080046F03CC047F035504424446E000E45205C
:10111800456E000E4620466E000E4720476E44C0BE
:101128003EF045C03FF046C040F047C041F03EC0E9
:1011380035F03FC036F040C037F041C038F01200FB
:10114800000E35143D6E000E36143E6E800E3714B8
:101158003F6E7F0E3814406E3D503E103F104010D9
:10116800D8A4B9EF08F0BBEF08F0C3EF08F0000E01
:10117800356E000E366E000E376E000E386E000E9D
:1011880039143D6E000E3A143E6E800E3B143F6ECD
:101198007F0E3C14406E3D503E103F104010D8A4C6
:1011A800D8EF08F0DAEF08F0E2EF08F0000E396E39
:1011B800000E3A6E000E3B6E000E3C6E38AEE7EF46
:1011C80008F0E9EF08F0F2EF08F0356C361ED8B0F9
:1011D800362A371ED8B0372A800E38563CAEF7EF7D
:1011E80008F0F9EF08F002EF09F0396C3A1ED8B0B0
:1011F8003A2A3B1ED8B03B2A800E3C56000E351AC0
:10120800000E361A000E371A800E381A000E391AD8
:10121800000E3A1A000E3B1A800E3C1A3950355C03
:101228003A5036583B5037583C503858D8B01FEFD2
:1012380009F021EF09F024EF09F0D89025EF09F023
:10124800D8801200040EC3EC0AF035C03AF036C05C
:101258003BF03C6A3D6A000EF4EC04F03AC050F0F2
:101268003BC051F03CC052F03DC053F050C035F087
:1012780051C036F052C037F053C038F0000E396E06
:10128800000E3A6E400E3B6E400E3C6E28EC00F0AD
:1012980035C054F036C055F037C056F038C057F056
:1012A80054C041F055C042F056C043F057C044F016
:1012B80078EC0AF041044210D8A465EF09F067EF12
:1012C80009F07EEF09F0010E00017C6F690E7D6F59
:1012D800000E7E6F000E7F6F000E806F010E816F13
:1012E800010E826F7C0E476E000E486E3DEC02F0D8
:1012F80093EF09F0010E00016E6F790E6F6F000E0B
:10130800706F000E716F000E726F010E736F010E19
:10131800746F6E0E476E000E486E3DEC02F054C0BE
:1013280041F055C042F056C043F057C044F078EC45
:101338000AF041C04EF042C04FF0120080A2A7EF61
:1013480009F0A9EF09F0AAEF09F0899282AAAFEF94
:1013580009F0B1EF09F0B2EF09F08B9A82A4B7EF68
:1013680009F0B9EF09F0BAEF09F08B9482A6BFEF44
:1013780009F0C1EF09F0C2EF09F08B9682A0C7EF20
:1013880009F0C9EF09F0CAEF09F08B9082A8CFEFF6
:1013980009F0D1EF09F0D2EF09F08B9882A2D7EFCC
:1013A80009F0D9EF09F0DAEF09F08B9280A6DFEFA8
:1013B80009F0E1EF09F0E2EF09F0899682ACE7EF76
:1013C80009F0E9EF09F0EAEF09F08B9C80A4EFEF50
:1013D80009F0F1EF09F0F2EF09F0899480A0F7EF36
:1013E80009F0F9EF09F0FAEF09F089901200E6EC3C
:1013F8000BF003500410D8A404EF0AF006EF0AF02B
:1014080013EF0AF026EC09F04E044F10D8A40FEFA2
:101418000AF011EF0AF013EF0AF059EC07F0030491
:101428000410D8A41AEF0AF01CEF0AF034EF0AF0FF
:1014380026EC09F04E504F10D8A425EF0AF027EFFC
:101448000AF02BEF0AF015EC0BF034EF0AF084B237
:1014580030EF0AF032EF0AF034EF0AF0FCEC0BF050
:10146800FCEC0AF0C5EC0BF0FDEF09F026EF00F0FC
:101478003B6E3B50396E3A6AD89039363A36D89036
:1014880039363A36D89039363A3639C040F03AC00B
:1014980041F0000E41BEFF0E426E436E35C039F07A
:1014A800050E3A6ED89039323A2E56EF0AF0395076
:1014B8004024406E000E4120416E000E4220426ED4
:1014C800000E4320436E40C03CF041C03DF042C096
:1014D8003EF043C03FF03CC035F03DC036F03EC062
:1014E80037F03FC038F0120041C035F042C036F046
:1014F80043C037F044C038F0330E396E330E3A6EBD
:10150800230E3B6E410E3C6EA4EC08F0D8A08FEF82
:101518000AF091EF0AF097EF0AF0000E466E010EFE
:10152800456E9BEF0AF0000E466E000E456E45C0F4
:1015380041F046C042F01200260EF66E180EF76E05
:10154800000EF86E00EE58F010EE04F00900F5CF2A
:10155800EEFFE550E150FAE100EE60F07E0EEE6A33
:10156800E806FDE100EE01F0320EEE6AE806FDE164
:101578005C905C92000EF86E0001FBEF09F0396E8A
:1015880039C037F037463746C2503718830B3718FB
:10159800C26EC280C282C2B2D4EF0AF0D6EF0AF09D
:1015A800CFEF0AF0C450386E376AC3503724356E0F
:1015B800000E3820366E1200000E8D6E000E8C6EF6
:1015C800000E896E000E8A6E000E8B6E070E966EE8
:1015D800E00E926EFB0E936E800E946E9568BF0EB1
:1015E8000F015D6F7F0E5C6F000E5B6FF18E120056
:1015F80026EC09F04E504F10D8A405EF0BF007EF7A
:101608000BF014EF0BF084A20CEF0BF00EEF0BF0C5
:1016180014EF0BF0000E4E6E010E4D6E6FEC0BF0DA
:10162800120026EC09F04E504F10D8A41EEF0BF014
:1016380020EF0BF026EF0BF0000E4E6E010E4D6EF4
:1016480043EC0BF0000E4E6E010E4D6E43EC0BF0AA
:101658001200010E00018A6F400E8B6F950E8C6F81
:10166800F80E8D6F080E8E6F010E8F6F4DC090F0C3
:101678008A0E476E000E486E3DEC02F01200010E15
:101688000001986F180E996F000E9A6F000E9B6FED
:10169800000E9C6F010E9D6F4DC09EF0980E476E18
:1016A800000E486E3DEC02F01200010E0001C26F00
:1016B800040EC36F000EC46F000EC56F000EC66F18
:1016C800010EC76F4DC0C8F0C20E476E000E486EBF
:1016D8003DEC02F01200010E0001B46F090EB56F67
:1016E800000EB66F000EB76F000EB86F010EB96F1F
:1016F8004DC0BAF0B40E476E000E486E3DEC02F0D5
:101708001200010E0001A66F050EA76F000EA86F4C
:10171800000EA96F000EAA6F010EAB6F4DC0ACF0A2
:10172800A60E476E000E486E3DEC02F01200010E48
:10173800096E030E0A6E000E0B6E000E0C6E000E84
:101748000D6E010E0E6E4DC00FF0090E476E000EA5
:10175800486E3DEC02F01200010E176E020E186E74
:10176800000E196E000E1A6E000E1B6E010E1C6E16
:101778004DC01DF0170E476E000E486E3DEC02F08E
:10178800120026EC09F04E044F10D8B4CEEF0BF03F
:10179800D0EF0BF0D6EF0BF0000E4E6E010E4D6E33
:1017A80085EC0BF0120002D8E4EF0BF00500FA6E9E
:1017B8000750FD6E0850FE6EF850FF6EFA5012008A
:1017C800779C120015EC0CF0E0EC0AF005EC0CF03C
:1017D800F1EC0BF0CEEC05F01200010EC26E000E1B
:1017E800C16E880EC06E000EC46E000EC36E12006D
:1017F80089968994000E4E6E010E4D6E59EC0BF0D1
:101808001200600ED36E000ED26E000E9B6E000E9C
:101818009A6E120035C007F036C008F01200333354
:081828002341D09E12001200C2
:020000040020DA
:08000000FFFFFFFFFFFFFFFF00
:020000040030CA
:0E00000015027F7CFF8991FF0FC00FE00F40BB
:00000001FF
