:0400000026EF00F0F7
:100008005782FACF01F0FBCF02F0F2AC0EEF00F00E
:1000180010EF00F020EF00F076AC15EF00F017EFCE
:1000280000F020EF00F077AC1CEF00F01EEF00F0BE
:1000380020EF00F0F7EC0CF002C0FBFF01C0FAFF64
:1000480057921100AAEF0BF00650800B0F6E065066
:100058000624156E05AE33EF00F035EF00F036EFED
:1000680000F015801550D8B43CEF00F03EEF00F0DA
:1000780051EF00F01528D8A444EF00F046EF00F047
:100088004EEF00F0000E036E000E046E000E056EBB
:10009800000E066E058E59EF00F0000E036E000E7E
:1000A800046E000E056E000E066E0A50800B0F1AC5
:1000B8000A500A24146E09AE64EF00F066EF00F0EF
:1000C80067EF00F014801450D8B46DEF00F06FEFB4
:1000D80000F082EF00F01428D8A475EF00F077EF55
:1000E80000F07FEF00F0000E076E000E086E000EA5
:1000F800096E000E0A6E098E8AEF00F0000E076E78
:10010800000E086E000E096E000E0A6E1450D8B468
:1001180090EF00F092EF00F09AEF00F01550D8A49D
:1001280098EF00F09AEF00F0A4EF00F0000E036ED5
:10013800000E046E000E056E000E066E3CEF02F017
:1001480009500302F3CF1AF0F4CF1BF01A50106EC7
:10015800116A126A136A1B50166E176A186A196AAE
:1001680008500402F3CF1AF0F4CF1BF01A501026EF
:10017800000E1122122213221B501626000E1722DF
:100188001822192207500502F3CF1AF0F4CF1BF0FA
:100198001A501026000E1122122213221B50162666
:1001A800000E17221822192212C013F011C012F0E3
:1001B80010C011F0106A07500402F3CF1AF0F4CF00
:1001C8001BF01A5010261B501122000E1222000E8E
:1001D800132208500302F3CF1AF0F4CF1BF01A5081
:1001E80010261B501122000E1222000E132212C0DC
:1001F80013F011C012F010C011F0106A075003027A
:10020800F3CF1AF0F4CF1BF01A5010261B5011220E
:10021800000E1222000E132209500402F3CF1AF026
:10022800F4CF1BF01A5016261B501722000E182266
:10023800000E192208500502F3CF1AF0F4CF1BF074
:100248001A5016261B501722000E1822000E1922CB
:1002580009500502F3CF1AF0F4CF1BF01A500B6EB9
:100268001B500C6E0D6A0E6A0DC00EF00CC00DF01E
:100278000BC00CF00B6A0B5016260C5017220D50B1
:1002880018220E50192210C00BF011C00CF012C029
:100298000DF013C00EF0190E57EF01F0D8900E3282
:1002A8000D320C320B32E82E52EF01F00B501626AD
:1002B8000C5017220D5018220E50192212C013F09C
:1002C80011C012F010C011F0106A145015C00BF0D4
:1002D8000C6A0B26000E0C22820E0B241A6EFF0EDF
:1002E8000C201B6E8DEF01F0D89016361736183695
:1002F800193613AE82EF01F084EF01F085EF01F0BB
:100308001680D89010361136123613361A06D8A031
:100318001B0618AE92EF01F094EF01F078EF01F0B0
:10032800000E146E13AE9BEF01F09DEF01F0C1EFCC
:1003380001F0FF0E10140B6EFF0E11140C6EFF0E61
:1003480012140D6E7F0E13140E6E0B500C100D1040
:100358000E10D8B4B2EF01F0B4EF01F0B8EF01F02D
:10036800010E146EC1EF01F016A0BDEF01F0BFEF52
:1003780001F0C1EF01F0B4EF01F01450D8B4C7EFA9
:1003880001F0C9EF01F0EDEF01F0010E1626000EA5
:1003980017221822192219A0D4EF01F0D6EF01F084
:1003A800EDEF01F016C00BF017C00CF018C00DF0FF
:1003B80019C00EF00E340E320D320C320B320BC057
:1003C80016F00CC017F00DC018F00EC019F01A4A3C
:1003D8001B2A1BBEF8EF01F01B5008E11A28D8A011
:1003E800F8EF01F0FAEF01F004EF02F0000E166EDC
:1003F800000E176E800E186E7F0E196E32EF02F027
:100408001BBE11EF02F01B5006E11A04D8B00FEF23
:1004180002F011EF02F01DEF02F0000E166E000E52
:10042800176E000E186E000E196E000E0F6E32EF6A
:1004380002F01AC015F0FF0E1616FF0E17167F0EE3
:100448001816000E191615A02CEF02F02EEF02F068
:100458002FEF02F0188ED8901530196E0F50191220
:1004680016C003F017C004F018C005F019C006F054
:100478001200000E176E000E186E000E196E000E98
:100488001A6E0F0120B74BEF02F04DEF02F0C7EFE5
:1004980002F020EE01F01550D9261650DA22DECFF0
:1004A80003F0DECF04F0DECF05F0DECF06F015C096
:1004B800D9FF16C0DAFFDF50076E170E086E000E60
:1004C800096E180E0A6E000E0B6E190E0C6E000ED9
:1004D8000D6E1A0E0E6E000E0F6E5FEC07F017C051
:1004E80023FF18C024FF19C021FF1AC022FF20EEE5
:1004F80005F01550D9261650DA22DF500F01256F66
:1005080020EE06F01550D9261650DA22DF50266F55
:1005180020EE07F01550D9261650DA22DF50276F43
:1005280020EE08F01550D9261650DA22DF50286F31
:1005380020EE09F01550D9261650DA22DF50296F1F
:1005480020EE0AF01550D9261650DA22DF502A6F0D
:1005580020EE0BF01550D9261650DA22DF502B6FFB
:1005680020EE0CF01550D9261650DA22DF502C6FE9
:1005780020EE0DF01550D9261650DA22DF502D6FD7
:100588002087C9EF03F010B7CCEF02F0CEEF02F0EE
:1005980048EF03F020EE01F01550D9261650DA2264
:1005A800DECF03F0DECF04F0DECF05F0DECF06F0BD
:1005B80015C0D9FF16C0DAFFDF50076E170E086E98
:1005C800000E096E180E0A6E000E0B6E190E0C6ED8
:1005D800000E0D6E1A0E0E6E000E0F6E5FEC07F019
:1005E80017C013FF18C014FF19C011FF1AC012FF5B
:1005F80020EE05F01550D9261650DA22DF500F01EB
:10060800156F20EE06F01550D9261650DA22DF5065
:10061800166F20EE07F01550D9261650DA22DF5053
:10062800176F20EE08F01550D9261650DA22DF5041
:10063800186F20EE09F01550D9261650DA22DF502F
:10064800196F20EE0AF01550D9261650DA22DF501D
:100658001A6F20EE0BF01550D9261650DA22DF500B
:100668001B6F20EE0CF01550D9261650DA22DF50F9
:100678001C6F20EE0DF01550D9261650DA22DF50E7
:100688001D6F1087C5EF02F000B74DEF03F04FEF75
:1006980003F0C9EF03F020EE01F01550D9261650EB
:1006A800DA22DECF03F0DECF04F0DECF05F0DECFB6
:1006B80006F015C0D9FF16C0DAFFDF50076E170E17
:1006C800086E000E096E180E0A6E000E0B6E190EDB
:1006D8000C6E000E0D6E1A0E0E6E000E0F6E5FEC95
:1006E80007F017C003FF18C004FF19C001FF1AC0A4
:1006F80002FF20EE05F01550D9261650DA22DF50F9
:100708000F01056F20EE06F01550D9261650DA2293
:10071800DF50066F20EE07F01550D9261650DA2262
:10072800DF50076F20EE08F01550D9261650DA2250
:10073800DF50086F20EE09F01550D9261650DA223E
:10074800DF50096F20EE0AF01550D9261650DA222C
:10075800DF500A6F20EE0BF01550D9261650DA221A
:10076800DF500B6F20EE0CF01550D9261650DA2208
:10077800DF500C6F20EE0DF01550D9261650DA22F6
:10078800DF500D6F0087C5EF02F01200000E186EE3
:1007980060AED1EF03F0D3EF03F05FEF04F062A691
:1007A800D8EF03F0DAEF03F0F9EF03F016C0D9FF42
:1007B80017C0DAFF020EDF6E64CF03F061CF04F0DA
:1007C80062CF05F0635017EC08F020EE01F01650E8
:1007D800D9261750DA2203C0DEFF04C0DEFF05C0A9
:1007E800DEFF06C0DEFF12EF04F016C0D9FF17C007
:1007F800DAFF010EDF6E62CF03F0615041EC0BF0BF
:1008080020EE01F01650D9261750DA2203C0DEFF79
:1008180004C0DEFF05C0DEFF06C0DEFF20EE05F0E7
:100828001650D9261750DA2265CFDFFF20EE06F0E2
:100838001650D9261750DA2266CFDFFF20EE07F0D0
:100848001650D9261750DA2267CFDFFF20EE08F0BE
:100858001650D9261750DA2268CFDFFF20EE09F0AC
:100868001650D9261750DA2269CFDFFF20EE0AF09A
:100878001650D9261750DA226ACFDFFF20EE0BF088
:100888001650D9261750DA226BCFDFFF20EE0CF076
:100898001650D9261750DA226CCFDFFF20EE0DF064
:1008A8001650D9261750DA226DCFDFFF609E010E51
:1008B800186EF2EF04F00F0130AF65EF04F067EF48
:1008C80004F0F2EF04F032A76CEF04F06EEF04F0DE
:1008D8008DEF04F016C0D9FF17C0DAFF020EDF6EE5
:1008E80034CF03F031CF04F032CF05F0335117EC99
:1008F80008F020EE01F01650D9261750DA2203C06E
:10090800DEFF04C0DEFF05C0DEFF06C0DEFFA6EF87
:1009180004F016C0D9FF17C0DAFF010EDF6E32CF20
:1009280003F0315141EC0BF020EE01F01650D926BE
:100938001750DA2203C0DEFF04C0DEFF05C0DEFF69
:1009480006C0DEFF20EE05F01650D9261750DA2231
:1009580035CFDFFF20EE06F01650D9261750DA22E1
:1009680036CFDFFF20EE07F01650D9261750DA22CF
:1009780037CFDFFF20EE08F01650D9261750DA22BD
:1009880038CFDFFF20EE09F01650D9261750DA22AB
:1009980039CFDFFF20EE0AF01650D9261750DA2299
:1009A8003ACFDFFF20EE0BF01650D9261750DA2287
:1009B8003BCFDFFF20EE0CF01650D9261750DA2275
:1009C8003CCFDFFF20EE0DF01650D9261750DA2263
:1009D8003DCFDFFF0F01309F5BEF04F0185012008E
:1009E8001D6E1D50D8B4FBEF04F0FDEF04F01FEFAF
:1009F80005F018BE04EF05F002EF05F01FEF05F053
:100A080015C019F016C01AF017C01BF018C01CF05A
:100A1800191E1A1E1B1E1C1E192A000E1A221B2222
:100A28001C2219C01FF01AC020F01BC021F01CC0E6
:100A380022F027EF05F015C01FF016C020F017C0F0
:100A480021F018C022F01550161017101810D8A44D
:100A580030EF05F032EF05F03CEF05F0000E156EB3
:100A6800000E166E000E176E000E186ECDEF05F014
:100A7800960E1E6E46EF05F01E2AD89022322132BD
:100A880020321F32000E1F14196E000E20141A6E29
:100A9800000E21141B6EFE0E22141C6E19501A1023
:100AA8001B101C10D8A45BEF05F05DEF05F040EFBC
:100AB80005F06BEF05F01E2A010E1F26000E2022FE
:100AC80021222222D8902232213220321F32000ED7
:100AD8001F14196E000E20141A6E000E21141B6EBE
:100AE800FF0E22141C6E19501A101B101C10D8A4CB
:100AF80080EF05F082EF05F05FEF05F08AEF05F073
:100B08001E06D8901F3620362136223621BE8FEF9A
:100B180005F091EF05F099EF05F0020E1E6097EFD2
:100B280005F099EF05F084EF05F01EB09EEF05F093
:100B3800A0EF05F0A1EF05F0219ED8901E321EC04F
:100B480019F01A6A1B6A1C6A19C01CF01B6A1A6A17
:100B5800196A19501F121A5020121B5021121C50CA
:100B680022121D50D8B4BBEF05F0BDEF05F0C5EF5C
:100B780005F018BEC4EF05F0C2EF05F0C5EF05F0AB
:100B8800228E1FC015F020C016F021C017F022C019
:100B980018F01200800E6F6E6E50E00B800AD8A419
:100BA800D8EF05F0DAEF05F0D0EF05F0400E726EE1
:100BB800200E706E000E0E017D6FFA69FB69050E3E
:100BC800F86FC30EF96FFE69FF69FC69E30EFD6FEC
:100BD800010E466F000E476F000E796F000E7A6F98
:100BE800000E7B6F000E7C6F000E716F000E726F2F
:100BF800000E736F000E746F000E756F000E766F27
:100C0800000E776F000E786F020EE26F250EE36F0D
:100C1800440EE06FA90EE16F000EE66F000EE76F5D
:100C2800000EE46F000EE56F000EEA6F000EEB6F2A
:100C3800000EE86F000EE96F000EEE6F000EEF6F0A
:100C4800000EEC6F000EED6F000EF26F000EF36FEA
:100C5800000EF06F000EF16F000EF66F000EF76FCA
:100C6800000EF46F000EF56F000E4A6F000E4B6F0A
:100C7800000E486F000E496F000E4E6F000E4F6F4A
:100C8800000E4C6F000E4D6F000E526F000E536F2A
:100C9800000E506F000E516F000E566F000E576F0A
:100CA800000E546F000E556F000E5A6F000E5B6FEA
:100CB800000E586F000E596F000E5E6F000E5F6FCA
:100CC800000E5C6F000E5D6F000E626F000E636FAA
:100CD800000E606F000E616F000E666F000E676F8A
:100CE800000E646F000E656F000E6A6F000E6B6F6A
:100CF800000E686F000E696F6E696F696C69E30EAC
:100D08006D6F130E436FA80E446F010E456F6E0E84
:100D1800036E1A0E046E2EEC0DF0779C768C000E86
:100D28006F6E6ECF05F0E00E0516D8A49EEF06F0A4
:100D3800A0EF06F095EF06F01200C2EC09F02304CC
:100D48002410D8A4AAEF06F0ACEF06F05EEF07F087
:100D580089808B8CB4EC08F023C02FF024C030F0CD
:100D680025C031F026C032F0000E336E000E346E0E
:100D7800800E356E3F0E366EECEC0AF0D8A0C7EF49
:100D880006F0C9EF06F056EF07F0898489868B8252
:100D98008B88210E3B6E760EE82EFED73B2EFCD7B5
:100DA80000D08B848B8A210E3B6E760EE82EFED700
:100DB8003B2EFCD700D0000E1C6E020E1B6E77EC8B
:100DC8000CF00E0E166E010E176ECAEC03F0000939
:100DD800D8B4F1EF06F0F3EF06F008EF07F0250EB0
:100DE80001010F190DE1020E10190AE1950E1119F2
:100DF80007E1080E1219D8A404EF07F006EF07F070
:100E080008EF07F00AEF07F03D4A3E2A3EBE16EF0C
:100E180007F0E90E3D5C030E3E58D8A016EF07F028
:100E280018EF07F022EF07F03EEC0AF0000E1C6EF8
:100E3800010E1B6E61EC0CF05EEF07F08B808B8669
:100E48000D0E3C6EAF0E3B6EB60EE82EFED73B2E57
:100E5800FCD73C2EFAD700D08B948B9A410E3B6E70
:100E6800EE0EE82EFED73B2EFCD700D08982000E6E
:100E7800406E010E3F6E010E0101006F220E016FE0
:100E8800000E026F000E036F000E046F010E056F57
:100E9800010E066F000E156E010E166E3DEC02F087
:100EA8005EEF07F03EEC0AF0000E1C6E010E1B6EA2
:100EB8004BEC0CF01200020E0718D8A466EF07F0EE
:100EC80068EF07F0EBEF07F00AC0D9FF0BC0DAFFB5
:100ED80003C0DFFF03C010F004C011F005C012F01A
:100EE80006C013F011C010F012C011F013C012F0B8
:100EF800136A10C003F011C004F012C005F013C04B
:100F080006F008C0D9FF09C0DAFF03C0DFFF03C03D
:100F180010F004C011F005C012F006C013F011C0A3
:100F280010F012C011F013C012F0136A10C003F0D1
:100F380011C004F012C005F013C006F00350030BF3
:100F4800146E03C010F004C011F005C012F006C002
:100F580013F0030ED8901036113612361336E82ED9
:100F6800AEEF07F010C003F011C004F012C005F096
:100F780013C006F00350E00B1424146E1450080F2D
:100F8800146E1450EB0B0EC0D9FF0FC0DAFFDF6EE2
:100F980003C010F004C011F005C012F006C013F031
:100FA80011C010F012C011F013C012F0136A10C073
:100FB80003F011C004F012C005F013C006F00CC015
:100FC800D9FF0DC0DAFF03C0DFFF16EF08F008C035
:100FD800D9FF09C0DAFFDF6A0AC0D9FF0BC0DAFF00
:100FE800DF6A03C010F004C011F005C012F006C09B
:100FF80013F0050ED8901036113612361336E82E37
:10100800FEEF07F010C003F011C004F012C005F0A5
:1010180013C006F00EC0D9FF0FC0DAFF03C0DFFF10
:10102800CCEF07F012000B6E000E126E000E136E5E
:10103800000E146E000E156E0550030B106E053869
:10104800E842070B116E0450076E086AD8900736FD
:101058000836D89007360836D8900736083607C0BD
:1010680012F008C013F0000E13BEFF0E146E156EBA
:1010780011501224126E000E1320136E000E14204D
:10108800146E000E1520156E12C007F013C008F07C
:1010980014C009F015C00AF0020ED89007360836B9
:1010A80009360A36E82E51EF08F007C012F008C0DA
:1010B80013F009C014F00AC015F010501224126E73
:1010C800000E1320136E000E1420146E000E15204F
:1010D800156E12C008F013C009F014C00AF0076AB0
:1010E80007C012F008C013F009C014F00AC015F0C8
:1010F8000B501224126E000E1320136E000E1420D3
:10110800146E000E1520156E12C008F013C009F0F9
:1011180014C00AF0076A07C012F008C013F009C02B
:1011280014F00AC015F003501224126E000E13209A
:10113800136E000E1420146E000E1520156E12C0CA
:101148000CF013C00DF014C00EF015C00FF00CC059
:1011580003F00DC004F00EC005F00FC006F0120039
:10116800060EFBEC0BF003C015F004C016F0176A6E
:10117800186A000EF4EC04F015C027F016C028F029
:1011880017C029F018C02AF027C003F028C004F0BF
:1011980029C005F02AC006F0000E076E000E086E82
:1011A800400E096E400E0A6E28EC00F003C02BF0CA
:1011B80004C02CF005C02DF006C02EF02BC00FF097
:1011C8002CC010F02DC011F02EC012F0D3EC0BF093
:1011D8000F041010D8A4F3EF08F0F5EF08F00CEFA7
:1011E80009F0010E00016E6F890E6F6F000E706FAF
:1011F800000E716F000E726F010E736F010E746F27
:101208006E0E156E000E166E3DEC02F021EF09F021
:10121800010E0001606F990E616F000E626F000E83
:10122800636F000E646F010E656F010E666F600ECE
:10123800156E000E166E3DEC02F02BC00FF02CC0A0
:1012480010F02DC011F02EC012F0D3EC0BF00FC02F
:1012580015F010C016F0000E16BEFF0E176E186EB1
:10126800010EF4EC04F015C023F016C024F017C0EA
:1012780025F018C026F01200000E03140B6E000EA5
:1012880004140C6E800E05140D6E7F0E06140E6E7F
:101298000B500C100D100E10D8A455EF09F057EF95
:1012A80009F05FEF09F0000E036E000E046E000EE9
:1012B800056E000E066E000E07140B6E000E081465
:1012C8000C6E800E09140D6E7F0E0A140E6E0B50F4
:1012D8000C100D100E10D8A474EF09F076EF09F079
:1012E8007EEF09F0000E076E000E086E000E096E04
:1012F800000E0A6E06AE83EF09F085EF09F08EEF57
:1013080009F0036C041ED8B0042A051ED8B0052ABB
:10131800800E06560AAE93EF09F095EF09F09EEF9E
:1013280009F0076C081ED8B0082A091ED8B0092A87
:10133800800E0A56000E031A000E041A000E051A33
:10134800800E061A000E071A000E081A000E091A57
:10135800800E0A1A0750035C0850045809500558B3
:101368000A500658D8B0BBEF09F0BDEF09F0C0EF3E
:1013780009F0D890C1EF09F0D8801200040EFBECF8
:101388000BF003C015F004C016F0176A186A000EB7
:10139800F4EC04F015C025F016C026F017C027F0AD
:1013A80018C028F025C003F026C004F027C005F0B7
:1013B80028C006F0000E076E000E086E400E096E7B
:1013C800400E0A6E28EC00F003C029F004C02AF091
:1013D80005C02BF006C02CF029C00FF02AC010F071
:1013E8002BC011F02CC012F0D3EC0BF00F0410102E
:1013F800D8A401EF0AF003EF0AF01AEF0AF0010E81
:1014080000018A6F690E8B6F000E8C6F000E8D6F56
:10141800000E8E6F010E8F6F010E906F8A0E156E83
:10142800000E166E3DEC02F02FEF0AF0010E0001DF
:101438007C6F790E7D6F000E7E6F000E7F6F000E41
:10144800806F010E816F010E826F7C0E156E000E8B
:10145800166E3DEC02F029C00FF02AC010F02BC028
:1014680011F02CC012F0D3EC0BF00FC023F010C019
:1014780024F0120080A243EF0AF045EF0AF046EF8D
:101488000AF0899282AA4BEF0AF04DEF0AF04EEF6C
:101498000AF08B9A82A453EF0AF055EF0AF056EF40
:1014A8000AF08B9482A65BEF0AF05DEF0AF05EEF1C
:1014B8000AF08B9682A063EF0AF065EF0AF066EFF8
:1014C8000AF08B9082A86BEF0AF06DEF0AF06EEFCE
:1014D8000AF08B9882A273EF0AF075EF0AF076EFA4
:1014E8000AF08B9280A67BEF0AF07DEF0AF07EEF80
:1014F8000AF0899682AC83EF0AF085EF0AF086EF4E
:101508000AF08B9C80A48BEF0AF08DEF0AF08EEF27
:101518000AF0899480A093EF0AF095EF0AF096EF0D
:101528000AF08990120006EC0DF03F504010D8A444
:10153800A0EF0AF0A2EF0AF0AFEF0AF0C2EC09F050
:1015480023042410D8A4ABEF0AF0ADEF0AF0AFEFF4
:101558000AF0A1EC06F03F044010D8A4B6EF0AF058
:10156800B8EF0AF0E4EF0AF0C2EC09F023502410B7
:10157800D8A4C1EF0AF0C3EF0AF0C7EF0AF033ECC2
:101588000CF0E4EF0AF0B4EC08F023C02FF024C00C
:1015980030F025C031F026C032F0000E336E000E58
:1015A800346E000E356E000E366EECEC0AF0D8A0E4
:1015B800E0EF0AF0E2EF0AF0E4EF0AF01CEC0DF0BD
:1015C8007DEC0BF0E5EC0CF099EF0AF026EF00F05B
:1015D800000E2F14376E000E3014386E800E311442
:1015E800396E7F0E32143A6E3750381039103A106F
:1015F800D8A401EF0BF003EF0BF00BEF0BF0000E8C
:101608002F6E000E306E000E316E000E326E000E20
:101618003314376E000E3414386E800E3514396E5C
:101628007F0E36143A6E3750381039103A10D8A455
:1016380020EF0BF022EF0BF02AEF0BF0000E336EC9
:10164800000E346E000E356E000E366E33502F18B5
:101658000FE1345030180CE13550311809E136509B
:101668003218D8B43AEF0BF03CEF0BF03FEF0BF029
:10167800D89040EF0BF0D8801200096E0950076E21
:10168800086AD89007360836D89007360836D890B2
:101698000736083607C00EF008C00FF0000E0FBE60
:1016A800FF0E106E116E03C007F0050E086ED8907D
:1016B8000732082E5BEF0BF007500E240E6E000E5B
:1016C8000F200F6E000E1020106E000E1120116EEC
:1016D8000EC00AF00FC00BF010C00CF011C00DF0D6
:1016E8000AC003F00BC004F00CC005F00DC006F0F2
:1016F8001200C2EC09F023502410D8A486EF0BF096
:1017080088EF0BF0A9EF0BF0B4EC08F023C02FF032
:1017180024C030F025C031F026C032F0000E336E00
:10172800000E346E800E356E3F0E366EECEC0AF00D
:10173800D8A0A1EF0BF0A3EF0BF0A9EF0BF0000E70
:101748001C6E010E1B6EB9EC0CF01200660EF66EE4
:101758001A0EF76E000EF86E00EE53F010EE04F05D
:101768000900F5CFEEFFE550E150FAE101EE00F097
:101778001C0EEE6AE806FDE100EE60F09A0EEE6AD5
:10178800E806FDE100EE3DF0160EEE6AE806FDE122
:1017980057905792000EF86E000197EF0AF00FC0AD
:1017A80003F010C004F011C005F012C006F0330EAB
:1017B800076E330E086E230E096E410E0A6E40EC5A
:1017C80009F0D8A0EAEF0BF0ECEF0BF0F2EF0BF01A
:1017D800000E146E010E136EF6EF0BF0000E146E71
:1017E800000E136E13C00FF014C010F01200076E35
:1017F80007C005F005460546C2500518830B0518B5
:10180800C26EC280C282C2B20CEF0CF00EEF0CF0B6
:1018180007EF0CF0C450066E056AC3500524036E2A
:10182800000E0620046E1200000E8D6E000E8C6EE7
:10183800000E896E000E8A6E000E8B6E070E966E75
:10184800E00E926EFB0E936E800E946E95680F01FB
:101858005D697F0E5C6F000E5B6FF18E1200C2EC4B
:1018680009F023502410D8A43CEF0CF03EEF0CF004
:1018780044EF0CF0000E1C6E010E1B6E8DEC0CF08C
:10188800000E1C6E010E1B6E8DEC0CF01200010E8A
:101898000001DE6F030EDF6F000EE06F000EE16FD8
:1018A800000EE26F010EE36F1BC0E4F0DE0E156E52
:1018B800000E166E3DEC02F01200010E0001EC6FF6
:1018C800020EED6F000EEE6F000EEF6F000EF06F60
:1018D800010EF16F1BC0F2F0EC0E156E000E166EC5
:1018E8003DEC02F01200010E0001986F400E996F56
:1018F800950E9A6FF80E9B6F080E9C6F010E9D6FE8
:101908001BC09EF0980E156E000E166E3DEC02F090
:101918001200010E0001A66F180EA76F000EA86F27
:10192800000EA96F000EAA6F010EAB6F1BC0ACF0C2
:10193800A60E156E000E166E3DEC02F01200010E9A
:101948000001D06F040ED16F000ED26F000ED36F5E
:10195800000ED46F010ED56F1BC0D6F0D00E156ED9
:10196800000E166E3DEC02F01200010E0001C26F6F
:10197800090EC36F000EC46F000EC56F000EC66F50
:10198800010EC76F1BC0C8F0C20E156E000E166E92
:101998003DEC02F01200010E0001B46F050EB56FA8
:1019A800000EB66F000EB76F000EB86F010EB96F5C
:1019B8001BC0BAF0B40E156E000E166E3DEC02F0A8
:1019C8001200C2EC09F023042410D8B4EEEF0CF096
:1019D800F0EF0CF0F6EF0CF0000E1C6E010E1B6E13
:1019E800CFEC0CF0120002D804EF0DF00500FA6EEF
:1019F8004350FD6E4450FE6EF850FF6EFA501200D0
:101A0800779C120035EC0DF018EC0CF025EC0DF07D
:101A180011EC0DF0CEEC05F01200010EC26E000EB6
:101A2800C16E880EC06E000EC46E000EC36E12002A
:101A380089968994000E1C6E010E1B6EA3EC0CF0A7
:101A48001200600ED36E000ED26E000E9B6E000E5A
:101A58009A6E120003C043F004C044F012003333FE
:081A68002341D09E1200120080
:020000040020DA
:08000000FFFFFFFFFFFFFFFF00
:020000040030CA
:0E00000015027F7CFF8991FF0FC00FE00F40BB
:00000001FF
