:0400000026EF00F0F7
:100008005B82FACF01F0FBCF02F0F2AC0EEF00F00A
:1000180010EF00F020EF00F076AC15EF00F017EFCE
:1000280000F020EF00F077AC1CEF00F01EEF00F0BE
:1000380020EF00F0FCEC0CF002C0FBFF01C0FAFF5F
:100048005B9211002EEF0CF01F50800B286E1F5092
:100058001F242E6E1EAE33EF00F035EF00F036EFA2
:1000680000F02E802E50D8B43CEF00F03EEF00F0A8
:1000780051EF00F02E28D8A444EF00F046EF00F02E
:100088004EEF00F0000E1C6E000E1D6E000E1E6E70
:10009800000E1F6E1E8E59EF00F0000E1C6E000E33
:1000A8001D6E000E1E6E000E1F6E2350800B281A48
:1000B800235023242D6E22AE64EF00F066EF00F08B
:1000C80067EF00F02D802D50D8B46DEF00F06FEF82
:1000D80000F082EF00F02D28D8A475EF00F077EF3C
:1000E80000F07FEF00F0000E206E000E216E000E73
:1000F800226E000E236E228E8AEF00F0000E206E14
:10010800000E216E000E226E000E236E2D50D8B404
:1001180090EF00F092EF00F09AEF00F02E50D8A484
:1001280098EF00F09AEF00F0A4EF00F0000E1C6EBC
:10013800000E1D6E000E1E6E000E1F6E3CEF02F0CC
:1001480022501C02F3CF33F0F4CF34F03350296E31
:100158002A6A2B6A2C6A34502F6E306A316A326AE6
:1001680021501D02F3CF33F0F4CF34F03350292659
:10017800000E2A222B222C2234502F26000E302249
:100188003122322220501E02F3CF33F0F4CF34F064
:1001980033502926000E2A222B222C2234502F26B7
:1001A800000E3022312232222BC02CF02AC02BF034
:1001B80029C02AF0296A20501D02F3CF33F0F4CF6A
:1001C80034F03350292634502A22000E2B22000EF8
:1001D8002C2221501C02F3CF33F0F4CF34F03350EB
:1001E800292634502A22000E2B22000E2C222BC046
:1001F8002CF02AC02BF029C02AF0296A20501C02B2
:10020800F3CF33F0F4CF34F03350292634502A2278
:10021800000E2B22000E2C2222501D02F3CF33F0A9
:10022800F4CF34F033502F2634503022000E3122D0
:10023800000E322221501E02F3CF33F0F4CF34F0F7
:1002480033502F2634503022000E3122000E322235
:1002580022501E02F3CF33F0F4CF34F03350246E23
:100268003450256E266A276A26C027F025C026F056
:1002780024C025F0246A24502F26255030222650E9
:1002880031222750322229C024F02AC025F02BC061
:1002980026F02CC027F0190E57EF01F0D89027321E
:1002A800263225322432E82E52EF01F024502F2630
:1002B8002550302226503122275032222BC02CF0D4
:1002C8002AC02BF029C02AF0296A2D502EC024F00C
:1002D800256A2426000E2522820E2424336EFF0E62
:1002E8002520346E8DEF01F0D8902F363036313618
:1002F80032362CAE82EF01F084EF01F085EF01F089
:100308002F80D89029362A362B362C363306D8A09B
:10031800340631AE92EF01F094EF01F078EF01F07E
:10032800000E2D6E2CAE9BEF01F09DEF01F0C1EF9A
:1003380001F0FF0E2914246EFF0E2A14256EFF0EFD
:100348002B14266E7F0E2C14276E24502510261091
:100358002710D8B4B2EF01F0B4EF01F0B8EF01F014
:10036800010E2D6EC1EF01F02FA0BDEF01F0BFEF20
:1003780001F0C1EF01F0B4EF01F02D50D8B4C7EF90
:1003880001F0C9EF01F0EDEF01F0010E2F26000E8C
:1003980030223122322232A0D4EF01F0D6EF01F020
:1003A800EDEF01F02FC024F030C025F031C026F069
:1003B80032C027F02734273226322532243224C08F
:1003C8002FF025C030F026C031F027C032F0334A74
:1003D800342A34BEF8EF01F0345008E13328D8A0AD
:1003E800F8EF01F0FAEF01F004EF02F0000E2F6EC3
:1003F800000E306E800E316E7F0E326E32EF02F0DC
:1004080034BE11EF02F0345006E13304D8B00FEFD8
:1004180002F011EF02F01DEF02F0000E2F6E000E39
:10042800306E000E316E000E326E000E286E32EF06
:1004380002F033C02EF0FF0E2F16FF0E30167F0E7F
:100448003116000E32162EA02CEF02F02EEF02F01D
:100458002FEF02F0318ED8902E30326E28503212A3
:100468002FC01CF030C01DF031C01EF032C01FF08C
:1004780012000650800B136E065006241A6E05AE45
:1004880048EF02F04AEF02F04BEF02F01A801A50E0
:10049800D8B451EF02F053EF02F068EF02F01A28D7
:1004A800D8A459EF02F05BEF02F063EF02F0000E00
:1004B800036E000E046E000E056E000E066E058EAD
:1004C800000E066E70EF02F0000E036E000E046E52
:1004D800000E056E000E066E0A50800B131A0A50A5
:1004E8000A241B6E09AE7BEF02F07DEF02F07EEF6F
:1004F80002F01B801B50D8B484EF02F086EF02F0A4
:100508009BEF02F01B28D8A48CEF02F08EEF02F0CC
:1005180096EF02F0000E076E000E086E000E096ED0
:10052800000E0A6E098E000E0A6EA3EF02F0000E8E
:10053800076E000E086E000E096E000E0A6E075058
:10054800081009100A10D8A4ACEF02F0AEEF02F0C0
:10055800C6EF02F0000E036E000E046E000E056E6C
:10056800000E066E800E05127F0E0612135006123C
:1005780003C003F004C004F005C005F006C006F08F
:1005880009EF04F01A50D8A4CCEF02F0CEEF02F035
:10059800D8EF02F0000E036E000E046E000E056E1A
:1005A800000E066E09EF04F01B501AC00BF00C6A1F
:1005B8000B5E000E0C5A7F0E0B24146E000E0C20DE
:1005C800156E03C00FF004C010F005C011F006C08E
:1005D80012F0000E036E000E046E000E056E000E83
:1005E800066E000E166E000E176E000E186E000EC8
:1005F800196E000E1B6E39EF03F01B50D8B407EFCD
:1006080003F009EF03F020EF03F0D8900F3610360F
:1006180011361236D890033604360536063619AE2A
:1006280018EF03F01AEF03F01BEF03F00380D890E4
:10063800163617361836193607500F5C08501058FA
:10064800095011580A501258D8A02DEF03F02FEF77
:1006580003F038EF03F0198C07500F5E0850105A5A
:100668000950115A0A50125A1B2A190E1B643FEFDF
:1006780003F041EF03F001EF03F00F5010101110D9
:100688001210D8B44AEF03F04CEF03F064EF03F014
:10069800168064EF03F0D890033604360536063624
:1006A80019AE59EF03F05BEF03F05CEF03F0038042
:1006B800D89016361736183619361406D8A01506E7
:1006C80005AE69EF03F06BEF03F04FEF03F0000E98
:1006D8001B6E19AE72EF03F074EF03F098EF03F09E
:1006E800FF0E16140B6EFF0E17140C6EFF0E181467
:1006F8000D6E7F0E19140E6E0B500C100D100E108F
:10070800D8B489EF03F08BEF03F08FEF03F0010EFD
:100718001B6E98EF03F003A094EF03F096EF03F03D
:1007280098EF03F08BEF03F01B50D8B49EEF03F063
:10073800A0EF03F0C4EF03F0010E0326000E04221D
:100748000522062206A0ABEF03F0ADEF03F0C4EFDD
:1007580003F003C00BF004C00CF005C00DF006C098
:100768000EF00E340E320D320C320B320BC003F089
:100778000CC004F00DC005F00EC006F0144A152A8E
:1007880015BECFEF03F0155008E11428D8A0CFEF1D
:1007980003F0D1EF03F0DCEF03F0000E156E1468E0
:1007A800000E036E000E046E000E056E000E066E3F
:1007B80015BEE9EF03F0155006E11404D8B0E7EFD1
:1007C80003F0E9EF03F0F7EF03F0000E156E000EEB
:1007D800146E000E036E000E046E000E056E000E01
:1007E800066E000E136E14C01AF01AA0FEEF03F086
:1007F80000EF04F003EF04F0058E04EF04F0059E0B
:10080800D8901A30066EBAEF02F01200000E176E7A
:10081800000E186E000E196E000E1A6E0F0120B72A
:1008280018EF04F01AEF04F094EF04F020EE01F052
:100838001550D9261650DA22DECF03F0DECF04F0A9
:10084800DECF05F0DECF06F015C0D9FF16C0DAFFFF
:10085800DF50076E170E086E000E096E180E0A6E2E
:10086800000E0B6E190E0C6E000E0D6E1A0E0E6E2B
:10087800000E0F6E6EEC08F017C023FF18C024FF9F
:1008880019C021FF1AC022FF20EE05F01550D92605
:100898001650DA22DF500F01256F20EE06F01550B2
:1008A800D9261650DA22DF50266F20EE07F01550B1
:1008B800D9261650DA22DF50276F20EE08F015509F
:1008C800D9261650DA22DF50286F20EE09F015508D
:1008D800D9261650DA22DF50296F20EE0AF015507B
:1008E800D9261650DA22DF502A6F20EE0BF0155069
:1008F800D9261650DA22DF502B6F20EE0CF0155057
:10090800D9261650DA22DF502C6F20EE0DF0155044
:10091800D9261650DA22DF502D6F208796EF05F082
:1009280010B799EF04F09BEF04F015EF05F020EEF7
:1009380001F01550D9261650DA22DECF03F0DECFAB
:1009480004F0DECF05F0DECF06F015C0D9FF16C0E3
:10095800DAFFDF50076E170E086E000E096E180ECC
:100968000A6E000E0B6E190E0C6E000E0D6E1A0E2E
:100978000E6E000E0F6E6EEC08F017C013FF18C055
:1009880014FF19C011FF1AC012FF20EE05F0155010
:10099800D9261650DA22DF500F01156F20EE06F027
:1009A8001550D9261650DA22DF50166F20EE07F0C0
:1009B8001550D9261650DA22DF50176F20EE08F0AE
:1009C8001550D9261650DA22DF50186F20EE09F09C
:1009D8001550D9261650DA22DF50196F20EE0AF08A
:1009E8001550D9261650DA22DF501A6F20EE0BF078
:1009F8001550D9261650DA22DF501B6F20EE0CF066
:100A08001550D9261650DA22DF501C6F20EE0DF053
:100A18001550D9261650DA22DF501D6F108792EF35
:100A280004F000B71AEF05F01CEF05F096EF05F09B
:100A380020EE01F01550D9261650DA22DECF03F049
:100A4800DECF04F0DECF05F0DECF06F015C0D9FF0B
:100A580016C0DAFFDF50076E170E086E000E096E1B
:100A6800180E0A6E000E0B6E190E0C6E000E0D6E2F
:100A78001A0E0E6E000E0F6E6EEC08F017C003FF14
:100A880018C004FF19C001FF1AC002FF20EE05F0CC
:100A98001550D9261650DA22DF500F01056F20EEC7
:100AA80006F01550D9261650DA22DF50066F20EED0
:100AB80007F01550D9261650DA22DF50076F20EEBE
:100AC80008F01550D9261650DA22DF50086F20EEAC
:100AD80009F01550D9261650DA22DF50096F20EE9A
:100AE8000AF01550D9261650DA22DF500A6F20EE88
:100AF8000BF01550D9261650DA22DF500B6F20EE76
:100B08000CF01550D9261650DA22DF500C6F20EE63
:100B18000DF01550D9261650DA22DF500D6F0087D8
:100B280092EF04F01200000E186E60AE9EEF05F012
:100B3800A0EF05F02CEF06F062A6A5EF05F0A7EFF1
:100B480005F0C6EF05F016C0D9FF17C0DAFF020E90
:100B5800DF6E64CF03F061CF04F062CF05F063501D
:100B680028EC09F020EE01F01650D9261750DA22A9
:100B780003C0DEFF04C0DEFF05C0DEFF06C0DEFFE7
:100B8800DFEF05F016C0D9FF17C0DAFF010EDF6EE0
:100B980062CF03F06150F2EC0BF020EE01F016503A
:100BA800D9261750DA2203C0DEFF04C0DEFF05C0D5
:100BB800DEFF06C0DEFF20EE05F01650D9261750DE
:100BC800DA2265CFDFFF20EE06F01650D92617503F
:100BD800DA2266CFDFFF20EE07F01650D92617502D
:100BE800DA2267CFDFFF20EE08F01650D92617501B
:100BF800DA2268CFDFFF20EE09F01650D926175009
:100C0800DA2269CFDFFF20EE0AF01650D9261750F6
:100C1800DA226ACFDFFF20EE0BF01650D9261750E4
:100C2800DA226BCFDFFF20EE0CF01650D9261750D2
:100C3800DA226CCFDFFF20EE0DF01650D9261750C0
:100C4800DA226DCFDFFF609E010E186EBFEF06F04F
:100C58000F0130AF32EF06F034EF06F0BFEF06F0C9
:100C680032A739EF06F03BEF06F05AEF06F016C050
:100C7800D9FF17C0DAFF020EDF6E34CF03F031CF91
:100C880004F032CF05F0335128EC09F020EE01F0E2
:100C98001650D9261750DA2203C0DEFF04C0DEFF43
:100CA80005C0DEFF06C0DEFF73EF06F016C0D9FFF1
:100CB80017C0DAFF010EDF6E32CF03F03151F2ECCC
:100CC8000BF020EE01F01650D9261750DA2203C097
:100CD800DEFF04C0DEFF05C0DEFF06C0DEFF20EE3B
:100CE80005F01650D9261750DA2235CFDFFF20EE4F
:100CF80006F01650D9261750DA2236CFDFFF20EE3D
:100D080007F01650D9261750DA2237CFDFFF20EE2A
:100D180008F01650D9261750DA2238CFDFFF20EE18
:100D280009F01650D9261750DA2239CFDFFF20EE06
:100D38000AF01650D9261750DA223ACFDFFF20EEF4
:100D48000BF01650D9261750DA223BCFDFFF20EEE2
:100D58000CF01650D9261750DA223CCFDFFF20EED0
:100D68000DF01650D9261750DA223DCFDFFF0F01BC
:100D7800309F28EF06F018501200106E1050D8B4AB
:100D8800C8EF06F0CAEF06F0ECEF06F00BBED1EFA5
:100D980006F0CFEF06F0ECEF06F008C00CF009C043
:100DA8000DF00AC00EF00BC00FF00C1E0D1E0E1E2B
:100DB8000F1E0C2A000E0D220E220F220CC012F05C
:100DC8000DC013F00EC014F00FC015F0F4EF06F0CC
:100DD80008C012F009C013F00AC014F00BC015F0D7
:100DE800085009100A100B10D8A4FDEF06F0FFEF09
:100DF80006F009EF07F0000E086E000E096E000EEF
:100E08000A6E000E0B6E9AEF07F0960E116E13EF36
:100E180007F0112AD8901532143213321232000E0C
:100E280012140C6E000E13140D6E000E14140E6EB8
:100E3800FE0E15140F6E0C500D100E100F10D8A4C6
:100E480028EF07F02AEF07F00DEF07F038EF07F06B
:100E5800112A010E1226000E132214221522D890F0
:100E68001532143213321232000E12140C6E000EA8
:100E780013140D6E000E14140E6EFF0E15140F6E63
:100E88000C500D100E100F10D8A44DEF07F04FEFB7
:100E980007F02CEF07F057EF07F01106D89012363D
:100EA80013361436153614BE5CEF07F05EEF07F004
:100EB80066EF07F0020E116064EF07F066EF07F0C7
:100EC80051EF07F011B06BEF07F06DEF07F06EEF21
:100ED80007F0149ED890113211C00CF00D6A0E6AFA
:100EE8000F6A0CC00FF00E6A0D6A0C6A0C501212D1
:100EF8000D5013120E5014120F5015121050D8B472
:100F080088EF07F08AEF07F092EF07F00BBE91EF3A
:100F180007F08FEF07F092EF07F0158E12C008F078
:100F280013C009F014C00AF015C00BF01200800EAF
:100F38006F6E6E50E00B800AD8A4A5EF07F0A7EFFC
:100F480007F09DEF07F0400E726E200E706E000ED7
:100F58000E017D6FFA69FB69050EF86FC30EF96F14
:100F6800FE69FF69FC69E30EFD6F010E466F000E16
:100F7800476F000E796F000E7A6F000E7B6F000EC0
:100F88007C6F000E716F000E726F000E736F000E93
:100F9800746F000E756F000E766F000E776F000E7F
:100FA800786F020EE26F250EE36F440EE06FA90E14
:100FB800E16F000EE66F000EE76F000EE46F000EA3
:100FC800E56F000EEA6F000EEB6F000EE86F000E83
:100FD800E96F000EEE6F000EEF6F000EEC6F000E63
:100FE800ED6F000EF26F000EF36F000EF06F000E43
:100FF800F16F000EF66F000EF76F000EF46F000E23
:10100800F56F000E4A6F000E4B6F000E486F000E12
:10101800496F000E4E6F000E4F6F000E4C6F000EA2
:101028004D6F000E526F000E536F000E506F000E82
:10103800516F000E566F000E576F000E546F000E62
:10104800556F000E5A6F000E5B6F000E586F000E42
:10105800596F000E5E6F000E5F6F000E5C6F000E22
:101068005D6F000E626F000E636F000E606F000E02
:10107800616F000E666F000E676F000E646F000EE2
:10108800656F000E6A6F000E6B6F000E686F000EC2
:10109800696F6E696F696C69E30E6D6F030E436F5C
:1010A800A80E446F010E456F940E036E1A0E046E5F
:1010B80041EC0DF0779C768C000E6F6E6ECF05F0CC
:1010C800E00E0516D8A46BEF08F06DEF08F062EF9C
:1010D80008F01200020E0718D8A475EF08F077EF91
:1010E80008F0FAEF08F00AC0D9FF0BC0DAFF03C016
:1010F800DFFF03C010F004C011F005C012F006C0F5
:1011080013F011C010F012C011F013C012F0136ADE
:1011180010C003F011C004F012C005F013C006F0AF
:1011280008C0D9FF09C0DAFF03C0DFFF03C010F011
:1011380004C011F005C012F006C013F011C010F081
:1011480012C011F013C012F0136A10C003F011C0DE
:1011580004F012C005F013C006F00350030B146E20
:1011680003C010F004C011F005C012F006C013F05F
:10117800030ED8901036113612361336E82EBDEF0E
:1011880008F010C003F011C004F012C005F013C03D
:1011980006F00350E00B1424146E1450080F146E5C
:1011A8001450EB0B0EC0D9FF0FC0DAFFDF6E03C07F
:1011B80010F004C011F005C012F006C013F011C001
:1011C80010F012C011F013C012F0136A10C003F02F
:1011D80011C004F012C005F013C006F00CC0D9FF0E
:1011E8000DC0DAFF03C0DFFF27EF09F008C0D9FF01
:1011F80009C0DAFF000EDF6E0AC0D9FF0BC0DAFFA4
:10120800000EDF6E03C010F004C011F005C012F02C
:1012180006C013F0050ED890103611361236133664
:10122800E82E0FEF09F010C003F011C004F012C04F
:1012380005F013C006F00EC0D9FF0FC0DAFF03C0D7
:10124800DFFFDBEF08F012000B6E000E126E000ECF
:10125800136E000E146E000E156E0550030B106E03
:101268000538E842070B116E0450076E086AD890DB
:1012780007360836D89007360836D8900736083625
:1012880007C012F008C013F0000E13BEFF0E146E54
:10129800156E11501224126E000E1320136E000EDC
:1012A8001420146E000E1520156E12C007F013C01E
:1012B80008F014C009F015C00AF0020ED8900736DD
:1012C800083609360A36E82E62EF09F007C012F030
:1012D80008C013F009C014F00AC015F01050122409
:1012E800126E000E1320136E000E1420146E000EE2
:1012F8001520156E12C008F013C009F014C00AF0CA
:10130800076A07C012F008C013F009C014F00AC039
:1013180015F00B501224126E000E1320136E000EDF
:101328001420146E000E1520156E12C008F013C09C
:1013380009F014C00AF0076A07C012F008C013F0D9
:1013480009C014F00AC015F003501224126E000EE2
:101358001320136E000E1420146E000E1520156E47
:1013680012C00CF013C00DF014C00EF015C00FF031
:101378000CC003F00DC004F00EC005F00FC006F05D
:101388001200000E03140B6E000E04140C6E800E77
:1013980005140D6E7F0E06140E6E0B500C100D10FA
:1013A8000E10D8A4DAEF09F0DCEF09F0E4EF09F049
:1013B800000E036E000E046E000E056E000E066E23
:1013C800000E07140B6E000E08140C6E800E091424
:1013D8000D6E7F0E0A140E6E0B500C100D100E10B1
:1013E800D8A4F9EF09F0FBEF09F003EF0AF0000EBB
:1013F800076E000E086E000E096E000E0A6E06AE2D
:1014080008EF0AF00AEF0AF013EF0AF0036C041E63
:10141800D8B0042A051ED8B0052A800E06560AAE92
:1014280018EF0AF01AEF0AF023EF0AF0076C081E0B
:10143800D8B0082A091ED8B0092A800E0A56000E0C
:10144800031A000E041A000E051A800E061A000E62
:10145800071A000E081A000E091A800E0A1A0750F9
:10146800035C08500458095005580A500658D8B06B
:1014780040EF0AF042EF0AF045EF0AF0D89046EF45
:101488000AF0D8801200040E57EC0CF003C008F0E4
:1014980004C009F00A6A0B6A000EC1EC06F008C025
:1014A8003BF009C03CF00AC03DF00BC03EF0000E16
:1014B800076EC00E086E7F0E096E440E0A6E3BC0A2
:1014C80003F03CC004F03DC005F03EC006F03DEC22
:1014D80002F003C01CF004C01DF005C01EF006C0D9
:1014E8001FF0000E206E000E216EA00E226E400E20
:1014F800236E28EC00F01CC03BF01DC03CF01EC061
:101508003DF01FC03EF03BC01CF03CC01DF03DC08C
:101518001EF03EC01FF0000E206E000E216E400E21
:10152800226E400E236E28EC00F01CC037F01DC060
:1015380038F01EC039F01FC03AF037C003F038C089
:1015480004F039C005F03AC006F0330E076E330ECA
:10155800086E230E096E410E0A6EC5EC09F0D8A07C
:10156800B8EF0AF0BAEF0AF0C0EF0AF0000E366ED4
:10157800010E356EC4EF0AF0000E366E000E356EA1
:101588001200060E57EC0CF003C008F004C009F076
:101598000A6A0B6A000EC1EC06F008C03BF009C0ED
:1015A8003CF00AC03DF00BC03EF0000E076EC00EC6
:1015B800086E7F0E096E440E0A6E3BC003F03CC0F5
:1015C80004F03DC005F03EC006F03DEC02F003C05B
:1015D8001CF004C01DF005C01EF006C01FF0000E70
:1015E800206E000E216EA00E226E400E236E28EC97
:1015F80000F01CC03BF01DC03CF01EC03DF01FC0F9
:101608003EF03BC01CF03CC01DF03DC01EF03EC08B
:101618001FF0000E206E000E216E400E226E400E4E
:10162800236E28EC00F01CC037F01DC038F01EC037
:1016380039F01FC03AF037C003F038C004F039C0A1
:1016480005F03AC006F0000E076E000E086E400E58
:10165800096E410E0A6EC5EC09F0D8A036EF0BF002
:1016680038EF0BF03EEF0BF0000E366E010E356EC4
:1016780042EF0BF0000E366E000E356E12000BECCA
:101688000DF0000E446E000E436E43504410D8A473
:1016980050EF0BF052EF0BF056EF0BF09BEC0BF00A
:1016A80049EF0BF0EC0E166E000E176E97EC05F076
:1016B8000009D8B462EF0BF064EF0BF07DEF0BF08C
:1016C8000001EC05D8A46BEF0BF06DEF0BF07DEF8C
:1016D8000BF0550EED1909E1020EEE19EF11F0119C
:1016E800D8A479EF0BF07BEF0BF07DEF0BF033EC28
:1016F8000DF047EC0AF035503610D8A486EF0BF001
:1017080088EF0BF08AEF0BF03AEC0DF0C5EC0AF01D
:1017180035503610D8A493EF0BF095EF0BF049EF46
:101728000BF021EC0DF049EF0BF026EF00F047EC41
:101738000AF035043610D8A4A4EF0BF0A6EF0BF08E
:10174800DAEF0BF08B828B841A0E406E5E0E3F6EC2
:101758006E0EE82EFED73F2EFCD7402EFAD700D0CB
:101768008B808B948B8CC5EC0AF035043610D8A48A
:10177800C0EF0BF0C2EF0BF0CAEF0BF0898489863B
:10178800000E446E010E436EF1EF0BF08B908B92BE
:10179800000E1C6E010E1B6EE7EC0CF0000E1C6EAA
:1017A800010E1B6E8FEC0CF0F1EF0BF07F0E406E0C
:1017B800D40E3F6E320EE82EFED73F2EFCD7402EB9
:1017C800FAD7000E1C6E010E1B6ED1EC0CF0000E49
:1017D8001C6E010E1B6E8FEC0CF01200096E095086
:1017E800076E086AD89007360836D8900736083644
:1017F800D8900736083607C00EF008C00FF0000E64
:101808000FBEFF0E106E116E03C007F0050E086EB6
:10181800D8900732082E0CEF0CF007500E240E6EED
:10182800000E0F200F6E000E1020106E000E1120FB
:10183800116E0EC00AF00FC00BF010C00CF011C0F2
:101848000DF00AC003F00BC004F00CC005F00DC089
:1018580006F012008C0EF66E1A0EF76E000EF86E79
:1018680000EE57F010EE04F00900F5CFEEFFE5505A
:10187800E150FAE101EE00F01C0EEE6AE806FDE127
:1018880000EE60F09A0EEE6AE806FDE100EE41F027
:10189800160EEE6AE806FDE15B905B92000EF86EAC
:1018A800000143EF0BF0076E07C005F0054605463B
:1018B800C2500518830B0518C26EC280C282C2B21C
:1018C80068EF0CF06AEF0CF063EF0CF0C450066E92
:1018D800056AC3500524036E000E0620046E12002C
:1018E800000E8D6E000E8C6E000E896E000E8A6ED4
:1018F800000E8B6E070E966EE00E926EFB0E936EC8
:10190800800E946E95680F015D697F0E5C6F000E06
:101918005B6FF18E1200010E0001A66F170EA76F04
:10192800000EA86F000EA96F000EAA6F010EAB6F14
:101938001BC0ACF0A60E156E000E166E0AEC04F075
:101948001200010E0001B46F180EB56F000EB66FCD
:10195800000EB76F000EB86F010EB96F1BC0BAF05A
:10196800B40E156E000E166E0AEC04F01200010E8D
:101978000001DE6F040EDF6F000EE06F000EE16FF6
:10198800000EE26F010EE36F1BC0E4F0DE0E156E71
:10199800000E166E0AEC04F01200010E0001C26F70
:1019A800050EC36F000EC46F000EC56F000EC66F24
:1019B800010EC76F1BC0C8F0C20E156E000E166E62
:1019C8000AEC04F01200010E496E030E4A6E000E76
:1019D8004B6E000E4C6E000E4D6E010E4E6E1BC00F
:1019E8004FF0490E156E000E166E0AEC04F0120048
:1019F80002D809EF0DF00500FA6E4750FD6E485009
:101A0800FE6EF850FF6EFA501200779C120048ECF8
:101A18000DF074EC0CF02AEC0DF016EC0DF09BECCC
:101A280007F01200010EC26E000EC16E880EC06E65
:101A3800000EC46E000EC36E1200000E1C6E010E66
:101A48001B6EBBEC0CF0899689941200600ED36E65
:101A5800000ED26E000E9B6E000E9A6E1200000EE3
:101A68001C6E010E1B6EA5EC0CF01200000E1C6E15
:101A7800010E1B6ED1EC0CF0120003C047F004C03D
:0E1A880048F0120033332341D09E12001200AA
:020000040020DA
:08000000FFFFFFFFFFFFFFFF00
:020000040030CA
:0E00000015027F7CFF8991FF0FC00FE00F40BB
:00000001FF
