:0400000026EF00F0F7
:100008005B82FACF01F0FBCF02F0F2AC0EEF00F00A
:1000180010EF00F020EF00F076AC15EF00F017EFCE
:1000280000F020EF00F077AC1CEF00F01EEF00F0BE
:1000380020EF00F0F2EC0AF002C0FBFF01C0FAFF6B
:100048005B92110024EF0AF01F50800B286E1F509E
:100058001F242E6E1EAE33EF00F035EF00F036EFA2
:1000680000F02E802E50D8B43CEF00F03EEF00F0A8
:1000780051EF00F02E28D8A444EF00F046EF00F02E
:100088004EEF00F0000E1C6E000E1D6E000E1E6E70
:10009800000E1F6E1E8E59EF00F0000E1C6E000E33
:1000A8001D6E000E1E6E000E1F6E2350800B281A48
:1000B800235023242D6E22AE64EF00F066EF00F08B
:1000C80067EF00F02D802D50D8B46DEF00F06FEF82
:1000D80000F082EF00F02D28D8A475EF00F077EF3C
:1000E80000F07FEF00F0000E206E000E216E000E73
:1000F800226E000E236E228E8AEF00F0000E206E14
:10010800000E216E000E226E000E236E2D50D8B404
:1001180090EF00F092EF00F09AEF00F02E50D8A484
:1001280098EF00F09AEF00F0A4EF00F0000E1C6EBC
:10013800000E1D6E000E1E6E000E1F6E3CEF02F0CC
:1001480022501C02F3CF33F0F4CF34F03350296E31
:100158002A6A2B6A2C6A34502F6E306A316A326AE6
:1001680021501D02F3CF33F0F4CF34F03350292659
:10017800000E2A222B222C2234502F26000E302249
:100188003122322220501E02F3CF33F0F4CF34F064
:1001980033502926000E2A222B222C2234502F26B7
:1001A800000E3022312232222BC02CF02AC02BF034
:1001B80029C02AF0296A20501D02F3CF33F0F4CF6A
:1001C80034F03350292634502A22000E2B22000EF8
:1001D8002C2221501C02F3CF33F0F4CF34F03350EB
:1001E800292634502A22000E2B22000E2C222BC046
:1001F8002CF02AC02BF029C02AF0296A20501C02B2
:10020800F3CF33F0F4CF34F03350292634502A2278
:10021800000E2B22000E2C2222501D02F3CF33F0A9
:10022800F4CF34F033502F2634503022000E3122D0
:10023800000E322221501E02F3CF33F0F4CF34F0F7
:1002480033502F2634503022000E3122000E322235
:1002580022501E02F3CF33F0F4CF34F03350246E23
:100268003450256E266A276A26C027F025C026F056
:1002780024C025F0246A24502F26255030222650E9
:1002880031222750322229C024F02AC025F02BC061
:1002980026F02CC027F0190E57EF01F0D89027321E
:1002A800263225322432E82E52EF01F024502F2630
:1002B8002550302226503122275032222BC02CF0D4
:1002C8002AC02BF029C02AF0296A2D502EC024F00C
:1002D800256A2426000E2522820E2424336EFF0E62
:1002E8002520346E8DEF01F0D8902F363036313618
:1002F80032362CAE82EF01F084EF01F085EF01F089
:100308002F80D89029362A362B362C363306D8A09B
:10031800340631AE92EF01F094EF01F078EF01F07E
:10032800000E2D6E2CAE9BEF01F09DEF01F0C1EF9A
:1003380001F0FF0E2914246EFF0E2A14256EFF0EFD
:100348002B14266E7F0E2C14276E24502510261091
:100358002710D8B4B2EF01F0B4EF01F0B8EF01F014
:10036800010E2D6EC1EF01F02FA0BDEF01F0BFEF20
:1003780001F0C1EF01F0B4EF01F02D50D8B4C7EF90
:1003880001F0C9EF01F0EDEF01F0010E2F26000E8C
:1003980030223122322232A0D4EF01F0D6EF01F020
:1003A800EDEF01F02FC024F030C025F031C026F069
:1003B80032C027F02734273226322532243224C08F
:1003C8002FF025C030F026C031F027C032F0334A74
:1003D800342A34BEF8EF01F0345008E13328D8A0AD
:1003E800F8EF01F0FAEF01F004EF02F0000E2F6EC3
:1003F800000E306E800E316E7F0E326E32EF02F0DC
:1004080034BE11EF02F0345006E13304D8B00FEFD8
:1004180002F011EF02F01DEF02F0000E2F6E000E39
:10042800306E000E316E000E326E000E286E32EF06
:1004380002F033C02EF0FF0E2F16FF0E30167F0E7F
:100448003116000E32162EA02CEF02F02EEF02F01D
:100458002FEF02F0318ED8902E30326E28503212A3
:100468002FC01CF030C01DF031C01EF032C01FF08C
:1004780012000650800B136E065006241A6E05AE45
:1004880048EF02F04AEF02F04BEF02F01A801A50E0
:10049800D8B451EF02F053EF02F068EF02F01A28D7
:1004A800D8A459EF02F05BEF02F063EF02F0000E00
:1004B800036E000E046E000E056E000E066E058EAD
:1004C800000E066E70EF02F0000E036E000E046E52
:1004D800000E056E000E066E0A50800B131A0A50A5
:1004E8000A241B6E09AE7BEF02F07DEF02F07EEF6F
:1004F80002F01B801B50D8B484EF02F086EF02F0A4
:100508009BEF02F01B28D8A48CEF02F08EEF02F0CC
:1005180096EF02F0000E076E000E086E000E096ED0
:10052800000E0A6E098E000E0A6EA3EF02F0000E8E
:10053800076E000E086E000E096E000E0A6E075058
:10054800081009100A10D8A4ACEF02F0AEEF02F0C0
:10055800C6EF02F0000E036E000E046E000E056E6C
:10056800000E066E800E05127F0E0612135006123C
:1005780003C003F004C004F005C005F006C006F08F
:1005880009EF04F01A50D8A4CCEF02F0CEEF02F035
:10059800D8EF02F0000E036E000E046E000E056E1A
:1005A800000E066E09EF04F01B501AC00BF00C6A1F
:1005B8000B5E000E0C5A7F0E0B24146E000E0C20DE
:1005C800156E03C00FF004C010F005C011F006C08E
:1005D80012F0000E036E000E046E000E056E000E83
:1005E800066E000E166E000E176E000E186E000EC8
:1005F800196E000E1B6E39EF03F01B50D8B407EFCD
:1006080003F009EF03F020EF03F0D8900F3610360F
:1006180011361236D890033604360536063619AE2A
:1006280018EF03F01AEF03F01BEF03F00380D890E4
:10063800163617361836193607500F5C08501058FA
:10064800095011580A501258D8A02DEF03F02FEF77
:1006580003F038EF03F0198C07500F5E0850105A5A
:100668000950115A0A50125A1B2A190E1B643FEFDF
:1006780003F041EF03F001EF03F00F5010101110D9
:100688001210D8B44AEF03F04CEF03F064EF03F014
:10069800168064EF03F0D890033604360536063624
:1006A80019AE59EF03F05BEF03F05CEF03F0038042
:1006B800D89016361736183619361406D8A01506E7
:1006C80005AE69EF03F06BEF03F04FEF03F0000E98
:1006D8001B6E19AE72EF03F074EF03F098EF03F09E
:1006E800FF0E16140B6EFF0E17140C6EFF0E181467
:1006F8000D6E7F0E19140E6E0B500C100D100E108F
:10070800D8B489EF03F08BEF03F08FEF03F0010EFD
:100718001B6E98EF03F003A094EF03F096EF03F03D
:1007280098EF03F08BEF03F01B50D8B49EEF03F063
:10073800A0EF03F0C4EF03F0010E0326000E04221D
:100748000522062206A0ABEF03F0ADEF03F0C4EFDD
:1007580003F003C00BF004C00CF005C00DF006C098
:100768000EF00E340E320D320C320B320BC003F089
:100778000CC004F00DC005F00EC006F0144A152A8E
:1007880015BECFEF03F0155008E11428D8A0CFEF1D
:1007980003F0D1EF03F0DCEF03F0000E156E1468E0
:1007A800000E036E000E046E000E056E000E066E3F
:1007B80015BEE9EF03F0155006E11404D8B0E7EFD1
:1007C80003F0E9EF03F0F7EF03F0000E156E000EEB
:1007D800146E000E036E000E046E000E056E000E01
:1007E800066E000E136E14C01AF01AA0FEEF03F086
:1007F80000EF04F003EF04F0058E04EF04F0059E0B
:10080800D8901A30066EBAEF02F01200000E176E7A
:10081800000E186E000E196E000E1A6E0F0120B72A
:1008280018EF04F01AEF04F094EF04F020EE01F052
:100838001550D9261650DA22DECF03F0DECF04F0A9
:10084800DECF05F0DECF06F015C0D9FF16C0DAFFFF
:10085800DF50076E170E086E000E096E180E0A6E2E
:10086800000E0B6E190E0C6E000E0D6E1A0E0E6E2B
:10087800000E0F6E44EC07F017C023FF18C024FFCA
:1008880019C021FF1AC022FF20EE05F01550D92605
:100898001650DA22DF500F01256F20EE06F01550B2
:1008A800D9261650DA22DF50266F20EE07F01550B1
:1008B800D9261650DA22DF50276F20EE08F015509F
:1008C800D9261650DA22DF50286F20EE09F015508D
:1008D800D9261650DA22DF50296F20EE0AF015507B
:1008E800D9261650DA22DF502A6F20EE0BF0155069
:1008F800D9261650DA22DF502B6F20EE0CF0155057
:10090800D9261650DA22DF502C6F20EE0DF0155044
:10091800D9261650DA22DF502D6F208796EF05F082
:1009280010B799EF04F09BEF04F015EF05F020EEF7
:1009380001F01550D9261650DA22DECF03F0DECFAB
:1009480004F0DECF05F0DECF06F015C0D9FF16C0E3
:10095800DAFFDF50076E170E086E000E096E180ECC
:100968000A6E000E0B6E190E0C6E000E0D6E1A0E2E
:100978000E6E000E0F6E44EC07F017C013FF18C080
:1009880014FF19C011FF1AC012FF20EE05F0155010
:10099800D9261650DA22DF500F01156F20EE06F027
:1009A8001550D9261650DA22DF50166F20EE07F0C0
:1009B8001550D9261650DA22DF50176F20EE08F0AE
:1009C8001550D9261650DA22DF50186F20EE09F09C
:1009D8001550D9261650DA22DF50196F20EE0AF08A
:1009E8001550D9261650DA22DF501A6F20EE0BF078
:1009F8001550D9261650DA22DF501B6F20EE0CF066
:100A08001550D9261650DA22DF501C6F20EE0DF053
:100A18001550D9261650DA22DF501D6F108792EF35
:100A280004F000B71AEF05F01CEF05F096EF05F09B
:100A380020EE01F01550D9261650DA22DECF03F049
:100A4800DECF04F0DECF05F0DECF06F015C0D9FF0B
:100A580016C0DAFFDF50076E170E086E000E096E1B
:100A6800180E0A6E000E0B6E190E0C6E000E0D6E2F
:100A78001A0E0E6E000E0F6E44EC07F017C003FF3F
:100A880018C004FF19C001FF1AC002FF20EE05F0CC
:100A98001550D9261650DA22DF500F01056F20EEC7
:100AA80006F01550D9261650DA22DF50066F20EED0
:100AB80007F01550D9261650DA22DF50076F20EEBE
:100AC80008F01550D9261650DA22DF50086F20EEAC
:100AD80009F01550D9261650DA22DF50096F20EE9A
:100AE8000AF01550D9261650DA22DF500A6F20EE88
:100AF8000BF01550D9261650DA22DF500B6F20EE76
:100B08000CF01550D9261650DA22DF500C6F20EE63
:100B18000DF01550D9261650DA22DF500D6F0087D8
:100B280092EF04F01200106E1050D8B49EEF05F04A
:100B3800A0EF05F0C2EF05F00BBEA7EF05F0A5EF9B
:100B480005F0C2EF05F008C00CF009C00DF00AC0AE
:100B58000EF00BC00FF00C1E0D1E0E1E0F1E0C2AE1
:100B6800000E0D220E220F220CC012F00DC013F041
:100B78000EC014F00FC015F0CAEF05F008C012F04F
:100B880009C013F00AC014F00BC015F00850091082
:100B98000A100B10D8A4D3EF05F0D5EF05F0DFEF5E
:100BA80005F0000E086E000E096E000E0A6E000EAB
:100BB8000B6E70EF06F0960E116EE9EF05F0112A34
:100BC800D8901532143213321232000E12140C6EF1
:100BD800000E13140D6E000E14140E6EFE0E151476
:100BE8000F6E0C500D100E100F10D8A4FEEF05F06C
:100BF80000EF06F0E3EF05F00EEF06F0112A010E04
:100C08001226000E132214221522D89015321432FF
:100C180013321232000E12140C6E000E13140D6EE5
:100C2800000E14140E6EFF0E15140F6E0C500D10DE
:100C38000E100F10D8A423EF06F025EF06F002EFF0
:100C480006F02DEF06F01106D8901236133614363A
:100C5800153614BE32EF06F034EF06F03CEF06F01E
:100C6800020E11603AEF06F03CEF06F027EF06F0AF
:100C780011B041EF06F043EF06F044EF06F0149E82
:100C8800D890113211C00CF00D6A0E6A0F6A0CC0B0
:100C98000FF00E6A0D6A0C6A0C5012120D501312E6
:100CA8000E5014120F5015121050D8B45EEF06F003
:100CB80060EF06F068EF06F00BBE67EF06F065EF31
:100CC80006F068EF06F0158E12C008F013C009F0A0
:100CD80014C00AF015C00BF01200800E6F6E6E5033
:100CE800E00B800AD8A47BEF06F07DEF06F073EFE7
:100CF80006F0400E726E200E706E000E0E017D6FB3
:100D0800FA69FB69050EF86FC30EF96FFE69FF6992
:100D1800FC69E30EFD6F010E466F000E476F000E73
:100D2800796F000E7A6F000E7B6F000E7C6F000EDD
:100D3800716F000E726F000E736F000E746F000EED
:100D4800756F000E766F000E776F000E786F020ECB
:100D5800E26F250EE36F440EE06FA90EE16F000EFF
:100D6800E66F000EE76F000EE46F000EE56F000EF1
:100D7800EA6F000EEB6F000EE86F000EE96F000ED1
:100D8800EE6F000EEF6F000EEC6F000EED6F000EB1
:100D9800F26F000EF36F000EF06F000EF16F000E91
:100DA800F66F000EF76F000EF46F000EF56F000E71
:100DB8004A6F000E4B6F000E486F000E496F000E11
:100DC8004E6F000E4F6F000E4C6F000E4D6F000EF1
:100DD800526F000E536F000E506F000E516F000ED1
:100DE800566F000E576F000E546F000E556F000EB1
:100DF8005A6F000E5B6F000E586F000E596F000E91
:100E08005E6F000E5F6F000E5C6F000E5D6F000E70
:100E1800626F000E636F000E606F000E616F000E50
:100E2800666F000E676F000E646F000E656F000E30
:100E38006A6F000E6B6F000E686F000E696F6E6947
:100E48006F696C69E30E6D6F030E436FA80E446FF4
:100E5800010E456F640E036E160E046E29EC0BF03E
:100E6800779C768C000E6F6E6ECF05F0E00E05163F
:100E7800D8A441EF07F043EF07F038EF07F012006E
:100E8800020E0718D8A44BEF07F04DEF07F0D0EF8C
:100E980007F00AC0D9FF0BC0DAFF03C0DFFF03C0A9
:100EA80010F004C011F005C012F006C013F011C014
:100EB80010F012C011F013C012F0136A10C003F042
:100EC80011C004F012C005F013C006F008C0D9FF25
:100ED80009C0DAFF03C0DFFF03C010F004C011F03F
:100EE80005C012F006C013F011C010F012C011F0C6
:100EF80013C012F0136A10C003F011C004F012C03E
:100F080005F013C006F00350030B146E03C010F075
:100F180004C011F005C012F006C013F0030ED890FB
:100F28001036113612361336E82E93EF07F010C03C
:100F380003F011C004F012C005F013C006F003500E
:100F4800E00B1424146E1450080F146E1450EB0B9D
:100F58000EC0D9FF0FC0DAFFDF6E03C010F004C067
:100F680011F005C012F006C013F011C010F012C045
:100F780011F013C012F0136A10C003F011C004F08E
:100F880012C005F013C006F00CC0D9FF0DC0DAFF7F
:100F980003C0DFFFFDEF07F008C0D9FF09C0DAFF83
:100FA800000EDF6E0AC0D9FF0BC0DAFF000EDF6E3D
:100FB80003C010F004C011F005C012F006C013F011
:100FC800050ED8901036113612361336E82EE5EF96
:100FD80007F010C003F011C004F012C005F013C0F0
:100FE80006F00EC0D9FF0FC0DAFF03C0DFFFB1EF74
:100FF80007F01200000E03140B6E000E04140C6EA2
:10100800800E05140D6E7F0E06140E6E0B500C101C
:101018000D100E10D8A413EF08F015EF08F01DEF0F
:1010280008F0000E036E000E046E000E056E000E32
:10103800066E000E07140B6E000E08140C6E800E60
:1010480009140D6E7F0E0A140E6E0B500C100D1045
:101058000E10D8A432EF08F034EF08F03CEF08F097
:10106800000E076E000E086E000E096E000E0A6E66
:1010780006AE41EF08F043EF08F04CEF08F0036CC0
:10108800041ED8B0042A051ED8B0052A800E0656BC
:101098000AAE51EF08F053EF08F05CEF08F0076C68
:1010A800081ED8B0082A091ED8B0092A800E0A5688
:1010B800000E031A000E041A000E051A800E061AF6
:1010C800000E071A000E081A000E091A800E0A1AD6
:1010D8000750035C08500458095005580A50065830
:1010E800D8B079EF08F07BEF08F07EEF08F0D890E1
:1010F8007FEF08F0D8801200040E4DEC0AF003C010
:1011080008F004C009F00A6A0B6A000E97EC05F0B3
:1011180008C03BF009C03CF00AC03DF00BC03EF0EF
:10112800000E076EC00E086E7F0E096E440E0A6E22
:101138003BC003F03CC004F03DC005F03EC006F0E3
:101148003DEC02F003C01CF004C01DF005C01EF009
:1011580006C01FF0000E206E000E216EA00E226E3B
:10116800400E236E28EC00F01CC03BF01DC03CF084
:101178001EC03DF01FC03EF03BC01CF03CC01DF03F
:101188003DC01EF03EC01FF0000E206E000E216E06
:10119800400E226E400E236E28EC00F01CC037F083
:1011A8001DC038F01EC039F01FC03AF037C003F038
:1011B80038C004F039C005F03AC006F0330E076EA7
:1011C800330E086E230E096E410E0A6EFEEC07F010
:1011D800D8A0F1EF08F0F3EF08F0F9EF08F0000EEF
:1011E800366E010E356EFDEF08F0000E366E000EFD
:1011F800356E1200060E4DEC0AF003C008F004C06C
:1012080009F00A6A0B6A000E97EC05F008C03BF07B
:1012180009C03CF00AC03DF00BC03EF0000E076E5E
:10122800C00E086E7F0E096E440E0A6E3BC003F0B6
:101238003CC004F03DC005F03EC006F03DEC02F0B5
:1012480003C01CF004C01DF005C01EF006C01FF04E
:10125800000E206E000E216EA00E226E400E236E30
:1012680028EC00F01CC03BF01DC03CF01EC03DF057
:101278001FC03EF03BC01CF03CC01DF03DC01EF03E
:101288003EC01FF0000E206E000E216E400E226E32
:10129800400E236E28EC00F01CC037F01DC038F05B
:1012A8001EC039F01FC03AF037C003F038C004F050
:1012B80039C005F03AC006F0000E076E000E086E41
:1012C800400E096E410E0A6EFEEC07F0D8A06FEFD3
:1012D80009F071EF09F077EF09F0000E366E010E94
:1012E800356E7BEF09F0000E366E000E356E12007B
:1012F80080EC08F035043610D8A485EF09F087EFA4
:1013080009F0BBEF09F08B828B841A0E406E5E0EDB
:101318003F6E6E0EE82EFED73F2EFCD7402EFAD732
:1013280000D08B808B948B8CFEEC08F03504361043
:10133800D8A4A1EF09F0A3EF09F0ABEF09F0898475
:101348008986000E446E010E436ED2EF09F08B9031
:101358008B92000E1C6E010E1B6EDDEC0AF0000E67
:101368001C6E010E1B6E9BEC0AF0D2EF09F07F0E8B
:10137800406ED40E3F6E320EE82EFED73F2EFCD7BD
:10138800402EFAD7000E1C6E010E1B6E85EC0AF07B
:10139800000E1C6E010E1B6E9BEC0AF0120001EC95
:1013A8000BF0000E446E000E436E010E0001A66F96
:1013B800390EA76F000EA86F000EA96F000EAA6F56
:1013C800010EAB6FFEEC08F035500001AC6FA60EB5
:1013D800156E000E166E0AEC04F043504410D8A4A3
:1013E800F8EF09F0FAEF09F0FEEF09F07CEC09F0EC
:1013F800D9EF09F080EC08F035503610D8A407EF83
:101408000AF009EF0AF011EF0AF0000E1C6E010E47
:101418001B6EC7EC0AF0D5EF09F0FEEC08F035506A
:101428003610D8A41AEF0AF01CEF0AF020EF0AF0E1
:1014380017EC0BF0D9EF09F0D9EF09F026EF00F01F
:101448005C0EF66E160EF76E000EF86E00EE57F094
:1014580010EE04F00900F5CFEEFFE550E150FAE197
:1014680001EE00F01C0EEE6AE806FDE100EE60F009
:101478009A0EEE6AE806FDE100EE41F0160EEE6AFD
:10148800E806FDE15B905B92000EF86E0001D3EF79
:1014980009F0076E07C005F005460546C250051855
:1014A800830B0518C26EC280C282C2B25EEF0AF018
:1014B80060EF0AF059EF0AF0C450066E056AC3508F
:1014C8000524036E000E0620046E1200000E8D6EB9
:1014D800000E8C6E000E896E000E8A6E000E8B6EEA
:1014E800070E966EE00E926EFB0E936E800E946E53
:1014F80095680F015D697F0E5C6F000E5B6FF18E62
:101508001200010E0001D06F050ED16F000ED26FD0
:10151800000ED36F000ED46F010ED56F1BC0D6F02E
:10152800D00E156E000E166E0AEC04F01200010EB5
:101538000001B46F170EB56F000EB66F000EB76FCF
:10154800000EB86F010EB96F1BC0BAF0B40E156E5D
:10155800000E166E0AEC04F01200010E0001EC6F8A
:10156800040EED6F000EEE6F000EEF6F000EF06FC1
:10157800010EF16F1BC0F2F0EC0E156E000E166E28
:101588000AEC04F01200010E0001C26F180EC36FBE
:10159800000EC46F000EC56F000EC66F010EC76F38
:1015A8001BC0C8F0C20E156E000E166E0AEC04F0D1
:1015B8001200010E496E030E4A6E000E4B6E000EAD
:1015C8004C6E000E4D6E010E4E6E1BC04FF0490E54
:1015D800156E000E166E0AEC04F0120002D8FFEF2A
:1015E8000AF00500FA6E4750FD6E4850FE6EF8503E
:1015F800FF6EFA501200779C120030EC0BF06AEC88
:101608000AF020EC0BF00CEC0BF071EC06F0120079
:10161800010EC26E000EC16E880EC06E000EC46E42
:10162800000EC36E1200000E1C6E010E1B6EB1EC94
:101638000AF0899689941200600ED36E000ED26E5D
:10164800000E9B6E000E9A6E120003C047F004C095
:0E16580048F0120033332341D09E12001200DE
:020000040020DA
:08000000FFFFFFFFFFFFFFFF00
:020000040030CA
:0E00000015027F7CFF8991FF0FC00FE00F40BB
:00000001FF
