:0400000026EF00F0F7
:100008005B82FACF33F0FBCF34F0F2AC0EEF00F0A6
:1000180010EF00F020EF00F076AC15EF00F017EFCE
:1000280000F020EF00F077AC1CEF00F01EEF00F0BE
:1000380020EF00F0BFEC07F034C0FBFF33C0FAFF3D
:100048005B921100E3EF06F0000E4A6E60AE2FEFF0
:1000580000F031EF00F0BDEF00F062A636EF00F0DF
:1000680038EF00F057EF00F048C0D9FF49C0DAFF79
:10007800020EDF6E64CF35F061CF36F062CF37F015
:100088006350FCEC03F020EE01F04850D9264950AB
:10009800DA2235C0DEFF36C0DEFF37C0DEFF38C0EB
:1000A800DEFF70EF00F048C0D9FF49C0DAFF010E4B
:1000B800DF6E62CF35F061500AEC06F020EE01F0F9
:1000C8004850D9264950DA2235C0DEFF36C0DEFF57
:1000D80037C0DEFF38C0DEFF20EE05F04850D926D5
:1000E8004950DA2265CFDFFF20EE06F04850D926C6
:1000F8004950DA2266CFDFFF20EE07F04850D926B4
:100108004950DA2267CFDFFF20EE08F04850D926A1
:100118004950DA2268CFDFFF20EE09F04850D9268F
:100128004950DA2269CFDFFF20EE0AF04850D9267D
:100138004950DA226ACFDFFF20EE0BF04850D9266B
:100148004950DA226BCFDFFF20EE0CF04850D92659
:100158004950DA226CCFDFFF20EE0DF04850D92647
:100168004950DA226DCFDFFF609E010E4A6E50EFD4
:1001780001F00F0130AFC3EF00F0C5EF00F050EF12
:1001880001F032A7CAEF00F0CCEF00F0EBEF00F07F
:1001980048C0D9FF49C0DAFF020EDF6E34CF35F010
:1001A80031CF36F032CF37F03351FCEC03F020EE8C
:1001B80001F04850D9264950DA2235C0DEFF36C052
:1001C800DEFF37C0DEFF38C0DEFF04EF01F048C0B5
:1001D800D9FF49C0DAFF010EDF6E32CF35F0315159
:1001E8000AEC06F020EE01F04850D9264950DA22F0
:1001F80035C0DEFF36C0DEFF37C0DEFF38C0DEFFA9
:1002080020EE05F04850D9264950DA2235CFDFFFD5
:1002180020EE06F04850D9264950DA2236CFDFFFC3
:1002280020EE07F04850D9264950DA2237CFDFFFB1
:1002380020EE08F04850D9264950DA2238CFDFFF9F
:1002480020EE09F04850D9264950DA2239CFDFFF8D
:1002580020EE0AF04850D9264950DA223ACFDFFF7B
:1002680020EE0BF04850D9264950DA223BCFDFFF69
:1002780020EE0CF04850D9264950DA223CCFDFFF57
:1002880020EE0DF04850D9264950DA223DCFDFFF45
:100298000F01309FB9EF00F04A50120080BA57EFB3
:1002A80001F05BEF01F0546A542A5CEF01F0546AE4
:1002B80054504F6E506A7DEC06F04F045010D8A48D
:1002C80068EF01F06AEF01F04EEF02F089808D824D
:1002D80084B271EF01F075EF01F0546A542A76EF99
:1002E80001F0546A54504F6E506A7DEC06F04F048A
:1002F8005010D8A482EF01F084EF01F046EF02F02D
:10030800898489868B828B88210E546E760EE82E1E
:10031800FED7542EFCD700D08B848B8A210E546EC6
:10032800760EE82EFED7542EFCD700D0000E366E7F
:10033800020E356E51EC07F0250E486E000E496E20
:1003480028EC00F00009D8B4ACEF01F0AEEF01F0F2
:10035800C2EF01F0250E26180DE1020E27180AE15A
:10036800950E281807E1080E2918D8A4BEEF01F049
:10037800C0EF01F0C2EF01F0D2EF01F01D4A1E2AD2
:100388001EBED0EF01F0E90E1D5C030E1E58D8A06A
:10039800D0EF01F0D2EF01F0A0EF01F01EBEDEEFCA
:1003A80001F0E90E1D5C030E1E58D8A0DEEF01F027
:1003B800E0EF01F0E8EF01F0000E366E010E356E49
:1003C800A1EC07F04EEF02F02504D8A4EEEF01F0FF
:1003D800F0EF01F042EF02F0250E26180DE1020EB3
:1003E80027180AE1950E281807E1080E2918D8A43D
:1003F80000EF02F002EF02F042EF02F02A04D8A464
:1004080008EF02F00AEF02F042EF02F02B50D8B4E6
:1004180010EF02F012EF02F04EEF02F08B808B86A5
:100428000D0E556EAF0E546EB60EE82EFED7542E36
:10043800FCD7552EFAD700D08B948B9A410E546E68
:10044800EE0EE82EFED7542EFCD700D0898280A26B
:1004580030EF02F032EF02F038EF02F0000E206EBB
:10046800010E1F6E4EEF02F099EC04F0000E366E8E
:10047800010E356EB0EC07F04EEF02F099EC04F087
:10048800E0EF01F099EC04F0000E366E010E356EC7
:1004980041EC07F012003D6E3D50D8B456EF02F023
:1004A80058EF02F07AEF02F038BE5FEF02F05DEF2E
:1004B80002F07AEF02F035C039F036C03AF037C0B2
:1004C8003BF038C03CF0391E3A1E3B1E3C1E392A10
:1004D800000E3A223B223C2239C03FF03AC040F09D
:1004E8003BC041F03CC042F082EF02F035C03FF023
:1004F80036C040F037C041F038C042F035503610B1
:1005080037103810D8A48BEF02F08DEF02F097EF78
:1005180002F0000E356E000E366E000E376E000EBD
:10052800386E28EF03F0960E3E6EA1EF02F03E2AD9
:10053800D8904232413240323F32000E3F14396E79
:10054800000E40143A6E000E41143B6EFE0E42142B
:100558003C6E39503A103B103C10D8A4B6EF02F06C
:10056800B8EF02F09BEF02F0C6EF02F03E2A010E50
:100578003F26000E402241224222D8904232413288
:1005880040323F32000E3F14396E000E40143A6E6E
:10059800000E41143B6EFF0E42143C6E39503A1067
:1005A8003B103C10D8A4DBEF02F0DDEF02F0BAEF0D
:1005B80002F0E5EF02F03E06D8903F36403641366D
:1005C800423641BEEAEF02F0ECEF02F0F4EF02F03F
:1005D800020E3E60F2EF02F0F4EF02F0DFEF02F0FD
:1005E8003EB0F9EF02F0FBEF02F0FCEF02F0419EA3
:1005F800D8903E323EC039F03A6A3B6A3C6A39C00C
:100608003CF03B6A3A6A396A39503F123A50401214
:100618003B5041123C5042123D50D8B416EF03F003
:1006280018EF03F020EF03F038BE1FEF03F01DEFC3
:1006380003F020EF03F0428E3FC035F040C036F0A3
:1006480041C037F042C038F01200800E6F6E6E5015
:10065800E00B800AD8A433EF03F035EF03F02BEF5B
:1006680003F0400E726E200E706E000E0E017D6F4C
:10067800FA69FB69050EF86FC30EF96FFE69FF6929
:10068800FC69E30EFD6F010E466F000E476F000E0A
:10069800796F000E7A6F000E7B6F000E7C6F000E74
:1006A800716F000E726F000E736F000E746F000E84
:1006B800756F000E766F000E776F000E786F020E62
:1006C800E26F250EE36F440EE06FA90EE16F000E96
:1006D800E66F000EE76F000EE46F000EE56F000E88
:1006E800EA6F000EEB6F000EE86F000EE96F000E68
:1006F800EE6F000EEF6F000EEC6F000EED6F000E48
:10070800F26F000EF36F000EF06F000EF16F000E27
:10071800F66F000EF76F000EF46F000EF56F000E07
:100728004A6F000E4B6F000E486F000E496F000EA7
:100738004E6F000E4F6F000E4C6F000E4D6F000E87
:10074800526F000E536F000E506F000E516F000E67
:10075800566F000E576F000E546F000E556F000E47
:100768005A6F000E5B6F000E586F000E596F000E27
:100778005E6F000E5F6F000E5C6F000E5D6F000E07
:10078800626F000E636F000E606F000E616F000EE7
:10079800666F000E676F000E646F000E656F000EC7
:1007A8006A6F000E6B6F000E686F000E696F6E69DE
:1007B8006F696C69E30E6D6F130E436FA80E446F7B
:1007C800010E456FFE0E356E0F0E366EF6EC07F015
:1007D800779C768C000E6F6E6ECF37F0E00E371672
:1007E800D8A4F9EF03F0FBEF03F0F0EF03F01200E9
:1007F8003D6E000E446E000E456E000E466E000EF5
:10080800476E3750030B426E3738E842070B436E8A
:100818003650396E3A6AD89039363A36D8903936E1
:100828003A36D89039363A3639C044F03AC045F0AD
:10083800000E45BEFF0E466E476E43504424446E7C
:10084800000E4520456E000E4620466E000E4720DD
:10085800476E44C039F045C03AF046C03BF047C047
:100868003CF0020ED89039363A363B363C36E82E04
:1008780036EF04F039C044F03AC045F03BC046F0CA
:100888003CC047F042504424446E000E4520456E5B
:10089800000E4620466E000E4720476E44C03AF0D0
:1008A80045C03BF046C03CF0396A39C044F03AC014
:1008B80045F03BC046F03CC047F03D504424446EF0
:1008C800000E4520456E000E4620466E000E47205D
:1008D800476E44C03AF045C03BF046C03CF0396A28
:1008E80039C044F03AC045F03BC046F03CC047F040
:1008F80035504424446E000E4520456E000E4620B7
:10090800466E000E4720476E44C03EF045C03FF09B
:1009180046C040F047C041F03EC035F03FC036F019
:1009280040C037F041C038F0120080A29EEF04F0BA
:10093800A0EF04F0A1EF04F0899282AAA6EF04F0D8
:10094800A8EF04F0A9EF04F08B9A82A4AEEF04F0AC
:10095800B0EF04F0B1EF04F08B9482A6B6EF04F088
:10096800B8EF04F0B9EF04F08B9682A0BEEF04F064
:10097800C0EF04F0C1EF04F08B9082A8C6EF04F03A
:10098800C8EF04F0C9EF04F08B9882A2CEEF04F010
:10099800D0EF04F0D1EF04F08B9280A6D6EF04F0EC
:1009A800D8EF04F0D9EF04F0899680A4DEEF04F0C4
:1009B800E0EF04F0E1EF04F0899484B2E6EF04F08C
:1009C800EAEF04F0536A532AEBEF04F0536A5350EA
:1009D8004F6E506A7DEC06F04F045010D8A4F7EF24
:1009E80004F0F9EF04F0FAEF04F08D9280A0FFEF25
:1009F80004F001EF05F002EF05F0899080BA07EFE7
:100A080005F00BEF05F0536A532A0CEF05F0536A13
:100A180053504F6E506A7DEC06F04F045010D8A426
:100A280018EF05F01AEF05F01BEF05F0899A120090
:100A3800000E43144B6E000E44144C6E800E451489
:100A48004D6E7F0E46144E6E4B504C104D104E108E
:100A5800D8A431EF05F033EF05F03BEF05F0000EB9
:100A6800436E000E446E000E456E000E466E000E7C
:100A780047144B6E000E48144C6E800E49144D6E90
:100A88007F0E4A144E6E4B504C104D104E10D8A489
:100A980050EF05F052EF05F05AEF05F0000E476EE3
:100AA800000E486E000E496E000E4A6E46AE5FEFAD
:100AB80005F061EF05F06AEF05F0436C441ED8B00D
:100AC800442A451ED8B0452A800E46564AAE6FEFD6
:100AD80005F071EF05F07AEF05F0476C481ED8B0C5
:100AE800482A491ED8B0492A800E4A56000E431A91
:100AF800000E441A000E451A800E461A000E471AB8
:100B0800000E481A000E491A800E4A1A4750435CD4
:100B180048504458495045584A504658D8B097EF1D
:100B280005F099EF05F09CEF05F0D8909DEF05F0E2
:100B3800D8801200CEEC07F01F502010D8A4A7EFE1
:100B480005F0A9EF05F0C3EF05F080BAAEEF05F0A8
:100B5800B2EF05F0566A562AB3EF05F0566A5650BA
:100B68004F6E506A7DEC06F04F045010D8A4BFEFCA
:100B780005F0C1EF05F0C3EF05F052EC01F01F04DA
:100B88002010D8A4CAEF05F0CCEF05F002EF06F06C
:100B980080BAD1EF05F0D5EF05F0566A562AD6EFA0
:100BA80005F0566A56504F6E506A7DEC06F04F506D
:100BB8005010D8A4E2EF05F0E4EF05F0E8EF05F0F7
:100BC80006EC07F002EF06F084B2EDEF05F0F1EF66
:100BD80005F0566A562AF2EF05F0566A56504F6EDF
:100BE800506A7DEC06F04F505010D8A4FEEF05F087
:100BF80000EF06F002EF06F0E4EC07F046EC06F032
:100C0800B1EC06F0A0EF05F026EF00F03B6E3B508C
:100C1800396E3A6AD89039363A36D89039363A36F3
:100C2800D89039363A3639C040F03AC041F0000E13
:100C380041BEFF0E426E436E35C039F0050E3A6E66
:100C4800D89039323A2E24EF06F039504024406EBD
:100C5800000E4120416E000E4220426E000E4320DD
:100C6800436E40C03CF041C03DF042C03EF043C03E
:100C78003FF03CC035F03DC036F03EC037F03FC0D5
:100C880038F0120080BA4BEF06F04FEF06F0536AC7
:100C9800532A50EF06F0536A53504F6E506A7DEC5A
:100CA80006F04F505010D8A45CEF06F05EEF06F047
:100CB8007CEF06F084B263EF06F067EF06F0536A44
:100CC800532A68EF06F0536A53504F6E506A7DEC12
:100CD80006F04F045010D8A474EF06F076EF06F033
:100CE8007CEF06F0000E366E010E356E81EC07F0D3
:100CF80012004FC035F050C036F0000E36BEFF0E61
:100D0800376E386E010E4FEC02F035C043F036C036
:100D180044F037C045F038C046F0330E476E330E06
:100D2800486E230E496E410E4A6E1CEC05F0D8A0A1
:100D3800A0EF06F0A2EF06F0A8EF06F0000E526E44
:100D4800010E516EACEF06F0000E526E000E516EA1
:100D580051C04FF052C050F0120080BAB6EF06F002
:100D6800BAEF06F04F6A4F2ABBEF06F04F6A4F50B2
:100D7800356E366A376A386A010E4FEC02F035C0B4
:100D880043F036C044F037C045F038C046F0330E63
:100D9800476E330E486E230E496E410E4A6E1CECA8
:100DA80005F0D8B0DAEF06F0DCEF06F0E2EF06F077
:100DB800000E366E010E356E91EC07F01200F60E3D
:100DC800F66E0F0EF76E000EF86E00EE57F010EE8E
:100DD80004F00900F5CFEEFFE550E150FAE100EE2E
:100DE80060F0540EEE6AE806FDE100EE01F0320E06
:100DF800EE6AE806FDE15B905B92000EF86E00017A
:100E08009EEF05F080BA0BEF07F00FEF07F0536A7B
:100E1800532A10EF07F0536A53504F6E506A7DEC17
:100E280006F04F505010D8A41CEF07F01EEF07F043
:100E380024EF07F0000E366E010E356E61EC07F0F8
:100E48001200000E8D6E000E8C6E000E896E000E64
:100E58008A6E000E8B6E070E966EE20E926EFB0E79
:100E6800936E800E946E9568AD0E0F015D6F7F0EC8
:100E78005C6F000E5B6FF18E1200010E0001A66F11
:100E8800090EA76F000EA86F000EA96F000EAA6FBB
:100E9800010EAB6F35C0ACF01200010E0001606F9F
:100EA800400E616F950E626FF80E636F080E646FE7
:100EB800010E656F35C066F01200010E00016E6FFD
:100EC800180E6F6F000E706F000E716F000E726F4C
:100ED800010E736F35C074F01200010E0001986F97
:100EE800090E996F000E9A6F000E9B6F000E9C6F93
:100EF800010E9D6F35C09EF01200010E00018A6F31
:100F0800090E8B6F000E8C6F000E8D6F000E8E6FAA
:100F1800010E8F6F35C090F01200010E00017C6F3A
:100F2800090E7D6F000E7E6F000E7F6F000E806FC2
:100F3800010E816F35C082F01200010E016E090E9C
:100F4800026E000E036E000E046E000E056E010E9A
:100F5800066E35C007F01200010E0F6E090E106EF6
:100F6800000E116E000E126E000E136E010E146E3E
:100F780035C015F0120002D8CCEF07F00500FA6E64
:100F88002350FD6E2450FE6EF850FF6EFA5012008A
:100F9800779C1200FDEC07F025EC07F0EDEC07F06C
:100FA800D9EC07F029EC03F01200010EC26E000E16
:100FB800C16E000EC06E000EC46E000EC36E12002D
:100FC80089968994000E366E010E356E71EC07F025
:100FD8001200600ED36E000ED26E000E9B6E000ED5
:100FE8009A6E120035C023F036C024F01200333355
:080FF8002341D09E12001200FB
:020000040020DA
:08000000FFFFFFFFFFFFFFFF00
:020000040030CA
:0E00000015027F7CFF8991FF0FC00FE00F40BB
:00000001FF
