:0400000026EF00F0F7
:100008002982FACF01F0FBCF02F0F2AC0EEF00F03C
:1000180010EF00F020EF00F076AC15EF00F017EFCE
:1000280000F020EF00F077AC1CEF00F01EEF00F0BE
:1000380020EF00F03FEC04F002C0FBFF01C0FAFF24
:10004800299211004EEF04F0000E186E60AE2FEFEB
:1000580000F031EF00F0BDEF00F062A636EF00F0DF
:1000680038EF00F057EF00F016C0D9FF17C0DAFFDD
:10007800020EDF6E64CF03F061CF04F062CF05F0AB
:10008800635024EC02F020EE01F01650D9261750E8
:10009800DA2203C0DEFF04C0DEFF05C0DEFF06C0B3
:1000A800DEFF70EF00F016C0D9FF17C0DAFF010EAF
:1000B800DF6E62CF03F0615042EC03F020EE01F0F6
:1000C8001650D9261750DA2203C0DEFF04C0DEFF1F
:1000D80005C0DEFF06C0DEFF20EE05F01650D9266B
:1000E8001750DA2265CFDFFF20EE06F01650D9262A
:1000F8001750DA2266CFDFFF20EE07F01650D92618
:100108001750DA2267CFDFFF20EE08F01650D92605
:100118001750DA2268CFDFFF20EE09F01650D926F3
:100128001750DA2269CFDFFF20EE0AF01650D926E1
:100138001750DA226ACFDFFF20EE0BF01650D926CF
:100148001750DA226BCFDFFF20EE0CF01650D926BD
:100158001750DA226CCFDFFF20EE0DF01650D926AB
:100168001750DA226DCFDFFF609E010E186E50EF38
:1001780001F00F0130AFC3EF00F0C5EF00F050EF12
:1001880001F032A7CAEF00F0CCEF00F0EBEF00F07F
:1001980016C0D9FF17C0DAFF020EDF6E34CF03F0A6
:1001A80031CF04F032CF05F0335124EC02F020EEC9
:1001B80001F01650D9261750DA2203C0DEFF04C01A
:1001C800DEFF05C0DEFF06C0DEFF04EF01F016C04B
:1001D800D9FF17C0DAFF010EDF6E32CF03F03151BD
:1001E80042EC03F020EE01F01650D9261750DA221F
:1001F80003C0DEFF04C0DEFF05C0DEFF06C0DEFF71
:1002080020EE05F01650D9261750DA2235CFDFFF39
:1002180020EE06F01650D9261750DA2236CFDFFF27
:1002280020EE07F01650D9261750DA2237CFDFFF15
:1002380020EE08F01650D9261750DA2238CFDFFF03
:1002480020EE09F01650D9261750DA2239CFDFFFF1
:1002580020EE0AF01650D9261750DA223ACFDFFFDF
:1002680020EE0BF01650D9261750DA223BCFDFFFCD
:1002780020EE0CF01650D9261750DA223CCFDFFFBB
:1002880020EE0DF01650D9261750DA223DCFDFFFA9
:100298000F01309FB9EF00F018501200800E6F6EFA
:1002A8006E50E00B800AD8A45CEF01F05EEF01F01D
:1002B80054EF01F0400E726E200E706E000E0E01AB
:1002C8007D6FFA69FB69F869030EF96FFE69FF69CA
:1002D800FC69E30EFD6F010E466F000E476F000EBE
:1002E800796F000E7A6F000E7B6F000E7C6F000E28
:1002F800716F000E726F000E736F000E746F000E38
:10030800756F000E766F000E776F000E786F000E17
:10031800E26F000EE36F0C0EE06F200EE16F000E2F
:10032800E66F000EE76F000EE46F000EE56F000E3B
:10033800EA6F000EEB6F000EE86F000EE96F000E1B
:10034800EE6F000EEF6F000EEC6F000EED6F000EFB
:10035800F26F000EF36F000EF06F000EF16F000EDB
:10036800F66F000EF76F000EF46F000EF56F000EBB
:100378004A6F000E4B6F000E486F000E496F000E5B
:100388004E6F000E4F6F000E4C6F000E4D6F000E3B
:10039800526F000E536F000E506F000E516F000E1B
:1003A800566F000E576F000E546F000E556F000EFB
:1003B8005A6F000E5B6F000E586F000E596F000EDB
:1003C8005E6F000E5F6F000E5C6F000E5D6F000EBB
:1003D800626F000E636F000E606F000E616F000E9B
:1003E800666F000E676F000E646F000E656F000E7B
:1003F8006A6F000E6B6F000E686F000E696F6E6992
:100408006F696C69E30E6D6F130E436FA80E446F2E
:10041800010E456FF40E036E080E046E73EC04F0C3
:10042800779C768C000E6F6E6ECF05F0E00E051689
:10043800D8A421EF02F023EF02F018EF02F0120027
:100448000B6E000E126E000E136E000E146E000E70
:10045800156E0550030B106E0538E842070B116E38
:100468000450076E086AD89007360836D8900736C1
:100478000836D8900736083607C012F008C013F0BF
:10048800000E13BEFF0E146E156E11501224126E5C
:10049800000E1320136E000E1420146E000E15208B
:1004A800156E12C007F013C008F014C009F015C08B
:1004B8000AF0020ED8900736083609360A36E82EB2
:1004C8005EEF02F007C012F008C013F009C014F084
:1004D8000AC015F010501224126E000E1320136E6D
:1004E800000E1420146E000E1520156E12C008F0B0
:1004F80013C009F014C00AF0076A07C012F008C058
:1005080013F009C014F00AC015F00B501224126E33
:10051800000E1320136E000E1420146E000E15200A
:10052800156E12C008F013C009F014C00AF0076A6B
:1005380007C012F008C013F009C014F00AC015F083
:1005480003501224126E000E1320136E000E142096
:10055800146E000E1520156E12C00CF013C00DF0AD
:1005680014C00EF015C00FF00CC003F00DC004F05D
:100578000EC005F00FC006F012005BEC04F01B0E75
:10058800166E000E176E28EC00F00009D8B4CFEFF5
:1005980002F0D1EF02F0C3EF02F01B04D8A4D7EFAA
:1005A80002F0D9EF02F03EEF03F0610E1C181D10A7
:1005B8001E101F10D8A4E3EF02F0E5EF02F0EAEFF7
:1005C80002F021C003F0046AA1EC03F0620E1C18CB
:1005D8001D101E101F10D8A4F4EF02F0F6EF02F061
:1005E800FBEF02F021C003F0046A7EEC03F0630E17
:1005F8001C181D101E101F10D8A405EF03F007EFDC
:1006080003F00CEF03F021C003F0046A25EC04F0BA
:10061800640E1C181D101E101F10D8A416EF03F02E
:1006280018EF03F01DEF03F021C003F0046AC4ECD7
:1006380003F0650E1C181D101E101F10D8A427EFFC
:1006480003F029EF03F02EEF03F021C003F0046A52
:10065800E7EC03F0670E1C181D101E101F10D8A41D
:1006680038EF03F03AEF03F03EEF03F06DEC04F0DF
:10067800C3EF02F0C3EF02F026EF00F0096E095055
:10068800076E086AD89007360836D89007360836B5
:10069800D8900736083607C00EF008C00FF0000ED5
:1006A8000FBEFF0E106E116E03C007F0050E086E28
:1006B800D8900732082E5CEF03F007500E240E6E18
:1006C800000E0F200F6E000E1020106E000E11206D
:1006D800116E0EC00AF00FC00BF010C00CF011C064
:1006E8000DF00AC003F00BC004F00CC005F00DC0FB
:1006F80006F0120003040410D8A485EF03F087EF76
:1007080003F08AEF03F0898694EF03F00350041096
:10071800D8A491EF03F093EF03F094EF03F08996D8
:100728001A0E066E5E0E056E6E0EE82EFED7052EAC
:10073800FCD7062EFAD700D0120003040410D8A460
:10074800A8EF03F0AAEF03F0ADEF03F08984B7EF49
:1007580003F003500410D8A4B4EF03F0B6EF03F08D
:10076800B7EF03F089941A0E066E5E0E056E6E0ED4
:10077800E82EFED7052EFCD7062EFAD700D0120099
:1007880003040410D8A4CBEF03F0CDEF03F0D0EFAF
:1007980003F08D82DAEF03F003500410D8A4D7EFEA
:1007A80003F0D9EF03F0DAEF03F08D921A0E066E1C
:1007B8005E0E056E6E0EE82EFED7052EFCD7062EB1
:1007C800FAD700D0120003040410D8A4EEEF03F007
:1007D800F0EF03F0F3EF03F08D84FDEF03F0035027
:1007E8000410D8A4FAEF03F0FCEF03F0FDEF03F0D8
:1007F8008D941A0E066E5E0E056E6E0EE82EFED7EE
:10080800052EFCD7062EFAD700D01200000E8D6EEA
:10081800000E8C6E000E896E000E8A6E000E8B6EB6
:10082800000E966EE30E926EFB0E936E9468FE0EAB
:10083800956E0F015D697F0E5C6F000E5B6FF18E28
:10084800120003040410D8A42CEF04F02EEF04F0D7
:1008580031EF04F08D8032EF04F08D901A0E066EA1
:100868005E0E056E6E0EE82EFED7052EFCD7062E00
:10087800FAD700D0120002D84CEF04F00500FA6E47
:100888001950FD6E1A50FE6EF850FF6EFA501200A5
:10089800779C120000EE19F0100EEE6AE806FDE1F2
:1008A80029902992000EF86E0001C1EF02F078EC51
:1008B80004F00AEC04F064EC04F052EC01F01200CD
:1008C800600ED36E000ED26E000E9B6E000E9A6EF6
:1008D80012008D948D928D9089968994120003C090
:0E08E80019F004C01AF01200D09E1200120087
:020000040020DA
:08000000FFFFFFFFFFFFFFFF00
:020000040030CA
:0E00000015027F7CFF8991FF0FC00FE00F40BB
:00000001FF
