:0400000026EF00F0F7
:100008003682FACF1FF0FBCF20F0F2AC0EEF00F0F3
:1000180010EF00F020EF00F076AC15EF00F017EFCE
:1000280000F020EF00F077AC1CEF00F01EEF00F0BE
:1000380020EF00F0A8EC0BF020C0FBFF1FC0FAFF78
:0800480036921100B7EF0BF036
:100F00000000000E356E60AE88EF07F08AEF07F044
:100F100009EF08F062A68FEF07F091EF07F0AEEF50
:100F200007F03450D96EDA6A020EDF6E64CF21F01A
:100F300061CF22F062CF23F063500EEC0AF0345000
:100F4000D96EDA6A010ED92621C0DEFF22C0DEFF8B
:100F500023C0DEFF24C0DEFFC5EF07F03450D96E9A
:100F6000DA6A010EDF6E62CF21F06150ABEC0AF05D
:100F70003450D96EDA6A010ED92621C0DEFF22C0B4
:100F8000DEFF23C0DEFF24C0DEFF3450D96EDA6AF4
:100F9000050ED92665CFDFFF3450D96EDA6A060E0A
:100FA000D92666CFDFFF3450D96EDA6A070ED9260C
:100FB00067CFDFFF3450D96EDA6A080ED92668CFC2
:100FC000DFFF3450D96EDA6A090ED92669CFDFFF08
:100FD0003450D96EDA6A0A0ED9266ACFDFFF345050
:100FE000D96EDA6A0B0ED9266BCFDFFF3450D96E7B
:100FF000DA6A0C0ED9266CCFDFFF3450D96EDA6A6C
:101000000D0ED9266DCFDFFF609E010E356E8FEF7E
:1010100008F00F0130AF0FEF08F011EF08F08FEF7D
:1010200008F032A716EF08F018EF08F035EF08F0D7
:101030003450D96EDA6A020EDF6E34CF21F031CF30
:1010400022F032CF23F033510EEC0AF03450D96E37
:10105000DA6A010ED92621C0DEFF22C0DEFF23C0DE
:10106000DEFF24C0DEFF4CEF08F03450D96EDA6AA0
:10107000010EDF6E32CF21F03151ABEC0AF034506B
:10108000D96EDA6A010ED92621C0DEFF22C0DEFF4A
:1010900023C0DEFF24C0DEFF3450D96EDA6A050EAD
:1010A000D92635CFDFFF3450D96EDA6A060ED9263D
:1010B00036CFDFFF3450D96EDA6A070ED92637CF24
:1010C000DFFF3450D96EDA6A080ED92638CFDFFF39
:1010D0003450D96EDA6A090ED92639CFDFFF345081
:1010E000D96EDA6A0A0ED9263ACFDFFF3450D96EAC
:1010F000DA6A0B0ED9263BCFDFFF3450D96EDA6A9D
:101100000C0ED9263CCFDFFF3450D96EDA6A0D0EB3
:10111000D9263DCFDFFF0F01309F05EF08F0355096
:101120001200800E6F6E6E50E00B800AD8A49BEF09
:1011300008F09DEF08F093EF08F0400E726E200E5D
:10114000706E000E0E017D6FFA69FB69010EF86F7B
:10115000030EF96FFE69FF69FC69E30EFD6F010E76
:10116000466F000E476F000E796F000E7A6F000E0B
:101170007B6F000E7C6F000E716F000E726F000EA1
:10118000736F000E746F000E756F000E766F000E99
:10119000776F000E786F080EE26FF40EE36F000EAB
:1011A000E06F080EE16F000EE66F000EE76F000EB5
:1011B000E46F000EE56F000EEA6F000EEB6F000E9D
:1011C000E86F000EE96F000EEE6F000EEF6F000E7D
:1011D000EC6F000EED6F000EF26F000EF36F000E5D
:1011E000F06F000EF16F000EF66F000EF76F000E3D
:1011F000F46F000EF56F000E4A6F000E4B6F000E7D
:10120000486F000E496F000E4E6F000E4F6F000EBC
:101210004C6F000E4D6F000E526F000E536F000E9C
:10122000506F000E516F000E566F000E576F000E7C
:10123000546F000E556F000E5A6F000E5B6F000E5C
:10124000586F000E596F000E5E6F000E5F6F000E3C
:101250005C6F000E5D6F000E626F000E636F000E1C
:10126000606F000E616F000E666F000E676F000EFC
:10127000646F000E656F000E6A6F000E6B6F000EDC
:10128000686F000E696F6E696F696C69E30E6D6F50
:10129000030E436FA80E446F010E456FC60E216EFC
:1012A000170E226EDCEC0BF0779C768C000E6F6EC6
:1012B0006ECF23F0E00E2316D8A461EF09F063EFA0
:1012C00009F058EF09F01200C4EC0BF0110E346E67
:1012D00081EC07F00009D8B470EF09F072EF09F063
:1012E00066EF09F0220E1218131014101510D8A46E
:1012F0007CEF09F07EEF09F080EF09F082EF09F052
:1013000066EF09F0110E346E81EC07F00009D8B4D5
:101310008CEF09F08EEF09F082EF09F01104D8A4E8
:1013200094EF09F096EF09F082EF09F0610E1218C0
:10133000131014101510D8A4A0EF09F0A2EF09F0B3
:10134000A7EF09F017C021F0226A0AEC0BF0620E39
:101350001218131014101510D8A4B1EF09F0B3EF40
:1013600009F0B8EF09F017C021F0226AE7EC0AF0A3
:10137000630E1218131014101510D8A4C2EF09F040
:10138000C4EF09F0C9EF09F017C021F0226A8EEC12
:101390000BF0640E1218131014101510D8A4D3EF0C
:1013A00009F0D5EF09F0DAEF09F017C021F0226A51
:1013B0002DEC0BF0650E1218131014101510D8A494
:1013C000E4EF09F0E6EF09F0EBEF09F017C021F0C8
:1013D000226A50EC0BF0670E12181310141015103F
:1013E000D8A4F5EF09F0F7EF09F0F9EF09F0D6EC22
:1013F0000BF0120E1218131014101510D8A403EFCE
:101400000AF005EF0AF082EF09F017C021F0226A16
:101410000AEC0BF082EF09F026EF00F0296E000EC7
:10142000306E000E316E000E326E000E336E2350A1
:10143000030B2E6E2338E842070B2F6E2250256EC9
:10144000266AD89025362636D89025362636D89066
:101450002536263625C030F026C031F0000E31BECC
:10146000FF0E326E336E2F503024306E000E31205E
:10147000316E000E3220326E000E3320336E30C0DB
:1014800025F031C026F032C027F033C028F0020E1C
:10149000D8902536263627362836E82E48EF0AF02B
:1014A00025C030F026C031F027C032F028C033F01C
:1014B0002E503024306E000E3120316E000E32205E
:1014C000326E000E3320336E30C026F031C027F06C
:1014D00032C028F0256A25C030F026C031F027C080
:1014E00032F028C033F029503024306E000E312005
:1014F000316E000E3220326E000E3320336E30C05B
:1015000026F031C027F032C028F0256A25C030F01F
:1015100026C031F027C032F028C033F021503024EB
:10152000306E000E3120316E000E3220326E000E11
:101530003320336E30C02AF031C02BF032C02CF093
:1015400033C02DF02AC021F02BC022F02CC023F094
:101550002DC024F01200276E2750256E266AD890E1
:1015600025362636D89025362636D8902536263686
:1015700025C02CF026C02DF0000E2DBEFF0E2E6EC5
:101580002F6E21C025F0050E266ED8902532262E0E
:10159000C5EF0AF025502C242C6E000E2D202D6E48
:1015A000000E2E202E6E000E2F202F6E2CC028F045
:1015B0002DC029F02EC02AF02FC02BF028C021F01A
:1015C00029C022F02AC023F02BC024F012002104ED
:1015D0002210D8A4EEEF0AF0F0EF0AF0F3EF0AF0D1
:1015E0008986FDEF0AF021502210D8A4FAEF0AF004
:1015F000FCEF0AF0FDEF0AF089961A0E246E5E0EDB
:10160000236E6E0EE82EFED7232EFCD7242EFAD79B
:1016100000D0120021042210D8A411EF0BF013EF18
:101620000BF016EF0BF0898420EF0BF02150221005
:10163000D8A41DEF0BF01FEF0BF020EF0BF08994F7
:101640001A0E246E5E0E236E6E0EE82EFED7232E2B
:10165000FCD7242EFAD700D0120021042210D8A4DF
:1016600034EF0BF036EF0BF039EF0BF08D8243EFD8
:101670000BF021502210D8A440EF0BF042EF0BF0FA
:1016800043EF0BF08D921A0E246E5E0E236E6E0EDB
:10169000E82EFED7232EFCD7242EFAD700D0120036
:1016A00021042210D8A457EF0BF059EF0BF05CEF98
:1016B0000BF08D8466EF0BF021502210D8A463EF5D
:1016C0000BF065EF0BF066EF0BF08D941A0E246EA5
:1016D0005E0E236E6E0EE82EFED7232EFCD7242E30
:1016E000FAD700D01200000E8D6E000E8C6E000E28
:1016F000896E000E8A6E000E8B6E000E966EE30EE3
:10170000926EFB0E936E9468FE0E956E0F015D69EE
:101710007F0E5C6F000E5B6FF18E120021042210B1
:10172000D8A495EF0BF097EF0BF09AEF0BF08D80AC
:101730009BEF0BF08D901A0E246E5E0E236E6E0ED4
:10174000E82EFED7232EFCD7242EFAD700D0120085
:1017500002D8B5EF0BF00500FA6E0F50FD6E105079
:10176000FE6EF850FF6EFA501200779C120000EEE9
:1017700001F01E0EEE6AE806FDE136903692000E8C
:10178000F86E000164EF09F0E1EC0BF073EC0BF084
:10179000CDEC0BF091EC08F01200600ED36E000E51
:1017A000D26E000E9B6E000E9A6E12008D948D927A
:1017B0008D9089968994120021C00FF022C010F0FC
:0817C0001200D09E120012007D
:020000040020DA
:08000000FFFFFFFFFFFFFFFF00
:020000040030CA
:0E00000015027F7CFF8991FF0FC00FE00F40BB
:00000001FF
