:0400000078EF00F0A5
:100008004182FACF1BF0FBCF1CF0D9CF1DF0DACF1D
:100018001EF0F2A812EF00F014EF00F01FEF00F04E
:10002800F2A219EF00F01BEF00F01FEF00F08DECCB
:1000380009F06EEF00F0F0AA24EF00F026EF00F0D0
:1000480031EF00F0F0A42BEF00F02DEF00F031EFCE
:1000580000F081EC09F06EEF00F0F0A636EF00F04A
:1000680038EF00F043EF00F0F0A03DEF00F03FEF75
:1000780000F043EF00F089EC09F06EEF00F0F0A813
:1000880048EF00F04AEF00F055EF00F0F0A24FEF14
:1000980000F051EF00F055EF00F085EC09F06EEF3D
:1000A80000F0F2AC5AEF00F05CEF00F06EEF00F0F9
:1000B80076AC61EF00F063EF00F06EEF00F077AC24
:1000C80068EF00F06AEF00F06EEF00F045EC09F021
:1000D8006EEF00F01EC0DAFF1DC0D9FF1CC0FBFF89
:1000E8001BC0FAFF4192110022EF09F0000E000137
:1000F800896F000E8A6F000E8B6F000E8C6F0F01D8
:1001080020B789EF00F08BEF00F006EF01F020EE4A
:1001180001F02450D9262550DA22DECF7CF0DECF3C
:100128007DF0DECF7EF0DECF7FF024C0D9FF25C082
:10013800DAFFDF500001806F890E816F000E826F39
:100148008A0E836F000E846F8B0E856F000E866F8C
:100158008C0E876F000E886F9BEC05F089C023FF1B
:100168008AC024FF8BC021FF8CC022FF20EE05F03F
:100178002450D9262550DA22DF500F01256F20EEB2
:1001880006F02450D9262550DA22DF50266F20EEBB
:1001980007F02450D9262550DA22DF50276F20EEA9
:1001A80008F02450D9262550DA22DF50286F20EE97
:1001B80009F02450D9262550DA22DF50296F20EE85
:1001C8000AF02450D9262550DA22DF502A6F20EE73
:1001D8000BF02450D9262550DA22DF502B6F20EE61
:1001E8000CF02450D9262550DA22DF502C6F20EE4F
:1001F8000DF02450D9262550DA22DF502D6F2087A4
:100208000AEF02F010B70BEF01F00DEF01F088EFE5
:1002180001F020EE01F02450D9262550DA22DECF55
:100228007CF0DECF7DF0DECF7EF0DECF7FF024C025
:10023800D9FF25C0DAFFDF500001806F890E816F7A
:10024800000E826F8A0E836F000E846F8B0E856F8F
:10025800000E866F8C0E876F000E886F9BEC05F082
:1002680089C013FF8AC014FF8BC011FF8CC012FF16
:1002780020EE05F02450D9262550DA22DF500F0150
:10028800156F20EE06F02450D9262550DA22DF50CB
:10029800166F20EE07F02450D9262550DA22DF50B9
:1002A800176F20EE08F02450D9262550DA22DF50A7
:1002B800186F20EE09F02450D9262550DA22DF5095
:1002C800196F20EE0AF02450D9262550DA22DF5083
:1002D8001A6F20EE0BF02450D9262550DA22DF5071
:1002E8001B6F20EE0CF02450D9262550DA22DF505F
:1002F8001C6F20EE0DF02450D9262550DA22DF504D
:100308001D6F108704EF01F000B78DEF01F08FEF3C
:1003180001F00AEF02F020EE01F02450D926255012
:10032800DA22DECF7CF0DECF7DF0DECF7EF0DECFCE
:100338007FF024C0D9FF25C0DAFFDF500001806FAD
:10034800890E816F000E826F8A0E836F000E846F94
:100358008B0E856F000E866F8C0E876F000E886F70
:100368009BEC05F089C003FF8AC004FF8BC001FF26
:100378008CC002FF20EE05F02450D9262550DA2241
:10038800DF500F01056F20EE06F02450D9262550C6
:10039800DA22DF50066F20EE07F02450D9262550C8
:1003A800DA22DF50076F20EE08F02450D9262550B6
:1003B800DA22DF50086F20EE09F02450D9262550A4
:1003C800DA22DF50096F20EE0AF02450D926255092
:1003D800DA22DF500A6F20EE0BF02450D926255080
:1003E800DA22DF500B6F20EE0CF02450D92625506E
:1003F800DA22DF500C6F20EE0DF02450D92625505C
:10040800DA22DF500D6F008704EF01F01200000EB2
:10041800156E000E166E000E176E000E186E0F0188
:1004280020B719EF02F01BEF02F095EF02F020EE73
:1004380001F01350D9261450DA22DECF01F0DECFB6
:1004480002F0DECF03F0DECF04F013C0D9FF14C0F2
:10045800DAFFDF50056E150E066E000E076E160EDB
:10046800086E000E096E170E0A6E000E0B6E180E3F
:100478000C6E000E0D6E54EC06F015C023FF16C06E
:1004880024FF17C021FF18C022FF20EE05F01350EB
:10049800D9261450DA22DF500F01256F20EE06F01E
:1004A8001350D9261450DA22DF50266F20EE07F0B9
:1004B8001350D9261450DA22DF50276F20EE08F0A7
:1004C8001350D9261450DA22DF50286F20EE09F095
:1004D8001350D9261450DA22DF50296F20EE0AF083
:1004E8001350D9261450DA22DF502A6F20EE0BF071
:1004F8001350D9261450DA22DF502B6F20EE0CF05F
:100508001350D9261450DA22DF502C6F20EE0DF04C
:100518001350D9261450DA22DF502D6F208797EF19
:1005280003F010B79AEF02F09CEF02F016EF03F019
:1005380020EE01F01350D9261450DA22DECF01F054
:10054800DECF02F0DECF03F0DECF04F013C0D9FF18
:1005580014C0DAFFDF50056E150E066E000E076E2A
:10056800160E086E000E096E170E0A6E000E0B6E40
:10057800180E0C6E000E0D6E54EC06F015C013FF2D
:1005880016C014FF17C011FF18C012FF20EE05F0A7
:100598001350D9261450DA22DF500F01156F20EEC0
:1005A80006F01350D9261450DA22DF50166F20EEC9
:1005B80007F01350D9261450DA22DF50176F20EEB7
:1005C80008F01350D9261450DA22DF50186F20EEA5
:1005D80009F01350D9261450DA22DF50196F20EE93
:1005E8000AF01350D9261450DA22DF501A6F20EE81
:1005F8000BF01350D9261450DA22DF501B6F20EE6F
:100608000CF01350D9261450DA22DF501C6F20EE5C
:100618000DF01350D9261450DA22DF501D6F1087C1
:1006280093EF02F000B71BEF03F01DEF03F097EF15
:1006380003F020EE01F01350D9261450DA22DECF51
:1006480001F0DECF02F0DECF03F0DECF04F013C0FE
:10065800D9FF14C0DAFFDF50056E150E066E000EC6
:10066800076E160E086E000E096E170E0A6E000E43
:100678000B6E180E0C6E000E0D6E54EC06F015C0C5
:1006880003FF16C004FF17C001FF18C002FF20EEC9
:1006980005F01350D9261450DA22DF500F01056FE8
:1006A80020EE06F01350D9261450DA22DF50066FD8
:1006B80020EE07F01350D9261450DA22DF50076FC6
:1006C80020EE08F01350D9261450DA22DF50086FB4
:1006D80020EE09F01350D9261450DA22DF50096FA2
:1006E80020EE0AF01350D9261450DA22DF500A6F90
:1006F80020EE0BF01350D9261450DA22DF500B6F7E
:1007080020EE0CF01350D9261450DA22DF500C6F6B
:1007180020EE0DF01350D9261450DA22DF500D6F59
:10072800008793EF02F01200000E0001896F60AE9F
:10073800A0EF03F0A2EF03F031EF04F062A6A7EFF9
:1007480003F0A9EF03F0C9EF03F087C0D9FF88C011
:10075800DAFF020EDF6E64CF1FF061CF20F062CFA8
:1007680021F063500CEC07F0000120EE01F08751F6
:10077800D9268851DA221FC0DEFF20C0DEFF21C043
:10078800DEFF22C0DEFFE3EF03F087C0D9FF88C099
:10079800DAFF010EDF6E62CF1FF06150ABEC07F09D
:1007A800000120EE01F08751D9268851DA221FC0B6
:1007B800DEFF20C0DEFF21C0DEFF22C0DEFF20EE0C
:1007C80005F08751D9268851DA2265CFDFFF20EE60
:1007D80006F08751D9268851DA2266CFDFFF20EE4E
:1007E80007F08751D9268851DA2267CFDFFF20EE3C
:1007F80008F08751D9268851DA2268CFDFFF20EE2A
:1008080009F08751D9268851DA2269CFDFFF20EE17
:100818000AF08751D9268851DA226ACFDFFF20EE05
:100828000BF08751D9268851DA226BCFDFFF20EEF3
:100838000CF08751D9268851DA226CCFDFFF20EEE1
:100848000DF08751D9268851DA226DCFDFFF609EDF
:10085800010E0001896FC6EF04F00F0130AF37EFCA
:1008680004F039EF04F0C6EF04F032A73EEF04F0CD
:1008780040EF04F060EF04F087C0D9FF88C0DAFFCA
:10088800020EDF6E34CF1FF031CF20F032CF21F0CF
:1008980033510CEC07F0000120EE01F08751D92606
:1008A8008851DA221FC0DEFF20C0DEFF21C0DEFF34
:1008B80022C0DEFF7AEF04F087C0D9FF88C0DAFFD4
:1008C800010EDF6E32CF1FF03151ABEC07F00001A3
:1008D80020EE01F08751D9268851DA221FC0DEFFA9
:1008E80020C0DEFF21C0DEFF22C0DEFF20EE05F0C3
:1008F8008751D9268851DA2235CFDFFF20EE06F05E
:100908008751D9268851DA2236CFDFFF20EE07F04B
:100918008751D9268851DA2237CFDFFF20EE08F039
:100928008751D9268851DA2238CFDFFF20EE09F027
:100938008751D9268851DA2239CFDFFF20EE0AF015
:100948008751D9268851DA223ACFDFFF20EE0BF003
:100958008751D9268851DA223BCFDFFF20EE0CF0F1
:100968008751D9268851DA223CCFDFFF20EE0DF0DF
:100978008751D9268851DA223DCFDFFF0F01309FFA
:100988002CEF04F0000189511200800E6F6E6E503A
:10099800E00B800AD8A4D3EF04F0D5EF04F0CBEF36
:1009A80004F0400E726E200E706E000E0E017D6F08
:1009B800FA69FB69F869E30EF96FFE69FF69FC697A
:1009C800E30EFD6F010E466F000E476F000E796F44
:1009D800000E7A6F000E7B6F000E7C6F000E716F39
:1009E800000E726F000E736F000E746F000E756F3D
:1009F800000E766F000E776F000E786F000EE26FB4
:100A0800000EE36F020EE06FE00EE16F000EE66F7E
:100A1800000EE76F000EE46F000EE56F000EEA6F40
:100A2800000EEB6F000EE86F000EE96F000EEE6F20
:100A3800000EEF6F000EEC6F000EED6F000EF26F00
:100A4800000EF36F000EF06F000EF16F000EF66FE0
:100A5800000EF76F000EF46F000EF56F000E4A6F70
:100A6800000E4B6F000E486F000E496F000E4E6F60
:100A7800000E4F6F000E4C6F000E4D6F000E526F40
:100A8800000E536F000E506F000E516F000E566F20
:100A9800000E576F000E546F000E556F000E5A6F00
:100AA800000E5B6F000E586F000E596F000E5E6FE0
:100AB800000E5F6F000E5C6F000E5D6F000E626FC0
:100AC800000E636F000E606F000E616F000E666FA0
:100AD800000E676F000E646F000E656F000E6A6F80
:100AE800000E6B6F000E686F000E696F6E696F699C
:100AF8006C69E30E6D6F010E436FA80E446F010E13
:100B0800456F2E0E1F6E130E206E7CEC09F0779C3D
:100B1800768C000E6F6E6ECF21F0E00E2116D8A4F1
:100B280098EF05F09AEF05F08FEF05F01200020E2E
:100B380000018019D8A4A3EF05F0A5EF05F028EF70
:100B480006F083C0D9FF84C0DAFF7CC0DFFF7CC019
:100B58001FF07DC020F07EC021F07FC022F020C0B1
:100B68001FF021C020F022C021F0226A1FC07CF0B3
:100B780020C07DF021C07EF022C07FF081C0D9FF67
:100B880082C0DAFF7CC0DFFF7CC01FF07DC020F090
:100B98007EC021F07FC022F020C01FF021C020F0CD
:100BA80022C021F0226A1FC07CF020C07DF021C045
:100BB8007EF022C07FF07C51030B236E7CC01FF0B7
:100BC8007DC020F07EC021F07FC022F0030ED890B7
:100BD8001F36203621362236E82EEBEF05F01FC0EF
:100BE8007CF020C07DF021C07EF022C07FF07C51D7
:100BF800E00B2324236E2350080F236E2350EB0BA6
:100C080087C0D9FF88C0DAFFDF6E7CC01FF07DC0C7
:100C180020F07EC021F07FC022F020C01FF021C04C
:100C280020F022C021F0226A1FC07CF020C07DF095
:100C380021C07EF022C07FF085C0D9FF86C0DAFFD0
:100C48007CC0DFFF53EF06F081C0D9FF82C0DAFF16
:100C5800DF6A83C0D9FF84C0DAFFDF6A7CC01FF077
:100C68007DC020F07EC021F07FC022F0050ED89014
:100C78001F36203621362236E82E3BEF06F01FC0FD
:100C88007CF020C07DF021C07EF022C07FF087C0BC
:100C9800D9FF88C0DAFF7CC0DFFF09EF06F0120039
:100CA800020E0518D8A45BEF06F05DEF06F0E0EF42
:100CB80006F008C0D9FF09C0DAFF01C0DFFF01C094
:100CC8000EF002C00FF003C010F004C011F00FC006
:100CD8000EF010C00FF011C010F0116A0EC001F034
:100CE8000FC002F010C003F011C004F006C0D9FF15
:100CF80007C0DAFF01C0DFFF01C00EF002C00FF02D
:100D080003C010F004C011F00FC00EF010C00FF0B7
:100D180011C010F0116A0EC001F00FC002F010C02F
:100D280003F011C004F00150030B126E01C00EF065
:100D380002C00FF003C010F004C011F0030ED890E9
:100D48000E360F3610361136E82EA3EF06F00EC019
:100D580001F00FC002F010C003F011C004F0015000
:100D6800E00B1224126E1250080F126E1250EB0B89
:100D78000CC0D9FF0DC0DAFFDF6E01C00EF002C053
:100D88000FF003C010F004C011F00FC00EF010C037
:100D98000FF011C010F0116A0EC001F00FC002F080
:100DA80010C003F011C004F00AC0D9FF0BC0DAFF6D
:100DB80001C0DFFF0BEF07F006C0D9FF07C0DAFF5D
:100DC800DF6A08C0D9FF09C0DAFFDF6A01C00EF088
:100DD80002C00FF003C010F004C011F0050ED89047
:100DE8000E360F3610361136E82EF3EF06F00EC029
:100DF80001F00FC002F010C003F011C004F00CC0E5
:100E0800D9FF0DC0DAFF01C0DFFFC1EF06F0120005
:100E180000017C6F000E0001836F000E846F000ECE
:100E2800856F000E866F2150030B816F2138E842D1
:100E3800070B826F2050236E246AD89023362436FD
:100E4800D89023362436D8902336243623C083F00E
:100E580024C084F0000E84BFFF0E856F866F825118
:100E68008325836F000E8421846F000E8521856F92
:100E7800000E8621866F83C023F084C024F085C0CD
:100E880025F086C026F0020ED89023362436253663
:100E98002636E82E48EF07F023C083F024C084F0FC
:100EA80025C085F026C086F081518325836F000E0A
:100EB8008421846F000E8521856F000E8621866F40
:100EC80083C024F084C025F085C026F0236A23C09F
:100ED80083F024C084F025C085F026C086F07C51BC
:100EE8008325836F000E8421846F000E8521856F12
:100EF800000E8621866F83C024F084C025F085C04B
:100F080026F0236A23C083F024C084F025C085F02E
:100F180026C086F01F508325836F000E8421846FBE
:100F2800000E8521856F000E8621866F83C07DF0B7
:100F380084C07EF085C07FF086C080F07DC01FF041
:100F48007EC020F07FC021F080C022F01200000196
:100F58007C6F00017C51236E246AD8902336243696
:100F6800D89023362436D8902336243623C081F0EF
:100F780024C082F0000E82BFFF0E836F846F1FC0F3
:100F880023F0050E246ED8902332242EC7EF07F0E5
:100F980023508125816F000E8221826F000E8321EC
:100FA800836F000E8421846F81C07DF082C07EF043
:100FB80083C07FF084C080F07DC01FF07EC020F029
:100FC8007FC021F080C022F0120054EC09F06A0EB4
:100FD8001F6E120E206E68EC09F0F28EF28C6E0E07
:100FE8000001876F000E886F98EC03F00009D8B4F1
:100FF80000EF08F002EF08F0F3EF07F000016E05CC
:10100800D8A409EF08F00BEF08F0F3EF07F0170E7C
:101018006F19701171117211D8A415EF08F017EF3C
:1010280008F01BEF08F01FEC08F0F3EF07F0F3EF00
:1010380007F078EF00F0010E2B6E550E2C6E020EA5
:101048002D6E000E2E6E000E2F6E010E306E010EEC
:10105800316E2B0E246E000E256E7AEC00F0330EE6
:1010680000018E6FBB0E8D6FDF0EE82EFED78D2F21
:10107800FCD78E2FFAD700D08C92000E286E000E67
:10108800276E1200F292F18C2C0E1F6E130E206E3A
:1010980077EC09F0F288F090F18A2A0E1F6E130E91
:1010A800206E72EC09F0F086F092F188280E1F6E1F
:1010B800130E206E6DEC09F0F088F094F186260E80
:1010C8001F6E130E206E68EC09F0F08A1200010EF4
:1010D8002B6E550E2C6E020E2D6E000E2E6E000E0F
:1010E8002F6E010E306E010E316E2B0E136E000E38
:1010F800146E0BEC02F0330E1A6EBB0E196EE00E76
:10110800E82EFED7192EFCD71A2EFAD78C92000E8D
:10111800286E000E276E1200000E8D6E000E8C6E6B
:10112800000E896E000E8A6E000E8B6E070E966E8C
:10113800EF0E926E9368BF0E946EFD0E956E0F01C2
:101148005D697A0E5C6F000E5B6FF18E12008C8207
:10115800010E0001606F310E616F000E626F000EAC
:10116800636F000E646F010E656F010E666F600E8F
:10117800136E000E146E0BEC02F0000E286E010EBA
:10118800276E120039503A10D8B4CDEF08F0CFEFDF
:1011980008F0DCEF08F002D8DCEF08F00500FA6E82
:1011A8003950FD6E3A50FE6EF850FF6EFA5012003C
:1011B80012003B503C10D8B4E4EF08F0E6EF08F01A
:1011C800F3EF08F002D8F3EF08F00500FA6E3B5091
:1011D800FD6E3C50FE6EF850FF6EFA501200120081
:1011E8003D503E10D8B4FBEF08F0FDEF08F00AEFD1
:1011F80009F002D80AEF09F00500FA6E3D50FD6EBD
:101208003E50FE6EF850FF6EFA50120012003F502A
:101218004010D8B412EF09F014EF09F021EF09F0EB
:1012280002D821EF09F00500FA6E3F50FD6E4050DC
:10123800FE6EF850FF6EFA501200120000EE60F0D9
:101248001C0EEE6AE806FDE100EE27F0120EEE6ACB
:10125800E806FDE141904192000EF86E0001E9EFC9
:1012680007F027502810D8B43CEF09F03EEF09F0FA
:1012780042EF09F06BEC08F044EF09F0ABEC08F032
:10128800120002D852EF09F00500FA6E2950FD6EDF
:101298002A50FE6EF850FF6EFA501200779C12002A
:1012A80091EC09F090EC08F05FEC09F046EC08F0DE
:1012B800C9EC04F01200600ED36E000ED26E000E60
:1012C8009B6E000E9A6E12001FC039F020C03AF0D3
:1012D80012001FC03BF020C03CF012001FC03DF0C0
:1012E80020C03EF012001FC03FF020C040F01200A6
:1012F8001FC029F020C02AF01200F094C6EC08F0B4
:101308001200F092DDEC08F01200F090F4EC08F016
:101318001200F2920BEC09F01200D09E120012009B
:08132800120012001200120075
:020000040020DA
:08000000FFFFFFFFFFFFFFFF00
:020000040030CA
:0E00000015027F7CFF8891FF0FC00FE00F40BC
:00000001FF
