:0400000070EF00F0AD
:100008003982FACF37F0FBCF38F0F2A80EEF00F0C4
:1000180010EF00F01BEF00F0F2A215EF00F017EF61
:1000280000F01BEF00F0F6EC00F06AEF00F0F0AA29
:1000380020EF00F022EF00F02DEF00F0F0A427EF02
:1000480000F029EF00F02DEF00F0EAEC00F06AEF85
:1000580000F0F0A632EF00F034EF00F03FEF00F0D0
:10006800F0A039EF00F03BEF00F03FEF00F0F2ECCA
:1000780000F06AEF00F0F0A844EF00F046EF00F05F
:1000880051EF00F0F0A24BEF00F04DEF00F051EF10
:1000980000F0EEEC00F06AEF00F0F2AC56EF00F082
:1000A80058EF00F06AEF00F076AC5DEF00F05FEF1C
:1000B80000F06AEF00F077AC64EF00F066EF00F054
:1000C8006AEF00F0CEEC00F06AEF00F038C0FBFFFA
:1000D80037C0FAFF39921100DDEF00F0115012100D
:1000E800D8B479EF00F07BEF00F088EF00F002D889
:1000F80088EF00F00500FA6E1150FD6E1250FE6E8A
:10010800F850FF6EFA501200120013501410D8B4B1
:1001180090EF00F092EF00F09FEF00F002D89FEF11
:1001280000F00500FA6E1350FD6E1450FE6EF85084
:10013800FF6EFA501200120015501610D8B4A7EF2F
:1001480000F0A9EF00F0B6EF00F002D8B6EF00F02B
:100158000500FA6E1550FD6E1650FE6EF850FF6ED3
:10016800FA501200120017501810D8B4BEEF00F061
:10017800C0EF00F0CDEF00F002D8CDEF00F00500A1
:10018800FA6E1750FD6E1850FE6EF850FF6EFA505A
:100198001200120002D8DBEF00F00500FA6E1950C9
:1001A800FD6E1A50FE6EF850FF6EFA501200779CE2
:1001B800120000EE01F0360EEE6AE806FDE1399015
:1001C8003992000EF86E0001FAEF00F0F09472EC2C
:1001D80000F01200F09289EC00F01200F090A0EC10
:1001E80000F01200F292B7EC00F0120070EF00F08D
:0A01F80012001200120012001200A3
:020000040020DA
:08000000FFFFFFFFFFFFFFFF00
:020000040030CA
:0E00000015027F7CFF8891FF0FC00FE00F40BC
:00000001FF
