:0400000026EF00F0F7
:100008004882FACF2FF0FBCF30F0F2AC0EEF00F0C1
:1000180010EF00F020EF00F076AC15EF00F017EFCE
:1000280000F020EF00F077AC1CEF00F01EEF00F0BE
:1000380020EF00F0EDEC0CF030C0FBFF2FC0FAFF12
:0800480048921100FCEF0CF0DE
:100F00000000000E406E000E416E000E426E000E9C
:100F1000436E0F0120B78FEF07F091EF07F0F8EF66
:100F200007F03F50D96EDA6A010ED926DECF31F0D4
:100F3000DECF32F0DECF33F0DECF34F03F50D96E6B
:100F4000DA6ADF50356E400E366E410E376E420E55
:100F5000386E430E396EB7EC0AF040C023FF41C033
:100F600024FF42C021FF43C022FF3F50D96EDA6AFE
:100F7000050ED926DF500F01256F3F50D96EDA6A72
:100F8000060ED926DF50266F3F50D96EDA6A070E5B
:100F9000D926DF50276F3F50D96EDA6A080ED9265E
:100FA000DF50286F3F50D96EDA6A090ED926DF501C
:100FB000296F3F50D96EDA6A0A0ED926DF502A6FA0
:100FC0003F50D96EDA6A0B0ED926DF502B6F3F5097
:100FD000D96EDA6A0C0ED926DF502C6F3F50D96ECD
:100FE000DA6A0D0ED926DF502D6F2087D4EF08F076
:100FF00010B7FDEF07F0FFEF07F066EF08F03F5086
:10100000D96EDA6A010ED926DECF31F0DECF32F0AA
:10101000DECF33F0DECF34F03F50D96EDA6ADF50E6
:10102000356E400E366E410E376E420E386E430EF0
:10103000396EB7EC0AF040C013FF41C014FF42C044
:1010400011FF43C012FF3F50D96EDA6A050ED92650
:10105000DF500F01156F3F50D96EDA6A060ED926A0
:10106000DF50166F3F50D96EDA6A070ED926DF506F
:10107000176F3F50D96EDA6A080ED926DF50186F05
:101080003F50D96EDA6A090ED926DF50196F3F50EA
:10109000D96EDA6A0A0ED926DF501A6F3F50D96E20
:1010A000DA6A0B0ED926DF501B6F3F50D96EDA6A11
:1010B0000C0ED926DF501C6F3F50D96EDA6A0D0E28
:1010C000D926DF501D6F1087F6EF07F000B76BEFE2
:1010D00008F06DEF08F0D4EF08F03F50D96EDA6AEF
:1010E000010ED926DECF31F0DECF32F0DECF33F085
:1010F000DECF34F03F50D96EDA6ADF50356E400EE5
:10110000366E410E376E420E386E430E396EB7ECB6
:101110000AF040C003FF41C004FF42C001FF43C0CA
:1011200002FF3F50D96EDA6A050ED926DF500F0153
:10113000056F3F50D96EDA6A060ED926DF50066F6A
:101140003F50D96EDA6A070ED926DF50076F3F503D
:10115000D96EDA6A080ED926DF50086F3F50D96E73
:10116000DA6A090ED926DF50096F3F50D96EDA6A64
:101170000A0ED926DF500A6F3F50D96EDA6A0B0E7D
:10118000D926DF500B6F3F50D96EDA6A0C0ED92684
:10119000DF500C6F3F50D96EDA6A0D0ED926DF5042
:1011A0000D6F0087F6EF07F01200000E456E60AE7F
:1011B000DCEF08F0DEEF08F05DEF09F062A6E3EF88
:1011C00008F0E5EF08F002EF09F04450D96EDA6A52
:1011D000020EDF6E64CF31F061CF32F062CF33F0B8
:1011E000635068EC0BF04450D96EDA6A010ED926D0
:1011F00031C0DEFF32C0DEFF33C0DEFF34C0DEFFB1
:1012000019EF09F04450D96EDA6A010EDF6E62CF31
:1012100031F061505BEC0CF04450D96EDA6A010E8B
:10122000D92631C0DEFF32C0DEFF33C0DEFF34C05E
:10123000DEFF4450D96EDA6A050ED92665CFDFFF8E
:101240004450D96EDA6A060ED92666CFDFFF4450C5
:10125000D96EDA6A070ED92667CFDFFF4450D96E00
:10126000DA6A080ED92668CFDFFF4450D96EDA6AF1
:10127000090ED92669CFDFFF4450D96EDA6A0A0E0B
:10128000D9266ACFDFFF4450D96EDA6A0B0ED92611
:101290006BCFDFFF4450D96EDA6A0C0ED9266CCFC3
:1012A000DFFF4450D96EDA6A0D0ED9266DCFDFFF0D
:1012B000609E010E456EE3EF09F00F0130AF63EF62
:1012C00009F065EF09F0E3EF09F032A76AEF09F0E2
:1012D0006CEF09F089EF09F04450D96EDA6A020E1A
:1012E000DF6E34CF31F031CF32F032CF33F03351C3
:1012F00068EC0BF04450D96EDA6A010ED92631C081
:10130000DEFF32C0DEFF33C0DEFF34C0DEFFA0EF01
:1013100009F04450D96EDA6A010EDF6E32CF31F037
:1013200031515BEC0CF04450D96EDA6A010ED926CB
:1013300031C0DEFF32C0DEFF33C0DEFF34C0DEFF6F
:101340004450D96EDA6A050ED92635CFDFFF4450F6
:10135000D96EDA6A060ED92636CFDFFF4450D96E31
:10136000DA6A070ED92637CFDFFF4450D96EDA6A22
:10137000080ED92638CFDFFF4450D96EDA6A090E3D
:10138000D92639CFDFFF4450D96EDA6A0A0ED92642
:101390003ACFDFFF4450D96EDA6A0B0ED9263BCF25
:1013A000DFFF4450D96EDA6A0C0ED9263CCFDFFF3E
:1013B0004450D96EDA6A0D0ED9263DCFDFFF0F01FA
:1013C000309F59EF09F045501200800E6F6E6E503D
:1013D000E00B800AD8A4EFEF09F0F1EF09F0E7EF96
:1013E00009F0400E726E200E706E000E0E017D6FC1
:1013F000FA69FB69F869E30EF96FFE69FF69FC6938
:10140000E30EFD6F010E466F000E476F000E796F01
:10141000000E7A6F000E7B6F000E7C6F000E716FF6
:10142000000E726F000E736F000E746F000E756FFA
:10143000000E766F000E776F000E786F000EE26F71
:10144000000EE36F020EE06FE00EE16F000EE66F3C
:10145000000EE76F000EE46F000EE56F000EEA6FFE
:10146000000EEB6F000EE86F000EE96F000EEE6FDE
:10147000000EEF6F000EEC6F000EED6F000EF26FBE
:10148000000EF36F000EF06F000EF16F000EF66F9E
:10149000000EF76F000EF46F000EF56F000E4A6F2E
:1014A000000E4B6F000E486F000E496F000E4E6F1E
:1014B000000E4F6F000E4C6F000E4D6F000E526FFE
:1014C000000E536F000E506F000E516F000E566FDE
:1014D000000E576F000E546F000E556F000E5A6FBE
:1014E000000E5B6F000E586F000E596F000E5E6F9E
:1014F000000E5F6F000E5C6F000E5D6F000E626F7E
:10150000000E636F000E606F000E616F000E666F5D
:10151000000E676F000E646F000E656F000E6A6F3D
:10152000000E6B6F000E686F000E696F6E696F6959
:101530006C69E30E6D6F030E436FA80E446F010ECE
:10154000456F440E316E1A0E326E1BEC0DF0779C17
:10155000768C000E6F6E6ECF33F0E00E3316D8A48B
:10156000B4EF0AF0B6EF0AF0ABEF0AF01200020E89
:101570003518D8A4BEEF0AF0C0EF0AF03FEF0BF029
:101580003750D96EDA6A31C0DFFF31C03AF032C06D
:101590003BF033C03CF034C03DF03BC03AF03CC0BF
:1015A0003BF03DC03CF03D6A3AC031F03BC032F008
:1015B0003CC033F03DC034F03650D96EDA6A31C0E9
:1015C000DFFF31C03AF032C03BF033C03CF034C0F2
:1015D0003DF03BC03AF03CC03BF03DC03CF03D6AC2
:1015E0003AC031F03BC032F03CC033F03DC034F083
:1015F0003150030B3E6E31C03AF032C03BF033C085
:101600003CF034C03DF0030ED8903A363B363C36C1
:101610003D36E82E04EF0BF03AC031F03BC032F01B
:101620003CC033F03DC034F03150E00B3E243E6E00
:101630003E50080F3E6E3950D96EDA6A3E50EB0BC1
:10164000DF6E31C03AF032C03BF033C03CF034C002
:101650003DF03BC03AF03CC03BF03DC03CF03D6A41
:101660003AC031F03BC032F03CC033F03DC034F002
:101670003850D96EDA6A31C0DFFF67EF0BF03650B1
:10168000D96EDA6ADF6A3750D96EDA6ADF6A31C03A
:101690003AF032C03BF033C03CF034C03DF0050EB0
:1016A000D8903A363B363C363D36E82E50EF0BF0BC
:1016B0003AC031F03BC032F03CC033F03DC034F0B2
:1016C0003950D96EDA6A31C0DFFF21EF0BF012001A
:1016D000396E000E406E000E416E000E426E000E1E
:1016E000436E3350030B3E6E3338E842070B3F6EB8
:1016F0003250356E366AD89035363636D890353613
:101700003636D8903536363635C040F036C041F0E2
:10171000000E41BEFF0E426E436E3F504024406EAD
:10172000000E4120416E000E4220426E000E43200A
:10173000436E40C035F041C036F042C037F043C080
:1017400038F0020ED8903536363637363836E82E31
:10175000A2EF0BF035C040F036C041F037C042F088
:1017600038C043F03E504024406E000E4120416E90
:10177000000E4220426E000E4320436E40C036F001
:1017800041C037F042C038F0356A35C040F036C04D
:1017900041F037C042F038C043F039504024406E29
:1017A000000E4120416E000E4220426E000E43208A
:1017B000436E40C036F041C037F042C038F0356A61
:1017C00035C040F036C041F037C042F038C043F079
:1017D00031504024406E000E4120416E000E4220E8
:1017E000426E000E4320436E40C03AF041C03BF0D1
:1017F00042C03CF043C03DF03AC031F03BC032F053
:101800003CC033F03DC034F0120009EC0DF0F28E14
:10181000F28C81A60EEF0CF010EF0CF02AEF0CF01A
:1018200001500210D8B417EF0CF019EF0CF01DEFB7
:101830000CF097EC0CF01FEF0CF0D5EC0CF0060E52
:10184000476E130E466EAE0EE82EFED7462EFCD720
:10185000472EFAD7210E446ED5EC08F00009D8B413
:1018600034EF0CF036EF0CF009EF0CF02104D8A4A3
:101870003CEF0CF03EEF0CF009EF0CF0170E2218C5
:10188000231024102510D8A448EF0CF04AEF0CF0D8
:1018900009EF0CF001500210D8B451EF0CF053EFE7
:1018A0000CF057EF0CF097EC0CF009EF0CF009EF8F
:1018B0000CF026EF00F0376E3750356E366AD89050
:1018C00035363636D89035363636D89035363636C3
:1018D00035C03CF036C03DF0000E3DBEFF0E3E6E02
:1018E0003F6E31C035F0050E366ED8903532362E4B
:1018F00075EF0CF035503C243C6E000E3D203D6EE3
:10190000000E3E203E6E000E3F203F6E3CC038F081
:101910003DC039F03EC03AF03FC03BF038C031F036
:1019200039C032F03AC033F03BC034F01200010E3F
:10193000056E550E066E020E076E000E086E000E46
:10194000096E010E0A6E010E0B6E050E3F6E81ECE4
:1019500007F0330E456EBB0E446EE00EE82EFED748
:10196000442EFCD7452EFAD78C92000E026E000E44
:10197000016E1200000E8D6E000E8C6E000E896ED0
:10198000000E8A6E000E8B6E070E966EEF0E926E34
:101990009368BF0E946EFD0E956E0F015D697F0E0C
:1019A0005C6F000E5B6FF18E12008C82010E136E65
:1019B000310E146E000E156E000E166E000E176EB0
:1019C000010E186E010E196E130E3F6E81EC07F0BA
:1019D000000E026E010E016E120002D8FAEF0CF03A
:1019E0000500FA6E0350FD6E0450FE6EF850FF6E57
:1019F000FA501200779C120000EE01F02E0EEE6AF3
:101A0000E806FDE148904892000EF86E000105EFEF
:101A10000CF020EC0DF0BAEC0CF012EC0DF0E5EC53
:101A200009F01200600ED36E000ED26E000E9B6E97
:101A3000000E9A6E120031C003F032C004F01200A2
:061A4000D09E120012000E
:020000040020DA
:08000000FFFFFFFFFFFFFFFF00
:020000040030CA
:0E00000015027F7CFF8891FF0FC00FE00F40BC
:00000001FF
