:0400000026EF00F0F7
:100008004D82FACF2FF0FBCF30F0F2AC0EEF00F0BC
:1000180010EF00F020EF00F076AC15EF00F017EFCE
:1000280000F020EF00F077AC1CEF00F01EEF00F0BE
:1000380020EF00F0F6EC05F030C0FBFF2FC0FAFF10
:100048004D92110005EF06F0000E456E000E466E4B
:10005800000E476E000E486E0F0120B736EF00F015
:1000680038EF00F0B2EF00F020EE01F04350D9264F
:100078004450DA22DECF31F0DECF32F0DECF33F07B
:10008800DECF34F043C0D9FF44C0DAFFDF50356E0D
:10009800450E366E000E376E460E386E000E396EFF
:1000A800470E3A6E000E3B6E480E3C6E000E3D6EDB
:1000B800B1EC03F045C023FF46C024FF47C021FF31
:1000C80048C022FF20EE05F04350D9264450DA22DA
:1000D800DF500F01256F20EE06F04350D92644501B
:1000E800DA22DF50266F20EE07F04350D92644501D
:1000F800DA22DF50276F20EE08F04350D92644500B
:10010800DA22DF50286F20EE09F04350D9264450F8
:10011800DA22DF50296F20EE0AF04350D9264450E6
:10012800DA22DF502A6F20EE0BF04350D9264450D4
:10013800DA22DF502B6F20EE0CF04350D9264450C2
:10014800DA22DF502C6F20EE0DF04350D9264450B0
:10015800DA22DF502D6F2087B4EF01F010B7B7EF28
:1001680000F0B9EF00F033EF01F020EE01F043505A
:10017800D9264450DA22DECF31F0DECF32F0DECF9E
:1001880033F0DECF34F043C0D9FF44C0DAFFDF508C
:10019800356E450E366E000E376E460E386E000E02
:1001A800396E470E3A6E000E3B6E480E3C6E000EDE
:1001B8003D6EB1EC03F045C013FF46C014FF47C0C5
:1001C80011FF48C012FF20EE05F04350D9264450D5
:1001D800DA22DF500F01156F20EE06F04350D926C2
:1001E8004450DA22DF50166F20EE07F04350D9262C
:1001F8004450DA22DF50176F20EE08F04350D9261A
:100208004450DA22DF50186F20EE09F04350D92607
:100218004450DA22DF50196F20EE0AF04350D926F5
:100228004450DA22DF501A6F20EE0BF04350D926E3
:100238004450DA22DF501B6F20EE0CF04350D926D1
:100248004450DA22DF501C6F20EE0DF04350D926BF
:100258004450DA22DF501D6F1087B0EF00F000B76E
:1002680038EF01F03AEF01F0B4EF01F020EE01F0C1
:100278004350D9264450DA22DECF31F0DECF32F0B7
:10028800DECF33F0DECF34F043C0D9FF44C0DAFF0D
:10029800DF50356E450E366E000E376E460E386EE0
:1002A800000E396E470E3A6E000E3B6E480E3C6EDD
:1002B800000E3D6EB1EC03F045C003FF46C004FFDD
:1002C80047C001FF48C002FF20EE05F04350D92681
:1002D8004450DA22DF500F01056F20EE06F043503C
:1002E800D9264450DA22DF50066F20EE07F043503B
:1002F800D9264450DA22DF50076F20EE08F0435029
:10030800D9264450DA22DF50086F20EE09F0435016
:10031800D9264450DA22DF50096F20EE0AF0435004
:10032800D9264450DA22DF500A6F20EE0BF04350F2
:10033800D9264450DA22DF500B6F20EE0CF04350E0
:10034800D9264450DA22DF500C6F20EE0DF04350CE
:10035800D9264450DA22DF500D6F0087B0EF00F045
:100368001200000E466E60AEBCEF01F0BEEF01F069
:100378004AEF02F062A6C3EF01F0C5EF01F0E4EF27
:1003880001F044C0D9FF45C0DAFF020EDF6E64CF2A
:1003980031F061CF32F062CF33F063506BEC04F090
:1003A80020EE01F04450D9264550DA2231C0DEFF54
:1003B80032C0DEFF33C0DEFF34C0DEFFFDEF01F0E8
:1003C80044C0D9FF45C0DAFF010EDF6E62CF31F0BD
:1003D800615060EC05F020EE01F04450D9264550FC
:1003E800DA2231C0DEFF32C0DEFF33C0DEFF34C0A8
:1003F800DEFF20EE05F04450D9264550DA2265CFBD
:10040800DFFF20EE06F04450D9264550DA2266CFA9
:10041800DFFF20EE07F04450D9264550DA2267CF97
:10042800DFFF20EE08F04450D9264550DA2268CF85
:10043800DFFF20EE09F04450D9264550DA2269CF73
:10044800DFFF20EE0AF04450D9264550DA226ACF61
:10045800DFFF20EE0BF04450D9264550DA226BCF4F
:10046800DFFF20EE0CF04450D9264550DA226CCF3D
:10047800DFFF20EE0DF04450D9264550DA226DCF2B
:10048800DFFF609E010E466EDDEF02F00F0130AF18
:1004980050EF02F052EF02F0DDEF02F032A757EF13
:1004A80002F059EF02F078EF02F044C0D9FF45C0DE
:1004B800DAFF020EDF6E34CF31F031CF32F032CFB7
:1004C80033F033516BEC04F020EE01F04450D926A0
:1004D8004550DA2231C0DEFF32C0DEFF33C0DEFF16
:1004E80034C0DEFF91EF02F044C0D9FF45C0DAFF07
:1004F800010EDF6E32CF31F0315160EC05F020EEA5
:1005080001F04450D9264550DA2231C0DEFF32C00E
:10051800DEFF33C0DEFF34C0DEFF20EE05F04450BE
:10052800D9264550DA2235CFDFFF20EE06F04450B9
:10053800D9264550DA2236CFDFFF20EE07F04450A7
:10054800D9264550DA2237CFDFFF20EE08F0445095
:10055800D9264550DA2238CFDFFF20EE09F0445083
:10056800D9264550DA2239CFDFFF20EE0AF0445071
:10057800D9264550DA223ACFDFFF20EE0BF044505F
:10058800D9264550DA223BCFDFFF20EE0CF044504D
:10059800D9264550DA223CCFDFFF20EE0DF044503B
:1005A800D9264550DA223DCFDFFF0F01309F46EFB5
:1005B80002F046501200800E6F6E6E50E00B800AFB
:1005C800D8A4E9EF02F0EBEF02F0E1EF02F0400E01
:1005D800726E200E706E000E0E017D6FFA69FB6957
:1005E800F869E30EF96FFE69FF69FC69E30EFD6FB8
:1005F800010E466F000E476F000E796F000E7A6F7E
:10060800000E7B6F000E7C6F000E716F000E726F14
:10061800000E736F000E746F000E756F000E766F0C
:10062800000E776F000E786F000EE26F000EE36F1A
:10063800020EE06FE00EE16F000EE66F000EE76F4E
:10064800000EE46F000EE56F000EEA6F000EEB6F10
:10065800000EE86F000EE96F000EEE6F000EEF6FF0
:10066800000EEC6F000EED6F000EF26F000EF36FD0
:10067800000EF06F000EF16F000EF66F000EF76FB0
:10068800000EF46F000EF56F000E4A6F000E4B6FF0
:10069800000E486F000E496F000E4E6F000E4F6F30
:1006A800000E4C6F000E4D6F000E526F000E536F10
:1006B800000E506F000E516F000E566F000E576FF0
:1006C800000E546F000E556F000E5A6F000E5B6FD0
:1006D800000E586F000E596F000E5E6F000E5F6FB0
:1006E800000E5C6F000E5D6F000E626F000E636F90
:1006F800000E606F000E616F000E666F000E676F70
:10070800000E646F000E656F000E6A6F000E6B6F4F
:10071800000E686F000E696F6E696F696C69E30E91
:100728006D6F030E436FA80E446F010E456F560E92
:10073800316E0C0E326E24EC06F0779C768C000E2F
:100748006F6E6ECF33F0E00E3316D8A4AEEF03F021
:10075800B0EF03F0A5EF03F01200020E3518D8A48D
:10076800B8EF03F0BAEF03F03DEF04F038C0D9FF5B
:1007780039C0DAFF31C0DFFF31C03EF032C03FF090
:1007880033C040F034C041F03FC03EF040C03FF0BD
:1007980041C040F0416A3EC031F03FC032F040C035
:1007A80033F041C034F036C0D9FF37C0DAFF31C06A
:1007B800DFFF31C03EF032C03FF033C040F034C0FC
:1007C80041F03FC03EF040C03FF041C040F0416AB8
:1007D8003EC031F03FC032F040C033F041C034F089
:1007E8003150030B426E31C03EF032C03FF033C08F
:1007F80040F034C041F0030ED8903E363F364036C4
:100808004136E82E00EF04F03EC031F03FC032F030
:1008180040C033F041C034F03150E00B4224426E06
:100828004250080F426E4250EB0B3CC0D9FF3DC00E
:10083800DAFFDF6E31C03EF032C03FF033C040F027
:1008480034C041F03FC03EF040C03FF041C040F0EE
:10085800416A3EC031F03FC032F040C033F041C081
:1008680034F03AC0D9FF3BC0DAFF31C0DFFF6AEF8E
:1008780004F036C0D9FF37C0DAFF000EDF6E38C08B
:10088800D9FF39C0DAFF000EDF6E31C03EF032C04A
:100898003FF033C040F034C041F0050ED8903E36EA
:1008A8003F3640364136E82E52EF04F03EC031F074
:1008B8003FC032F040C033F041C034F03CC0D9FFF3
:1008C8003DC0DAFF31C0DFFF1EEF04F01200396EC1
:1008D800000E406E000E416E000E426E000E436E1A
:1008E8003350030B3E6E3338E842070B3F6E3250ED
:1008F800356E366AD89035363636D890353636362F
:10090800D8903536363635C040F036C041F0000E46
:1009180041BEFF0E426E436E3F504024406E000EB3
:100928004120416E000E4220426E000E4320436E6D
:1009380040C035F041C036F042C037F043C038F00F
:10094800020ED8903536363637363836E82EA5EFCB
:1009580004F035C040F036C041F037C042F038C02E
:1009680043F03E504024406E000E4120416E000E80
:100978004220426E000E4320436E40C036F041C014
:1009880037F042C038F0356A35C040F036C041F023
:1009980037C042F038C043F039504024406E000E52
:1009A8004120416E000E4220426E000E4320436EED
:1009B80040C036F041C037F042C038F0356A35C023
:1009C80040F036C041F037C042F038C043F03150F3
:1009D8004024406E000E4120416E000E4220426EBF
:1009E800000E4320436E40C03AF041C03BF042C085
:1009F8003CF043C03DF03AC031F03BC032F03CC05F
:100A080033F03DC034F0120012EC06F0F28EF28C96
:100A180081A611EF05F013EF05F02DEF05F0015059
:100A28000210D8B41AEF05F01CEF05F020EF05F01E
:100A38009CEC05F022EF05F0DCEC05F0060E4C6EA0
:100A4800130E4B6EAE0EE82EFED74B2EFCD74C2E57
:100A5800FAD7210E446E000E456EB5EC01F0000980
:100A6800D8B439EF05F03BEF05F00CEF05F02104A1
:100A7800D8A441EF05F043EF05F00CEF05F0170E91
:100A88002218231024102510D8A44DEF05F04FEF9D
:100A980005F00CEF05F001500210D8B456EF05F040
:100AA80058EF05F05CEF05F09CEC05F00CEF05F055
:100AB8000CEF05F026EF00F0376E3750356E366ACA
:100AC800D89035363636D89035363636D8903536CD
:100AD800363635C03CF036C03DF0000E3DBEFF0E48
:100AE8003E6E3F6E31C035F0050E366ED890353209
:100AF800362E7AEF05F035503C243C6E000E3D2032
:100B08003D6E000E3E203E6E000E3F203F6E3CC004
:100B180038F03DC039F03EC03AF03FC03BF038C035
:100B280031F039C032F03AC033F03BC034F0120033
:100B3800010E056E550E066E020E076E000E086E4B
:100B4800000E096E010E0A6E010E0B6E050E436E45
:100B5800000E446E28EC00F0330E4A6EBB0E496E50
:100B6800E00EE82EFED7492EFCD74A2EFAD78C92F3
:100B7800000E026E000E016E1200000E8D6E000E49
:100B88008C6E000E896E000E8A6E000E8B6E070E3C
:100B9800966EEF0E926E9368BF0E946EFD0E956E74
:100BA8000F015D697F0E5C6F000E5B6FF18E1200A6
:100BB8008C82010E136E310E146E000E156E000E2F
:100BC800166E000E176E010E186E010E196E130EBA
:100BD800436E000E446E28EC00F0000E026E010E0B
:100BE800016E120002D803EF06F00500FA6E0350FA
:100BF800FD6E0450FE6EF850FF6EFA501200779C9E
:100C0800120000EE01F02E0EEE6AE806FDE14D90AE
:100C18004D92000EF86E000108EF05F029EC06F081
:100C2800C1EC05F01BEC06F0DFEC02F01200600EE0
:100C3800D36E000ED26E000E9B6E000E9A6E1200DE
:100C480031C003F032C004F01200D09E120012002E
:020000040020DA
:08000000FFFFFFFFFFFFFFFF00
:020000040030CA
:0E00000015027F7CFF8891FF0FC00FE00F40BC
:00000001FF
