:0400000026EF00F0F7
:100008004A82FACF26F0FBCF27F0F2AC0EEF00F0D1
:1000180010EF00F020EF00F076AC15EF00F017EFCE
:1000280000F020EF00F077AC1CEF00F01EEF00F0BE
:1000380020EF00F0E6EC03F027C0FBFF26C0FAFF34
:100048004A921100F5EF03F0000E3C6E000E3D6E73
:10005800000E3E6E000E3F6E0F0120B736EF00F027
:1000680038EF00F0B2EF00F020EE01F03A50D92658
:100078003B50DA22DECF28F0DECF29F0DECF2AF09F
:10008800DECF2BF03AC0D9FF3BC0DAFFDF502C6E31
:100098003C0E2D6E000E2E6E3D0E2F6E000E306E35
:1000A8003E0E316E000E326E3F0E336E000E346E11
:1000B80090EC02F03CC023FF3DC024FF3EC021FF6E
:1000C8003FC022FF20EE05F03A50D9263B50DA22F5
:1000D800DF500F01256F20EE06F03A50D9263B502D
:1000E800DA22DF50266F20EE07F03A50D9263B502F
:1000F800DA22DF50276F20EE08F03A50D9263B501D
:10010800DA22DF50286F20EE09F03A50D9263B500A
:10011800DA22DF50296F20EE0AF03A50D9263B50F8
:10012800DA22DF502A6F20EE0BF03A50D9263B50E6
:10013800DA22DF502B6F20EE0CF03A50D9263B50D4
:10014800DA22DF502C6F20EE0DF03A50D9263B50C2
:10015800DA22DF502D6F2087B4EF01F010B7B7EF28
:1001680000F0B9EF00F033EF01F020EE01F03A5063
:10017800D9263B50DA22DECF28F0DECF29F0DECFB9
:100188002AF0DECF2BF03AC0D9FF3BC0DAFFDF50B0
:100198002C6E3C0E2D6E000E2E6E3D0E2F6E000E38
:1001A800306E3E0E316E000E326E3F0E336E000E14
:1001B800346E90EC02F03CC013FF3DC014FF3EC00B
:1001C80011FF3FC012FF20EE05F03A50D9263B50F0
:1001D800DA22DF500F01156F20EE06F03A50D926CB
:1001E8003B50DA22DF50166F20EE07F03A50D9263E
:1001F8003B50DA22DF50176F20EE08F03A50D9262C
:100208003B50DA22DF50186F20EE09F03A50D92619
:100218003B50DA22DF50196F20EE0AF03A50D92607
:100228003B50DA22DF501A6F20EE0BF03A50D926F5
:100238003B50DA22DF501B6F20EE0CF03A50D926E3
:100248003B50DA22DF501C6F20EE0DF03A50D926D1
:100258003B50DA22DF501D6F1087B0EF00F000B777
:1002680038EF01F03AEF01F0B4EF01F020EE01F0C1
:100278003A50D9263B50DA22DECF28F0DECF29F0DB
:10028800DECF2AF0DECF2BF03AC0D9FF3BC0DAFF31
:10029800DF502C6E3C0E2D6E000E2E6E3D0E2F6E16
:1002A800000E306E3E0E316E000E326E3F0E336E13
:1002B800000E346E90EC02F03CC003FF3DC004FF1A
:1002C8003EC001FF3FC002FF20EE05F03A50D9269C
:1002D8003B50DA22DF500F01056F20EE06F03A504E
:1002E800D9263B50DA22DF50066F20EE07F03A504D
:1002F800D9263B50DA22DF50076F20EE08F03A503B
:10030800D9263B50DA22DF50086F20EE09F03A5028
:10031800D9263B50DA22DF50096F20EE0AF03A5016
:10032800D9263B50DA22DF500A6F20EE0BF03A5004
:10033800D9263B50DA22DF500B6F20EE0CF03A50F2
:10034800D9263B50DA22DF500C6F20EE0DF03A50E0
:10035800D9263B50DA22DF500D6F0087B0EF00F04E
:100368001200800E6F6E6E50E00B800AD8A4BFEFAB
:1003780001F0C1EF01F0B7EF01F0400E726E200EF0
:10038800706E000E0E017D6F000EFA6F000EFB6F8F
:10039800000EF86F000EF96F000EFE6F000EFF6F73
:1003A800000EFC6F000EFD6F000E466F000E476FCB
:1003B800000E796F000E7A6F000E7B6F000E7C6F57
:1003C800000E716F000E726F000E736F000E746F67
:1003D800000E756F000E766F000E776F000E786F47
:1003E800000EE26F000EE36F000EE06F000EE16F8B
:1003F800000EE66F000EE76F000EE46F000EE56F6B
:10040800000EEA6F000EEB6F000EE86F000EE96F4A
:10041800000EEE6F000EEF6F000EEC6F000EED6F2A
:10042800000EF26F000EF36F000EF06F000EF16F0A
:10043800000EF66F000EF76F000EF46F000EF56FEA
:10044800000E4A6F000E4B6F000E486F000E496F8A
:10045800000E4E6F000E4F6F000E4C6F000E4D6F6A
:10046800000E526F000E536F000E506F000E516F4A
:10047800000E566F000E576F000E546F000E556F2A
:10048800000E5A6F000E5B6F000E586F000E596F0A
:10049800000E5E6F000E5F6F000E5C6F000E5D6FEA
:1004A800000E626F000E636F000E606F000E616FCA
:1004B800000E666F000E676F000E646F000E656FAA
:1004C800000E6A6F000E6B6F000E686F000E696F8A
:1004D800000E6E6F000E6F6F000E6C6F000E6D6F6A
:1004E800130E436FA80E446F010E456F580E286E09
:1004F800080E296E25EC04F0779C768C000E6F6E42
:100508006ECF2AF0E00E2A16D8A48DEF02F08FEFF6
:1005180002F084EF02F01200020E2C18D8A497EF14
:1005280002F099EF02F01CEF03F02FC0D9FF30C0A2
:10053800DAFF28C0DFFF28C035F029C036F02AC00E
:1005480037F02BC038F036C035F037C036F038C039
:1005580037F0386A35C028F036C029F037C02AF09D
:1005680038C02BF02DC0D9FF2EC0DAFF28C0DFFF1E
:1005780028C035F029C036F02AC037F02BC038F033
:1005880036C035F037C036F038C037F0386A35C075
:1005980028F036C029F037C02AF038C02BF0285090
:1005A800030B396E28C035F029C036F02AC037F061
:1005B8002BC038F0030ED8903536363637363836F5
:1005C800E82EDFEF02F035C028F036C029F037C03A
:1005D8002AF038C02BF02850E00B3924396E3950F6
:1005E800080F396E3950EB0B33C0D9FF34C0DAFF2E
:1005F800DF6E28C035F029C036F02AC037F02BC08E
:1006080038F036C035F037C036F038C037F0386AC1
:1006180035C028F036C029F037C02AF038C02BF092
:1006280031C0D9FF32C0DAFF28C0DFFF49EF03F03D
:100638002DC0D9FF2EC0DAFF000EDF6E2FC0D9FF04
:1006480030C0DAFF000EDF6E28C035F029C036F062
:100658002AC037F02BC038F0050ED890353636361C
:1006680037363836E82E31EF03F035C028F036C07B
:1006780029F037C02AF038C02BF033C0D9FF34C076
:10068800DAFF28C0DFFFFDEF02F0120002EC04F0F1
:100698008B8C000E416E010E406EBCEC03F0000E18
:1006A800416E000E406ED1EC03F01A0E436E5E0EE2
:1006B800426E6E0EE82EFED7422EFCD7432EFAD796
:1006C80000D0000E416E000E406EBCEC03F0000E30
:1006D800416E010E406ED1EC03F01A0E436E5E0EB1
:1006E800426E6E0EE82EFED7422EFCD7432EFAD766
:1006F80000D04DEF03F026EF00F0080EA76E900E25
:10070800AB6E240EAC6E080EAF6E020E7D6E000E40
:10071800286E000E296E1BEC04F0000E286E000EE9
:10072800296E16EC04F0000E286E000E296E20ECDF
:1007380004F0000E096E1200000E8D6E000E8C6E15
:10074800000E896E000E8A6E000E8B6E070E966E76
:10075800CF0E926EFB0E936EBF0E946E9568F00EE0
:100768000F015D6F670E5C6F000E5B6FF18E1200FC
:10077800010E186E020E196E000E1A6E000E1B6E18
:10078800000E1C6E010E1D6E40C01EF0180E3A6E53
:10079800000E3B6E28EC00F01200010E0A6E030EEC
:1007A8000B6E000E0C6E000E0D6E000E0E6E010E1E
:1007B8000F6E40C010F00A0E3A6E000E3B6E28EC29
:1007C80000F0120002D8F3EF03F00500FA6E0750AC
:1007D800FD6E0850FE6EF850FF6EFA501200779CBE
:1007E800120000EE01F0250EEE6AE806FDE14A90DF
:1007F8004A92000EF86E00014AEF03F02AEC04F06A
:10080800A0EC03F00DEC04F081EC03F0B5EC01F082
:100818001200600ED36E000ED26E000E9B6E000E9C
:100828009A6E120028C046F029C047F0120028C06E
:1008380048F029C049F0120028C044F029C045F00A
:10084800120028C007F029C008F01200D09E12003C
:0208580012008C
:020000040020DA
:08000000FFFFFFFFFFFFFFFF00
:020000040030CA
:0E00000015027F7CFF8991FF0FC00FE00F40BB
:00000001FF
