:0400000026EF00F0F7
:100008003882FACF1FF0FBCF20F0F2AC0EEF00F0F1
:1000180010EF00F020EF00F076AC15EF00F017EFCE
:1000280000F020EF00F077AC1CEF00F01EEF00F0BE
:1000380020EF00F05DEC03F020C0FBFF1FC0FAFFCB
:10004800389211006CEF03F0000E366E60AE2FEFA1
:1000580000F031EF00F0BDEF00F062A636EF00F0DF
:1000680038EF00F057EF00F034C0D9FF35C0DAFFA1
:10007800020EDF6E64CF21F061CF22F062CF23F051
:10008800635024EC02F020EE01F03450D9263550AC
:10009800DA2221C0DEFF22C0DEFF23C0DEFF24C03B
:1000A800DEFF70EF00F034C0D9FF35C0DAFF010E73
:1000B800DF6E62CF21F0615006EC03F020EE01F014
:1000C8003450D9263550DA2221C0DEFF22C0DEFFA7
:1000D80023C0DEFF24C0DEFF20EE05F03450D92611
:1000E8003550DA2265CFDFFF20EE06F03450D926EE
:1000F8003550DA2266CFDFFF20EE07F03450D926DC
:100108003550DA2267CFDFFF20EE08F03450D926C9
:100118003550DA2268CFDFFF20EE09F03450D926B7
:100128003550DA2269CFDFFF20EE0AF03450D926A5
:100138003550DA226ACFDFFF20EE0BF03450D92693
:100148003550DA226BCFDFFF20EE0CF03450D92681
:100158003550DA226CCFDFFF20EE0DF03450D9266F
:100168003550DA226DCFDFFF609E010E366E50EFFC
:1001780001F00F0130AFC3EF00F0C5EF00F050EF12
:1001880001F032A7CAEF00F0CCEF00F0EBEF00F07F
:1001980034C0D9FF35C0DAFF020EDF6E34CF21F04C
:1001A80031CF22F032CF23F0335124EC02F020EE8D
:1001B80001F03450D9263550DA2221C0DEFF22C0A2
:1001C800DEFF23C0DEFF24C0DEFF04EF01F034C0F1
:1001D800D9FF35C0DAFF010EDF6E32CF21F0315181
:1001E80006EC03F020EE01F03450D9263550DA221F
:1001F80021C0DEFF22C0DEFF23C0DEFF24C0DEFFF9
:1002080020EE05F03450D9263550DA2235CFDFFFFD
:1002180020EE06F03450D9263550DA2236CFDFFFEB
:1002280020EE07F03450D9263550DA2237CFDFFFD9
:1002380020EE08F03450D9263550DA2238CFDFFFC7
:1002480020EE09F03450D9263550DA2239CFDFFFB5
:1002580020EE0AF03450D9263550DA223ACFDFFFA3
:1002680020EE0BF03450D9263550DA223BCFDFFF91
:1002780020EE0CF03450D9263550DA223CCFDFFF7F
:1002880020EE0DF03450D9263550DA223DCFDFFF6D
:100298000F01309FB9EF00F036501200800E6F6EDC
:1002A8006E50E00B800AD8A45CEF01F05EEF01F01D
:1002B80054EF01F0400E726E200E706E000E0E01AB
:1002C8007D6FFA69FB69F869E30EF96FFE69FF69EA
:1002D800FC69E30EFD6F010E466F000E476F000EBE
:1002E800796F000E7A6F000E7B6F000E7C6F000E28
:1002F800716F000E726F000E736F000E746F000E38
:10030800756F000E766F000E776F000E786F000E17
:10031800E26F000EE36F240EE06F600EE16F000ED7
:10032800E66F000EE76F000EE46F000EE56F000E3B
:10033800EA6F000EEB6F000EE86F000EE96F000E1B
:10034800EE6F000EEF6F000EEC6F000EED6F000EFB
:10035800F26F000EF36F000EF06F000EF16F000EDB
:10036800F66F000EF76F000EF46F000EF56F000EBB
:100378004A6F000E4B6F000E486F000E496F000E5B
:100388004E6F000E4F6F000E4C6F000E4D6F000E3B
:10039800526F000E536F000E506F000E516F000E1B
:1003A800566F000E576F000E546F000E556F000EFB
:1003B8005A6F000E5B6F000E586F000E596F000EDB
:1003C8005E6F000E5F6F000E5C6F000E5D6F000EBB
:1003D800626F000E636F000E606F000E616F000E9B
:1003E800666F000E676F000E646F000E656F000E7B
:1003F8006A6F000E6B6F000E686F000E696F6E6992
:100408006F696C69E30E6D6F070E436FA80E446F3A
:10041800010E456F240E216E070E226E8BEC03F041
:10042800779C768C000E6F6E6ECF23F0E00E23164D
:10043800D8A421EF02F023EF02F018EF02F0120027
:10044800296E000E306E000E316E000E326E000EF8
:10045800336E2350030B2E6E2338E842070B2F6EA2
:100468002250256E266AD89025362636D89025360D
:100478002636D8902536263625C030F026C031F0ED
:10048800000E31BEFF0E326E336E2F503024306EA8
:10049800000E3120316E000E3220326E000E3320F5
:1004A800336E30C025F031C026F032C027F033C09B
:1004B80028F0020ED8902536263627362836E82E1C
:1004C8005EEF02F025C030F026C031F027C032F0D0
:1004D80028C033F02E503024306E000E3120316E9B
:1004E800000E3220326E000E3320336E30C026F0FC
:1004F80031C027F032C028F0256A25C030F026C068
:1005080031F027C032F028C033F029503024306E43
:10051800000E3120316E000E3220326E000E332074
:10052800336E30C026F031C027F032C028F0256A7B
:1005380025C030F026C031F027C032F028C033F093
:1005480021503024306E000E3120316E000E3220E2
:10055800326E000E3320336E30C02AF031C02BF0DB
:1005680032C02CF033C02DF02AC021F02BC022F06D
:100578002CC023F02DC024F0120079EC03F0030EF8
:10058800346E000E356E28EC00F00009D8B4CFEFB9
:1005980002F0D1EF02F0C3EF02F00304D8A4D7EFC2
:1005A80002F0D9EF02F0C3EF02F0230E041808E1BD
:1005B800050406100710D8A4E4EF02F0E6EF02F0F5
:1005C80002EF03F08CB4EBEF02F0EEEF02F0010E55
:1005D800EFEF02F0000EFF0A376E374637468C50B1
:1005E8003718FB0B37188C6E070E376E7D0EE82E0A
:1005F800FED7372EFCD700F0C3EF02F0C3EF02F0AE
:1006080026EF00F0276E2750256E266AD8902536EB
:100618002636D89025362636D8902536263625C053
:100628002CF026C02DF0000E2DBEFF0E2E6E2F6E64
:1006380021C025F0050E266ED8902532262E20EFF3
:1006480003F025502C242C6E000E2D202D6E000E4C
:100658002E202E6E000E2F202F6E2CC028F02DC0BD
:1006680029F02EC02AF02FC02BF028C021F029C075
:1006780022F02AC023F02BC024F01200000E8D6E49
:10068800000E8C6E000E896E000E8A6E000E8B6E48
:10069800070E966EEF0E926E9368BF0E946EFB0E69
:1006A800956E0F015D697F0E5C6F000E5B6FF18EBA
:1006B800120002D86AEF03F00500FA6E0150FD6ED1
:1006C8000250FE6EF850FF6EFA501200779C12002E
:1006D80000EE01F01E0EEE6AE806FDE13890389251
:1006E800000EF86E0001C1EF02F090EC03F042EC4E
:1006F80003F082EC03F052EC01F01200600ED36EAE
:10070800000ED26E000E9B6E000E9A6E120021C073
:0E07180001F022C002F01200D09E120012006A
:020000040020DA
:08000000FFFFFFFFFFFFFFFF00
:020000040030CA
:0E00000015027F7CFF8891FF0FC00FE00F40BC
:00000001FF
