:0400000026EF00F0F7
:100008005A82FACF38F0FBCF39F0F2AC0EEF00F09D
:1000180010EF00F020EF00F076AC15EF00F017EFCE
:1000280000F020EF00F077AC1CEF00F01EEF00F0BE
:1000380020EF00F03FEC0DF039C0FBFF38C0FAFFAD
:100048005A9211002CEF0DF059EC0DF08B8C1A0E12
:10005800556E5E0E546E6E0EE82EFED7542EFCD7EB
:10006800552EFAD700D036EC0CF00D0E556EAF0EAB
:10007800546EB60EE82EFED7542EFCD7552EFAD75E
:1000880000D0000E0001C36F000EC26F000EC56FD6
:10009800000EC46F0001C24BC32B020E556E450EF5
:1000A800546EAA0EE82EFED7542EFCD7552EFAD73A
:1000B8002E502F10D8B463EF00F065EF00F0A0EFDA
:1000C80000F003500410D8A46CEF00F06EEF00F0BD
:1000D800A0EF00F017501810D8A475EF00F077EFD4
:1000E80000F0A0EF00F013501410D8A47EEF00F039
:1000F80080EF00F0A0EF00F0000E026E010E016E1E
:10010800000E536E010E526EEAEC0CF0070E546EA0
:100118007D0EE82EFED7542EFCD700F0000E3C6E64
:10012800010E3B6E8AEC09F0070E546E7D0EE82E28
:10013800FED7542EFCD700F036503710D8B4A7EFAE
:1001480000F0A9EF00F0E4EF00F019501A10D8A45D
:10015800B0EF00F0B2EF00F0E4EF00F0135014102D
:10016800D8A4B9EF00F0BBEF00F0E4EF00F00150C5
:100178000210D8A4C2EF00F0C4EF00F0E4EF00F0E2
:10018800000E186E010E176E000E536E010E526EA1
:1001980000EC0DF0070E546E7D0EE82EFED7542E9F
:1001A800FCD700F0000E3C6E010E3B6E6EEC0AF0C0
:1001B800070E546E7D0EE82EFED7542EFCD700F0A5
:1001C80032503310D8B4EBEF00F0EDEF00F056EFFB
:1001D80001F015501610D8A4F4EF00F0F6EF00F077
:1001E80056EF01F0000E146E010E136E000E186E1D
:1001F800000E176E000E026E000E016E000E536E9A
:10020800000E526E00EC0DF0070E546E7D0EE82EB7
:10021800FED7542EFCD700F0000E536E000E526E1F
:10022800EAEC0CF0070E546E7D0EE82EFED7542E25
:10023800FCD700F0000E3C6E000E3B6E6EEC0AF030
:10024800070E546E7D0EE82EFED7542EFCD700F014
:10025800000E3C6E000E3B6E8AEC09F0070E546EE1
:100268007D0EE82EFED7542EFCD700F0000E536EFC
:10027800010E526E16EC0DF0070E546E7D0EE82E30
:10028800FED7542EFCD700F0000E3C6E010E3B6EDC
:10029800BAEC0AF0070E546E7D0EE82EFED7542EE7
:1002A800FCD700F02E502F10D8A45DEF01F05FEFBF
:1002B80001F088EF01F003500410D8B466EF01F0A4
:1002C80068EF01F088EF01F0000E026E000E016E7B
:1002D800000E536E000E526EEAEC0CF0070E546ED0
:1002E8007D0EE82EFED7542EFCD700F0000E3C6E93
:1002F800000E3B6E8AEC09F0070E546E7D0EE82E58
:10030800FED7542EFCD700F036503710D8A48FEF04
:1003180001F091EF01F0BAEF01F019501A10D8B4BA
:1003280098EF01F09AEF01F0BAEF01F0000E186EA5
:10033800000E176E000E536E000E526E00EC0DF09C
:10034800070E546E7D0EE82EFED7542EFCD700F013
:10035800000E3C6E000E3B6E6EEC0AF0070E546EFB
:100368007D0EE82EFED7542EFCD700F03250331005
:10037800D8A4C1EF01F0C3EF01F0ECEF01F0155084
:100388001610D8B4CAEF01F0CCEF01F0ECEF01F091
:10039800000E146E000E136E000E536E000E526E99
:1003A80016EC0DF0070E546E7D0EE82EFED7542E77
:1003B800FCD700F0000E3C6E000E3B6EBAEC0AF063
:1003C800070E546E7D0EE82EFED7542EFCD700F093
:1003D80036C019F037C01AF032C015F033C016F025
:1003E8002EC003F02FC004F0360E3A6E000E3B6E9E
:1003F800340E3C6E000E3D6E4EEC08F02E0E3A6E3A
:10040800000E3B6E2C0E3C6E000E3D6ED6EC07F0D7
:10041800320E3A6E000E3B6E300E3C6E000E3D6E94
:10042800C6EC08F00001C3BF23EF02F0C35109E195
:100438000A0EC25DD8A023EF02F025EF02F03CEFD0
:1004480002F0C42908E1C529D8B42DEF02F02FEF36
:1004580002F03CEF02F0000EC36F000EC26FC4C082
:100468003BF0C5C03CF0D6EC09F00001C44BC52BED
:100478001E0E4D6E000E4E6E83EC04F00009D8B4CB
:1004880048EF02F04AEF02F04EEF00F01E04D8A445
:1004980050EF02F052EF02F04EEF00F0F40E1F188A
:1004A8000BE1020E201821102210D8B45EEF02F0E2
:1004B80060EF02F098EF02F0F40E1F180BE1040E43
:1004C800201821102210D8B46CEF02F06EEF02F061
:1004D80098EF02F0F40E1F180BE1050E20182110FA
:1004E8002210D8B47AEF02F07CEF02F098EF02F015
:1004F800F40E1F180BE1070E201821102210D8B493
:1005080088EF02F08AEF02F098EF02F0F40E1F185D
:1005180009E1080E201821102210D8A496EF02F045
:1005280098EF02F0A6EF02F0070E546E7D0EE82E4B
:10053800FED7542EFCD700F0000E3C6E010E3B6E29
:100548003EEC09F0800E1F18201021102210D8A4AC
:10055800B0EF02F0B2EF02F0D8EF02F02404D8A412
:10056800B8EF02F0BAEF02F0CAEF02F0070E546ECD
:100578007D0EE82EFED7542EFCD700F0000E3C6E00
:10058800010E3B6EEAEC0BF0D8EF02F0070E546E4A
:100598007D0EE82EFED7542EFCD700F0000E3C6EE0
:1005A800000E3B6EEAEC0BF0810E1F182010211094
:1005B8002210D8A4E2EF02F0E4EF02F0F2EF02F02A
:1005C800070E546E7D0EE82EFED7542EFCD700F091
:1005D80024C0C4F00001C56B4EEF00F04EEF00F0F0
:1005E80026EF00F0000E4E6E000E4F6E000E506E9D
:1005F800000E516E0F0120B704EF03F006EF03F071
:1006080080EF03F020EE01F04C50D9264D50DA224D
:10061800DECF3AF0DECF3BF0DECF3CF0DECF3DF070
:100628004CC0D9FF4DC0DAFFDF503E6E4E0E3F6E14
:10063800000E406E4F0E416E000E426E500E436E1D
:10064800000E446E510E456E000E466E7FEC06F0AD
:100658004EC023FF4FC024FF50C021FF51C022FFCE
:1006680020EE05F04C50D9264D50DA22DF500F010C
:10067800256F20EE06F04C50D9264D50DA22DF5077
:10068800266F20EE07F04C50D9264D50DA22DF5065
:10069800276F20EE08F04C50D9264D50DA22DF5053
:1006A800286F20EE09F04C50D9264D50DA22DF5041
:1006B800296F20EE0AF04C50D9264D50DA22DF502F
:1006C8002A6F20EE0BF04C50D9264D50DA22DF501D
:1006D8002B6F20EE0CF04C50D9264D50DA22DF500B
:1006E8002C6F20EE0DF04C50D9264D50DA22DF50F9
:1006F8002D6F208782EF04F010B785EF03F087EFA6
:1007080003F001EF04F020EE01F04C50D9264D50D3
:10071800DA22DECF3AF0DECF3BF0DECF3CF0DECFA0
:100728003DF04CC0D9FF4DC0DAFFDF503E6E4E0E93
:100738003F6E000E406E4F0E416E000E426E500E20
:10074800436E000E446E510E456E000E466E7FECF1
:1007580006F04EC013FF4FC014FF50C011FF51C028
:1007680012FF20EE05F04C50D9264D50DA22DF500A
:100778000F01156F20EE06F04C50D9264D50DA22A5
:10078800DF50166F20EE07F04C50D9264D50DA2274
:10079800DF50176F20EE08F04C50D9264D50DA2262
:1007A800DF50186F20EE09F04C50D9264D50DA2250
:1007B800DF50196F20EE0AF04C50D9264D50DA223E
:1007C800DF501A6F20EE0BF04C50D9264D50DA222C
:1007D800DF501B6F20EE0CF04C50D9264D50DA221A
:1007E800DF501C6F20EE0DF04C50D9264D50DA2208
:1007F800DF501D6F10877EEF03F000B706EF04F09F
:1008080008EF04F082EF04F020EE01F04C50D926F6
:100818004D50DA22DECF3AF0DECF3BF0DECF3CF0AF
:10082800DECF3DF04CC0D9FF4DC0DAFFDF503E6E41
:100838004E0E3F6E000E406E4F0E416E000E426E21
:10084800500E436E000E446E510E456E000E466EFD
:100858007FEC06F04EC003FF4FC004FF50C001FFFD
:1008680051C002FF20EE05F04C50D9264D50DA2237
:10087800DF500F01056F20EE06F04C50D9264D5081
:10088800DA22DF50066F20EE07F04C50D9264D5083
:10089800DA22DF50076F20EE08F04C50D9264D5071
:1008A800DA22DF50086F20EE09F04C50D9264D505F
:1008B800DA22DF50096F20EE0AF04C50D9264D504D
:1008C800DA22DF500A6F20EE0BF04C50D9264D503B
:1008D800DA22DF500B6F20EE0CF04C50D9264D5029
:1008E800DA22DF500C6F20EE0DF04C50D9264D5017
:1008F800DA22DF500D6F00877EEF03F01200000E42
:100908004F6E60AE8AEF04F08CEF04F018EF05F03C
:1009180062A691EF04F093EF04F0B2EF04F04DC03B
:10092800D9FF4EC0DAFF020EDF6E64CF3AF061CF16
:100938003BF062CF3CF0635039EC07F020EE01F059
:100948004D50D9264E50DA223AC0DEFF3BC0DEFFBA
:100958003CC0DEFF3DC0DEFFCBEF04F04DC0D9FF49
:100968004EC0DAFF010EDF6E62CF3AF0615073ECD1
:100978000CF020EE01F04D50D9264E50DA223AC044
:10098800DEFF3BC0DEFF3CC0DEFF3DC0DEFF20EEE9
:1009980005F04D50D9264E50DA2265CFDFFF20EE04
:1009A80006F04D50D9264E50DA2266CFDFFF20EEF2
:1009B80007F04D50D9264E50DA2267CFDFFF20EEE0
:1009C80008F04D50D9264E50DA2268CFDFFF20EECE
:1009D80009F04D50D9264E50DA2269CFDFFF20EEBC
:1009E8000AF04D50D9264E50DA226ACFDFFF20EEAA
:1009F8000BF04D50D9264E50DA226BCFDFFF20EE98
:100A08000CF04D50D9264E50DA226CCFDFFF20EE85
:100A18000DF04D50D9264E50DA226DCFDFFF609E83
:100A2800010E4F6EABEF05F00F0130AF1EEF05F072
:100A380020EF05F0ABEF05F032A725EF05F027EF23
:100A480005F046EF05F04DC0D9FF4EC0DAFF020EA3
:100A5800DF6E34CF3AF031CF3BF032CF3CF0335138
:100A680039EC07F020EE01F04D50D9264E50DA222D
:100A78003AC0DEFF3BC0DEFF3CC0DEFF3DC0DEFF0C
:100A88005FEF05F04DC0D9FF4EC0DAFF010EDF6EF3
:100A980032CF3AF0315173EC0CF020EE01F04D50AA
:100AA800D9264E50DA223AC0DEFF3BC0DEFF3CC0FA
:100AB800DEFF3DC0DEFF20EE05F04D50D9264E503A
:100AC800DA2235CFDFFF20EE06F04D50D9264E5002
:100AD800DA2236CFDFFF20EE07F04D50D9264E50F0
:100AE800DA2237CFDFFF20EE08F04D50D9264E50DE
:100AF800DA2238CFDFFF20EE09F04D50D9264E50CC
:100B0800DA2239CFDFFF20EE0AF04D50D9264E50B9
:100B1800DA223ACFDFFF20EE0BF04D50D9264E50A7
:100B2800DA223BCFDFFF20EE0CF04D50D9264E5095
:100B3800DA223CCFDFFF20EE0DF04D50D9264E5083
:100B4800DA223DCFDFFF0F01309F14EF05F04F5041
:100B58001200800E6F6E6E50E00B800AD8A4B7EFBB
:100B680005F0B9EF05F0AFEF05F0400E726E200EFC
:100B7800706E000E0E017D6FFA69FB69F869E30E6D
:100B8800F96FFE69FF69FC69E30EFD6F010E466FA0
:100B9800000E476F000E796F000E7A6F000E7B6FA4
:100BA800000E7C6F000E716F000E726F000E736F77
:100BB800000E746F000E756F000E766F000E776F63
:100BC800000E786F000EE26F000EE36F020EE06F0A
:100BD800C00EE16F000EE66F000EE76F000EE46FC7
:100BE800000EE56F000EEA6F000EEB6F000EE86F67
:100BF800000EE96F000EEE6F000EEF6F000EEC6F47
:100C0800000EED6F000EF26F000EF36F000EF06F26
:100C1800000EF16F000EF66F000EF76F000EF46F06
:100C2800000EF56F000E4A6F000E4B6F000E486FF6
:100C3800000E496F000E4E6F000E4F6F000E4C6F86
:100C4800000E4D6F000E526F000E536F000E506F66
:100C5800000E516F000E566F000E576F000E546F46
:100C6800000E556F000E5A6F000E5B6F000E586F26
:100C7800000E596F000E5E6F000E5F6F000E5C6F06
:100C8800000E5D6F000E626F000E636F000E606FE6
:100C9800000E616F000E666F000E676F000E646FC6
:100CA800000E656F000E6A6F000E6B6F000E686FA6
:100CB800000E696F6E696F696C69E30E6D6F130ED4
:100CC800436FA80E446F010E456F060E3A6E1B0E59
:100CD8003B6E7CEC0DF0779C768C000E6F6E6ECFC1
:100CE8003CF0E00E3C16D8A47CEF06F07EEF06F050
:100CF80073EF06F01200020E3E18D8A486EF06F035
:100D080088EF06F00BEF07F041C0D9FF42C0DAFFC9
:100D18003AC0DFFF3AC047F03BC048F03CC049F05A
:100D28003DC04AF048C047F049C048F04AC049F0C1
:100D38004A6A47C03AF048C03BF049C03CF04AC054
:100D48003DF03FC0D9FF40C0DAFF3AC0DFFF3AC0EC
:100D580047F03BC048F03CC049F03DC04AF048C0AD
:100D680047F049C048F04AC049F04A6A47C03AF0DB
:100D780048C03BF049C03CF04AC03DF03A50030B34
:100D88004B6E3AC047F03BC048F03CC049F03DC00C
:100D98004AF0030ED8904736483649364A36E82E88
:100DA800CEEF06F047C03AF048C03BF049C03CF0EF
:100DB8004AC03DF03A50E00B4B244B6E4B50080FA5
:100DC8004B6E4B50EB0B45C0D9FF46C0DAFFDF6EC8
:100DD8003AC047F03BC048F03CC049F03DC04AF03B
:100DE80048C047F049C048F04AC049F04A6A47C07D
:100DF8003AF048C03BF049C03CF04AC03DF043C01F
:100E0800D9FF44C0DAFF3AC0DFFF38EF07F03FC030
:100E1800D9FF40C0DAFF000EDF6E41C0D9FF42C0E3
:100E2800DAFF000EDF6E3AC047F03BC048F03CC026
:100E380049F03DC04AF0050ED89047364836493645
:100E48004A36E82E20EF07F047C03AF048C03BF09A
:100E580049C03CF04AC03DF045C0D9FF46C0DAFF62
:100E68003AC0DFFFECEF06F01200426E000E496E4A
:100E7800000E4A6E000E4B6E000E4C6E3C50030B7B
:100E8800476E3C38E842070B486E3B503E6E3F6A5F
:100E9800D8903E363F36D8903E363F36D8903E36CC
:100EA8003F363EC049F03FC04AF0000E4ABEFF0E32
:100EB8004B6E4C6E48504924496E000E4A204A6ECB
:100EC800000E4B204B6E000E4C204C6E49C03EF07D
:100ED8004AC03FF04BC040F04CC041F0020ED890E1
:100EE8003E363F3640364136E82E73EF07F03EC0B7
:100EF80049F03FC04AF040C04BF041C04CF0475069
:100F08004924496E000E4A204A6E000E4B204B6E53
:100F1800000E4C204C6E49C03FF04AC040F04BC018
:100F280041F03E6A3EC049F03FC04AF040C04BF035
:100F380041C04CF042504924496E000E4A204A6E86
:100F4800000E4B204B6E000E4C204C6E49C03FF0FB
:100F58004AC040F04BC041F03E6A3EC049F03FC035
:100F68004AF040C04BF041C04CF03A504924496E19
:100F7800000E4A204A6E000E4B204B6E000E4C208D
:100F88004C6E49C043F04AC044F04BC045F04CC0D9
:100F980046F043C03AF044C03BF045C03CF046C080
:100FA8003DF0120030EF08F03CC0D9FF3DC0DAFF39
:100FB800000EDE6E000EDD6E4DEF08F03AC0D9FF70
:100FC8003BC0DAFF010EDE6E000EDD6E10EF08F09A
:100FD8003AC0D9FF3BC0DAFF000EDE6E000EDD6EB0
:100FE80010EF08F03AC0D9FF3BC0DAFFDECF3EF081
:100FF800DDCF3FF03F50000AD8B405EF08F010EFFE
:1010080008F03E50000AD8B4E2EF07F0010AD8B45D
:10101800ECEF07F010EF08F03CC0D9FF3DC0DAFF55
:10102800010EDE6E000EDD6E4DEF08F03CC0D9FFFC
:101038003DC0DAFFDECF3EF0DDCF3FF03F50000A83
:10104800D8B429EF08F04DEF08F03E50000AD8B4A4
:10105800F6EF07F04DEF08F082B235EF08F038EF01
:1010680008F0010E39EF08F0000E3E6E3F6A3F505F
:10107800000AD8B442EF08F04DEF08F03E50000ADD
:10108800D8B4D8EF07F0010AD8B41AEF08F04DEF3A
:1010980008F01200A8EF08F03CC0D9FF3DC0DAFF05
:1010A800000EDE6E000EDD6EC5EF08F03AC0D9FF07
:1010B8003BC0DAFF010EDE6E000EDD6E88EF08F031
:1010C8003AC0D9FF3BC0DAFF000EDE6E000EDD6EBF
:1010D80088EF08F03AC0D9FF3BC0DAFFDECF3EF018
:1010E800DDCF3FF03F50000AD8B47DEF08F088EF1D
:1010F80008F03E50000AD8B45AEF08F0010AD8B4F4
:1011080064EF08F088EF08F03CC0D9FF3DC0DAFF73
:10111800010EDE6E000EDD6EC5EF08F03CC0D9FF93
:101128003DC0DAFFDECF3EF0DDCF3FF03F50000A92
:10113800D8B4A1EF08F0C5EF08F03E50000AD8B4C3
:101148006EEF08F0C5EF08F080B0ADEF08F0B0EF33
:1011580008F0010EB1EF08F0000E3E6E3F6A3F50F6
:10116800000AD8B4BAEF08F0C5EF08F03E50000AFC
:10117800D8B450EF08F0010AD8B492EF08F0C5EFE0
:1011880008F0120020EF09F03CC0D9FF3DC0DAFF9B
:10119800000EDE6E000EDD6E3DEF09F03AC0D9FF9D
:1011A8003BC0DAFF010EDE6E000EDD6E00EF09F0C7
:1011B8003AC0D9FF3BC0DAFF000EDE6E000EDD6ECE
:1011C80000EF09F03AC0D9FF3BC0DAFFDECF3EF0AE
:1011D800DDCF3FF03F50000AD8B4F5EF08F000EF3C
:1011E80009F03E50000AD8B4D2EF08F0010AD8B48A
:1011F800DCEF08F000EF09F03CC0D9FF3DC0DAFF92
:10120800010EDE6E000EDD6E3DEF09F03CC0D9FF29
:101218003DC0DAFFDECF3EF0DDCF3FF03F50000AA1
:10122800D8B419EF09F03DEF09F03E50000AD8B4E0
:10123800E6EF08F03DEF09F080B225EF09F028EF5E
:1012480009F0010E29EF09F0000E3E6E3F6A3F508B
:10125800000AD8B432EF09F03DEF09F03E50000A19
:10126800D8B4C8EF08F0010AD8B40AEF09F03DEF86
:1012780009F01200000E416E2E0E406E000E436EF5
:10128800020E426E000E456E000E446E2D0E3B1887
:101298003E6E3C503F6E010E4EEC0DF0410E3D6E21
:1012A800EE0EE82EFED73D2EFCD700D02E0E4EECCB
:1012B8000DF0410E3D6EEE0EE82EFED73D2EFCD70A
:1012C80000D0020E4EEC0DF0410E3D6EEE0EE82EF3
:1012D800FED73D2EFCD700D0000E4EEC0DF0410E8F
:1012E8003D6EEE0EE82EFED73D2EFCD700D03B50CB
:1012F8004EEC0DF0410E3D6EEE0EE82EFED73D2E63
:10130800FCD700D03E504EEC0DF01200000E416E9E
:10131800130E406E000E436E010E426E000E456EB7
:10132800000E446E130E3B183E6E3C503F6E010E8D
:101338004EEC0DF0410E3D6EEE0EE82EFED73D2E22
:10134800FCD700D0130E4EEC0DF0410E3D6EEE0EA4
:10135800E82EFED73D2EFCD700D0010E4EEC0DF046
:10136800410E3D6EEE0EE82EFED73D2EFCD700D086
:10137800000E4EEC0DF0410E3D6EEE0EE82EFED73F
:101388003D2EFCD700D03B504EEC0DF0410E3D6E8B
:10139800EE0EE82EFED73D2EFCD700D03E504EEC88
:1013A8000DF01200000E416E0F0E406E000E436EDF
:1013B800000E426E000E456E000E446E0E0E3B1877
:1013C8003E6E3C503F6E010E4EEC0DF0410E3D6EF0
:1013D800EE0EE82EFED73D2EFCD700D00F0E4EECB9
:1013E8000DF0410E3D6EEE0EE82EFED73D2EFCD7D9
:1013F80000D0000E4EEC0DF0410E3D6EEE0EE82EC4
:10140800FED73D2EFCD700D0000E4EEC0DF0410E5D
:101418003D6EEE0EE82EFED73D2EFCD700D03B5099
:101428004EEC0DF0410E3D6EEE0EE82EFED73D2E31
:10143800FCD700D03E504EEC0DF01200000E416E6D
:101448000F0E406E000E436E010E426E000E456E8A
:10145800000E446E0F0E3B183E6E3C503F6E010E60
:101468004EEC0DF0410E3D6EEE0EE82EFED73D2EF1
:10147800FCD700D00F0E4EEC0DF0410E3D6EEE0E77
:10148800E82EFED73D2EFCD700D0010E4EEC0DF015
:10149800410E3D6EEE0EE82EFED73D2EFCD700D055
:1014A800000E4EEC0DF0410E3D6EEE0EE82EFED70E
:1014B8003D2EFCD700D03B504EEC0DF0410E3D6E5A
:1014C800EE0EE82EFED73D2EFCD700D03E504EEC57
:1014D8000DF01200000E416E130E406E000E436EAA
:1014E800000E426E000E456E000E446E120E3B1842
:1014F8003E6E3C503F6E010E4EEC0DF0410E3D6EBF
:10150800EE0EE82EFED73D2EFCD700D0130E4EEC83
:101518000DF0410E3D6EEE0EE82EFED73D2EFCD7A7
:1015280000D0000E4EEC0DF0410E3D6EEE0EE82E92
:10153800FED73D2EFCD700D0000E4EEC0DF0410E2C
:101548003D6EEE0EE82EFED73D2EFCD700D03B5068
:101558004EEC0DF0410E3D6EEE0EE82EFED73D2E00
:10156800FCD700D03E504EEC0DF01200000E416E3C
:10157800130E406E000E436E020E426E000E456E54
:10158800000E446E100E3B183E6E3C503F6E010E2E
:101598004EEC0DF0410E3D6EEE0EE82EFED73D2EC0
:1015A800FCD700D0130E4EEC0DF0410E3D6EEE0E42
:1015B800E82EFED73D2EFCD700D0020E4EEC0DF0E3
:1015C800410E3D6EEE0EE82EFED73D2EFCD700D024
:1015D800000E4EEC0DF0410E3D6EEE0EE82EFED7DD
:1015E8003D2EFCD700D03B504EEC0DF0410E3D6E29
:1015F800EE0EE82EFED73D2EFCD700D03E504EEC26
:101608000DF01200000E416E0F0E406E000E436E7C
:10161800020E426E000E456E000E446E0C0E3B1814
:101628003E6E3C503F6E010E4EEC0DF0410E3D6E8D
:10163800EE0EE82EFED73D2EFCD700D00F0E4EEC56
:101648000DF0410E3D6EEE0EE82EFED73D2EFCD776
:1016580000D0020E4EEC0DF0410E3D6EEE0EE82E5F
:10166800FED73D2EFCD700D0000E4EEC0DF0410EFB
:101678003D6EEE0EE82EFED73D2EFCD700D03B5037
:101688004EEC0DF0410E3D6EEE0EE82EFED73D2ECF
:10169800FCD700D03E504EEC0DF01200000E416E0B
:1016A8000F0E406E000E436E030E426E000E456E26
:1016B800000E446E0D0E3B183E6E3C503F6E010E00
:1016C8004EEC0DF0410E3D6EEE0EE82EFED73D2E8F
:1016D800FCD700D00F0E4EEC0DF0410E3D6EEE0E15
:1016E800E82EFED73D2EFCD700D0030E4EEC0DF0B1
:1016F800410E3D6EEE0EE82EFED73D2EFCD700D0F3
:10170800000E4EEC0DF0410E3D6EEE0EE82EFED7AB
:101718003D2EFCD700D03B504EEC0DF0410E3D6EF7
:10172800EE0EE82EFED73D2EFCD700D03E504EECF4
:101738000DF01200000E416E280E406E000E436E32
:10174800010E426E000E456E000E446E280E3B18C8
:101758003E6E3C503F6E010E4EEC0DF0410E3D6E5C
:10176800EE0EE82EFED73D2EFCD700D0280E4EEC0C
:101778000DF0410E3D6EEE0EE82EFED73D2EFCD745
:1017880000D0010E4EEC0DF0410E3D6EEE0EE82E2F
:10179800FED73D2EFCD700D0000E4EEC0DF0410ECA
:1017A8003D6EEE0EE82EFED73D2EFCD700D03B5006
:1017B8004EEC0DF0410E3D6EEE0EE82EFED73D2E9E
:1017C800FCD700D03E504EEC0DF01200000E416EDA
:1017D8002E0E406E000E436E010E426E000E456ED8
:1017E800000E446E2E0E3B183E6E3C503F6E010EAE
:1017F8004EEC0DF0410E3D6EEE0EE82EFED73D2E5E
:10180800FCD700D02E0E4EEC0DF0410E3D6EEE0EC4
:10181800E82EFED73D2EFCD700D0010E4EEC0DF081
:10182800410E3D6EEE0EE82EFED73D2EFCD700D0C1
:10183800000E4EEC0DF0410E3D6EEE0EE82EFED77A
:101848003D2EFCD700D03B504EEC0DF0410E3D6EC6
:10185800EE0EE82EFED73D2EFCD700D03E504EECC3
:101868000DF01200000E3C6E000E3B6E6EEC0AF09E
:10187800000E3C6E000E3B6E8AEC09F0000E3C6ECA
:10188800000E3B6EBAEC0AF0000E3C6E000E3B6E8A
:101898009EEC0BF0000E3C6E000E3B6E52EC0BF013
:1018A800000E3C6E000E3B6E06EC0BF0000E3C6E1C
:1018B800000E3B6E3EEC09F0000E3C6E000E3B6ED7
:1018C800EAEC0BF0000E3C6E000E3B6ED6EC09F015
:1018D800000E3C6E000E3B6E22EC0AF01200406EC9
:1018E80040503E6E3F6AD8903E363F36D8903E36DE
:1018F8003F36D8903E363F363EC045F03FC046F0B2
:10190800000E46BEFF0E476E486E3AC03EF0050E0A
:101918003F6ED8903E323F2E8DEF0CF03E5045245E
:10192800456E000E4620466E000E4720476E000E9C
:101938004820486E45C041F046C042F047C043F0D9
:1019480048C044F041C03AF042C03BF043C03CF0CC
:1019580044C03DF01200080EA76E800EAB6E240E38
:10196800AC6E080EAF6E020E7D6E000E3A6E000E63
:101978003B6E72EC0DF0000E3A6E000E3B6E6DEC95
:101988000DF0000E3A6E000E3B6E77EC0DF0000E77
:101998001D6E1200000E8D6E000E8C6E000E896E8C
:1019A800000E8A6E000E8B6E070E966ECF0E926E2C
:1019B800FB0E936EBF0E946E9568F00E0F015D6F6F
:1019C800670E5C6F000E5B6FF18E1200010E000156
:1019D800B46F620EB56F000EB66F000EB76F000ED3
:1019E800B86F010EB96F52C0BAF0B40E4C6E000E4B
:1019F8004D6EF6EC02F01200010E0001A66F630EA8
:101A0800A76F000EA86F000EA96F000EAA6F010E37
:101A1800AB6F52C0ACF0A60E4C6E000E4D6EF6ECDD
:101A280002F01200010E0001986F610E996F000E0E
:101A38009A6F000E9B6F000E9C6F010E9D6F52C037
:101A48009EF0980E4C6E000E4D6EF6EC02F01200F1
:101A580000EE60F0620EEE6AE806FDE100EE01F0CD
:101A6800370EEE6AE806FDE15A905A92000EF86EBB
:101A7800000128EF00F002D84CEF0DF00500FA6ED7
:101A88001B50FD6E1C50FE6EF850FF6EFA5012008F
:101A9800779C12003A6E9EA854EF0DF056EF0DF0A9
:101AA8004FEF0DF03AC0ADFF120081EC0DF0CEEC17
:101AB8000CF064EC0DF0AFEC0CF0ADEC05F012009E
:101AC800600ED36E000ED26E000E9B6E000E9A6EE4
:101AD80012003AC056F03BC057F012003AC058F016
:101AE8003BC059F012003AC0C6F03BC0C7F0120024
:101AF8003AC01BF03BC01CF01200D09E120012002E
:020000040020DA
:08000000FFFFFFFFFFFFFFFF00
:020000040030CA
:0E00000015027F7CFF8991FF0FC00FE00F40BB
:00000001FF
