:0400000026EF00F0F7
:100008005A82FACF38F0FBCF39F0F2AC0EEF00F09D
:1000180010EF00F020EF00F076AC15EF00F017EFCE
:1000280000F020EF00F077AC1CEF00F01EEF00F0BE
:1000380020EF00F05DEC0DF039C0FBFF38C0FAFF8F
:100048005A9211004AEF0DF077EC0DF01E0E4D6E2E
:10005800000E4E6EA1EC04F00009D8B436EF00F0A3
:1000680038EF00F02AEF00F0220E1F1820102110A0
:100078002210D8A442EF00F044EF00F046EF00F061
:1000880048EF00F02AEF00F08B8C1A0E556E5E0ECA
:10009800546E6E0EE82EFED7542EFCD7552EFAD786
:1000A80000D054EC0CF00D0E556EAF0E546EB60E1B
:1000B800E82EFED7542EFCD7552EFAD700D0000EC6
:1000C8000001C36F000EC26F000EC56F000EC46F33
:1000D8000001C24BC32B020E556E450E546EAA0E7C
:1000E800E82EFED7542EFCD7552EFAD72E502F10B7
:1000F800D8B481EF00F083EF00F0BEEF00F00350BA
:100108000410D8A48AEF00F08CEF00F0BEEF00F0E6
:1001180017501810D8A493EF00F095EF00F0BEEF39
:1001280000F013501410D8A49CEF00F09EEF00F0DC
:10013800BEEF00F0000E026E010E016E000E536E4F
:10014800010E526E08EC0DF0070E546E7D0EE82E6F
:10015800FED7542EFCD700F0000E3C6E010E3B6E0D
:10016800A8EC09F0070E546E7D0EE82EFED7542E2B
:10017800FCD700F036503710D8B4C5EF00F0C7EF01
:1001880000F002EF01F019501A10D8A4CEEF00F0D9
:10019800D0EF00F002EF01F013501410D8A4D7EFFD
:1001A80000F0D9EF00F002EF01F001500210D8A4DE
:1001B800E0EF00F0E2EF00F002EF01F0000E186E41
:1001C800010E176E000E536E010E526E1EEC0DF0EE
:1001D800070E546E7D0EE82EFED7542EFCD700F085
:1001E800000E3C6E010E3B6E8CEC0AF0070E546E4E
:1001F8007D0EE82EFED7542EFCD700F03250331077
:10020800D8B409EF01F00BEF01F074EF01F01550CD
:100218001610D8A412EF01F014EF01F074EF01F0FA
:10022800000E146E010E136E000E186E000E176E7F
:10023800000E026E000E016E000E536E000E526E1E
:100248001EEC0DF0070E546E7D0EE82EFED7542ED0
:10025800FCD700F0000E536E000E526E08EC0DF045
:10026800070E546E7D0EE82EFED7542EFCD700F0F4
:10027800000E3C6E000E3B6E8CEC0AF0070E546EBE
:100288007D0EE82EFED7542EFCD700F0000E3C6EF3
:10029800000E3B6EA8EC09F0070E546E7D0EE82E9A
:1002A800FED7542EFCD700F0000E536E010E526E8E
:1002B80034EC0DF0070E546E7D0EE82EFED7542E4A
:1002C800FCD700F0000E3C6E010E3B6ED8EC0AF035
:1002D800070E546E7D0EE82EFED7542EFCD700F084
:1002E8002E502F10D8A47BEF01F07DEF01F0A6EF80
:1002F80001F003500410D8B484EF01F086EF01F048
:10030800A6EF01F0000E026E000E016E000E536E95
:10031800000E526E08EC0DF0070E546E7D0EE82E9E
:10032800FED7542EFCD700F0000E3C6E000E3B6E3C
:10033800A8EC09F0070E546E7D0EE82EFED7542E59
:10034800FCD700F036503710D8A4ADEF01F0AFEF6E
:1003580001F0D8EF01F019501A10D8B4B6EF01F037
:10036800B8EF01F0D8EF01F0000E186E000E176E0E
:10037800000E536E000E526E1EEC0DF0070E546EFA
:100388007D0EE82EFED7542EFCD700F0000E3C6EF2
:10039800000E3B6E8CEC0AF0070E546E7D0EE82EB4
:1003A800FED7542EFCD700F032503310D8A4DFEF1C
:1003B80001F0E1EF01F00AEF02F015501610D8B481
:1003C800E8EF01F0EAEF01F00AEF02F0000E146E18
:1003D800000E136E000E536E000E526E34EC0DF0CC
:1003E800070E546E7D0EE82EFED7542EFCD700F073
:1003F800000E3C6E000E3B6ED8EC0AF0070E546EF1
:100408007D0EE82EFED7542EFCD700F036C019F02A
:1004180037C01AF032C015F033C016F02EC003F002
:100428002FC004F0360E3A6E000E3B6E340E3C6E52
:10043800000E3D6E6CEC08F02E0E3A6E000E3B6E10
:100448002C0E3C6E000E3D6EF4EC07F0320E3A6E48
:10045800000E3B6E300E3C6E000E3D6EE4EC08F074
:100468000001C3BF41EF02F0C35109E10A0EC25DAA
:10047800D8A041EF02F043EF02F05AEF02F0C4298E
:1004880008E1C529D8B44BEF02F04DEF02F05AEF5E
:1004980002F0000EC36F000EC26FC4C03BF0C5C0AF
:1004A8003CF0F4EC09F00001C44BC52B1E0E4D6E58
:1004B800000E4E6EA1EC04F00009D8B466EF02F00D
:1004C80068EF02F06CEF00F01E04D8A46EEF02F0A3
:1004D80070EF02F06CEF00F0F40E1F180BE1020E43
:1004E800201821102210D8B47CEF02F07EEF02F021
:1004F800B6EF02F0F40E1F180BE1040E20182110BD
:100508002210D8B48AEF02F08CEF02F0B6EF02F0B6
:10051800F40E1F180BE1050E201821102210D8B474
:1005280098EF02F09AEF02F0B6EF02F0F40E1F18FF
:100538000BE1070E201821102210D8B4A6EF02F004
:10054800A8EF02F0B6EF02F0F40E1F1809E1080E4A
:10055800201821102210D8A4B4EF02F0B6EF02F050
:10056800C4EF02F0070E546E7D0EE82EFED7542E0F
:10057800FCD700F0000E3C6E010E3B6E5CEC09F0FF
:10058800800E1F18201021102210D8A4CEEF02F0E0
:10059800D0EF02F0F6EF02F02404D8A4D6EF02F070
:1005A800D8EF02F0E8EF02F0070E546E7D0EE82E49
:1005B800FED7542EFCD700F0000E3C6E010E3B6EA9
:1005C80008EC0CF0F6EF02F0070E546E7D0EE82EE4
:1005D800FED7542EFCD700F0000E3C6E000E3B6E8A
:1005E80008EC0CF0810E1F18201021102210D8A43E
:1005F80000EF03F002EF03F010EF03F0070E546E64
:100608007D0EE82EFED7542EFCD700F024C0C4F08F
:100618000001C56B6CEF00F06CEF00F026EF00F006
:10062800000E4E6E000E4F6E000E506E000E516E94
:100638000F0120B722EF03F024EF03F09EEF03F041
:1006480020EE01F04C50D9264D50DA22DECF3AF098
:10065800DECF3BF0DECF3CF0DECF3DF04CC0D9FF23
:100668004DC0DAFFDF503E6E4E0E3F6E000E406EFC
:100678004F0E416E000E426E500E436E000E446ED9
:10068800510E456E000E466E9DEC06F04EC023FFDF
:100698004FC024FF50C021FF51C022FF20EE05F0BB
:1006A8004C50D9264D50DA22DF500F01256F20EE2D
:1006B80006F04C50D9264D50DA22DF50266F20EE36
:1006C80007F04C50D9264D50DA22DF50276F20EE24
:1006D80008F04C50D9264D50DA22DF50286F20EE12
:1006E80009F04C50D9264D50DA22DF50296F20EE00
:1006F8000AF04C50D9264D50DA22DF502A6F20EEEE
:100708000BF04C50D9264D50DA22DF502B6F20EEDB
:100718000CF04C50D9264D50DA22DF502C6F20EEC9
:100728000DF04C50D9264D50DA22DF502D6F20871E
:10073800A0EF04F010B7A3EF03F0A5EF03F01FEF4D
:1007480004F020EE01F04C50D9264D50DA22DECFCD
:100758003AF0DECF3BF0DECF3CF0DECF3DF04CC0D0
:10076800D9FF4DC0DAFFDF503E6E4E0E3F6E000ED1
:10077800406E4F0E416E000E426E500E436E000EDC
:10078800446E510E456E000E466E9DEC06F04EC04E
:1007980013FF4FC014FF50C011FF51C012FF20EECD
:1007A80005F04C50D9264D50DA22DF500F01156F55
:1007B80020EE06F04C50D9264D50DA22DF50166F45
:1007C80020EE07F04C50D9264D50DA22DF50176F33
:1007D80020EE08F04C50D9264D50DA22DF50186F21
:1007E80020EE09F04C50D9264D50DA22DF50196F0F
:1007F80020EE0AF04C50D9264D50DA22DF501A6FFD
:1008080020EE0BF04C50D9264D50DA22DF501B6FEA
:1008180020EE0CF04C50D9264D50DA22DF501C6FD8
:1008280020EE0DF04C50D9264D50DA22DF501D6FC6
:1008380010879CEF03F000B724EF04F026EF04F0D4
:10084800A0EF04F020EE01F04C50D9264D50DA22EA
:10085800DECF3AF0DECF3BF0DECF3CF0DECF3DF02E
:100868004CC0D9FF4DC0DAFFDF503E6E4E0E3F6ED2
:10087800000E406E4F0E416E000E426E500E436EDB
:10088800000E446E510E456E000E466E9DEC06F04D
:100898004EC003FF4FC004FF50C001FF51C002FF0C
:1008A80020EE05F04C50D9264D50DA22DF500F01CA
:1008B800056F20EE06F04C50D9264D50DA22DF5055
:1008C800066F20EE07F04C50D9264D50DA22DF5043
:1008D800076F20EE08F04C50D9264D50DA22DF5031
:1008E800086F20EE09F04C50D9264D50DA22DF501F
:1008F800096F20EE0AF04C50D9264D50DA22DF500D
:100908000A6F20EE0BF04C50D9264D50DA22DF50FA
:100918000B6F20EE0CF04C50D9264D50DA22DF50E8
:100928000C6F20EE0DF04C50D9264D50DA22DF50D6
:100938000D6F00879CEF03F01200000E4F6E60AE43
:10094800A8EF04F0AAEF04F036EF05F062A6AFEFC7
:1009580004F0B1EF04F0D0EF04F04DC0D9FF4EC061
:10096800DAFF020EDF6E64CF3AF061CF3BF062CF60
:100978003CF0635057EC07F020EE01F04D50D926BB
:100988004E50DA223AC0DEFF3BC0DEFF3CC0DEFF3D
:100998003DC0DEFFE9EF04F04DC0D9FF4EC0DAFFDD
:1009A800010EDF6E62CF3AF0615091EC0CF020EE50
:1009B80001F04D50D9264E50DA223AC0DEFF3BC036
:1009C800DEFF3CC0DEFF3DC0DEFF20EE05F04D50EF
:1009D800D9264E50DA2265CFDFFF20EE06F04D50C3
:1009E800D9264E50DA2266CFDFFF20EE07F04D50B1
:1009F800D9264E50DA2267CFDFFF20EE08F04D509F
:100A0800D9264E50DA2268CFDFFF20EE09F04D508C
:100A1800D9264E50DA2269CFDFFF20EE0AF04D507A
:100A2800D9264E50DA226ACFDFFF20EE0BF04D5068
:100A3800D9264E50DA226BCFDFFF20EE0CF04D5056
:100A4800D9264E50DA226CCFDFFF20EE0DF04D5044
:100A5800D9264E50DA226DCFDFFF609E010E4F6E11
:100A6800C9EF05F00F0130AF3CEF05F03EEF05F0A0
:100A7800C9EF05F032A743EF05F045EF05F064EF45
:100A880005F04DC0D9FF4EC0DAFF020EDF6E34CF3D
:100A98003AF031CF3BF032CF3CF0335157EC07F00E
:100AA80020EE01F04D50D9264E50DA223AC0DEFF32
:100AB8003BC0DEFF3CC0DEFF3DC0DEFF7DEF05F042
:100AC8004DC0D9FF4EC0DAFF010EDF6E32CF3AF0CB
:100AD800315191EC0CF020EE01F04D50D9264E50DA
:100AE800DA223AC0DEFF3BC0DEFF3CC0DEFF3DC07D
:100AF800DEFF20EE05F04D50D9264E50DA2235CFD4
:100B0800DFFF20EE06F04D50D9264E50DA2236CFC0
:100B1800DFFF20EE07F04D50D9264E50DA2237CFAE
:100B2800DFFF20EE08F04D50D9264E50DA2238CF9C
:100B3800DFFF20EE09F04D50D9264E50DA2239CF8A
:100B4800DFFF20EE0AF04D50D9264E50DA223ACF78
:100B5800DFFF20EE0BF04D50D9264E50DA223BCF66
:100B6800DFFF20EE0CF04D50D9264E50DA223CCF54
:100B7800DFFF20EE0DF04D50D9264E50DA223DCF42
:100B8800DFFF0F01309F32EF05F04F501200800E4B
:100B98006F6E6E50E00B800AD8A4D5EF05F0D7EF42
:100BA80005F0CDEF05F0400E726E200E706E000E4F
:100BB8000E017D6FFA69FB69F869E30EF96FFE694A
:100BC800FF69FC69E30EFD6F010E466F000E476F6B
:100BD800000E796F000E7A6F000E7B6F000E7C6F2F
:100BE800000E716F000E726F000E736F000E746F3F
:100BF800000E756F000E766F000E776F000E786F1F
:100C0800000EE26F000EE36F020EE06FC00EE16FA0
:100C1800000EE66F000EE76F000EE46F000EE56F42
:100C2800000EEA6F000EEB6F000EE86F000EE96F22
:100C3800000EEE6F000EEF6F000EEC6F000EED6F02
:100C4800000EF26F000EF36F000EF06F000EF16FE2
:100C5800000EF66F000EF76F000EF46F000EF56FC2
:100C6800000E4A6F000E4B6F000E486F000E496F62
:100C7800000E4E6F000E4F6F000E4C6F000E4D6F42
:100C8800000E526F000E536F000E506F000E516F22
:100C9800000E566F000E576F000E546F000E556F02
:100CA800000E5A6F000E5B6F000E586F000E596FE2
:100CB800000E5E6F000E5F6F000E5C6F000E5D6FC2
:100CC800000E626F000E636F000E606F000E616FA2
:100CD800000E666F000E676F000E646F000E656F82
:100CE800000E6A6F000E6B6F000E686F000E696F62
:100CF8006E696F696C69E30E6D6F130E436FA80E12
:100D0800446F010E456F420E3A6E1B0E3B6E9AEC15
:100D18000DF0779C768C000E6F6E6ECF3CF0E00E77
:100D28003C16D8A49AEF06F09CEF06F091EF06F077
:100D38001200020E3E18D8A4A4EF06F0A6EF06F0A3
:100D480029EF07F041C0D9FF42C0DAFF3AC0DFFF00
:100D58003AC047F03BC048F03CC049F03DC04AF0BB
:100D680048C047F049C048F04AC049F04A6A47C0FD
:100D78003AF048C03BF049C03CF04AC03DF03FC0A3
:100D8800D9FF40C0DAFF3AC0DFFF3AC047F03BC0A6
:100D980048F03CC049F03DC04AF048C047F049C05F
:100DA80048F04AC049F04A6A47C03AF048C03BF0A8
:100DB80049C03CF04AC03DF03A50030B4B6E3AC074
:100DC80047F03BC048F03CC049F03DC04AF0030E34
:100DD800D8904736483649364A36E82EECEF06F0C2
:100DE80047C03AF048C03BF049C03CF04AC03DF02B
:100DF8003A50E00B4B244B6E4B50080F4B6E4B5048
:100E0800EB0B45C0D9FF46C0DAFFDF6E3AC047F0AA
:100E18003BC048F03CC049F03DC04AF048C047F0EC
:100E280049C048F04AC049F04A6A47C03AF048C049
:100E38003BF049C03CF04AC03DF043C0D9FF44C034
:100E4800DAFF3AC0DFFF56EF07F03FC0D9FF40C0D6
:100E5800DAFF000EDF6E41C0D9FF42C0DAFF000E94
:100E6800DF6E3AC047F03BC048F03CC049F03DC097
:100E78004AF0050ED8904736483649364A36E82EA5
:100E88003EEF07F047C03AF048C03BF049C03CF09D
:100E98004AC03DF045C0D9FF46C0DAFF3AC0DFFF7F
:100EA8000AEF07F01200426E000E496E000E4A6EFD
:100EB800000E4B6E000E4C6E3C50030B476E3C38D8
:100EC800E842070B486E3B503E6E3F6AD8903E366C
:100ED8003F36D8903E363F36D8903E363F363EC0F5
:100EE80049F03FC04AF0000E4ABEFF0E4B6E4C6EF2
:100EF80048504924496E000E4A204A6E000E4B2085
:100F08004B6E000E4C204C6E49C03EF04AC03FF07C
:100F18004BC040F04CC041F0020ED8903E363F36F0
:100F280040364136E82E91EF07F03EC049F03FC009
:100F38004AF040C04BF041C04CF047504924496E3C
:100F4800000E4A204A6E000E4B204B6E000E4C20BD
:100F58004C6E49C03FF04AC040F04BC041F03E6A79
:100F68003EC049F03FC04AF040C04BF041C04CF091
:100F780042504924496E000E4A204A6E000E4B200A
:100F88004B6E000E4C204C6E49C03FF04AC040F0FA
:100F98004BC041F03E6A3EC049F03FC04AF040C0F5
:100FA8004BF041C04CF03A504924496E000E4A209B
:100FB8004A6E000E4B204B6E000E4C204C6E49C002
:100FC80043F04AC044F04BC045F04CC046F043C023
:100FD8003AF044C03BF045C03CF046C03DF012003A
:100FE8004EEF08F03CC0D9FF3DC0DAFF000EDE6EC0
:100FF800000EDD6E6BEF08F03AC0D9FF3BC0DAFF98
:10100800010EDE6E000EDD6E2EEF08F03AC0D9FF3D
:101018003BC0DAFF000EDE6E000EDD6E2EEF08F02C
:101028003AC0D9FF3BC0DAFFDECF3EF0DDCF3FF05C
:101038003F50000AD8B423EF08F02EEF08F03E50D6
:10104800000AD8B400EF08F0010AD8B40AEF08F093
:101058002EEF08F03CC0D9FF3DC0DAFF010EDE6E6E
:10106800000EDD6E6BEF08F03CC0D9FF3DC0DAFF23
:10107800DECF3EF0DDCF3FF03F50000AD8B447EF57
:1010880008F06BEF08F03E50000AD8B414EF08F0EF
:101098006BEF08F082B253EF08F056EF08F0010E3C
:1010A80057EF08F0000E3E6E3F6A3F50000AD8B472
:1010B80060EF08F06BEF08F03E50000AD8B4F6EF86
:1010C80007F0010AD8B438EF08F06BEF08F0120007
:1010D800C6EF08F03CC0D9FF3DC0DAFF000EDE6E57
:1010E800000EDD6EE3EF08F03AC0D9FF3BC0DAFF2F
:1010F800010EDE6E000EDD6EA6EF08F03AC0D9FFD5
:101108003BC0DAFF000EDE6E000EDD6EA6EF08F0C3
:101118003AC0D9FF3BC0DAFFDECF3EF0DDCF3FF06B
:101128003F50000AD8B49BEF08F0A6EF08F03E50F5
:10113800000AD8B478EF08F0010AD8B482EF08F0B2
:10114800A6EF08F03CC0D9FF3DC0DAFF010EDE6E05
:10115800000EDD6EE3EF08F03CC0D9FF3DC0DAFFBA
:10116800DECF3EF0DDCF3FF03F50000AD8B4BFEFEE
:1011780008F0E3EF08F03E50000AD8B48CEF08F00E
:10118800E3EF08F080B0CBEF08F0CEEF08F0010EE7
:10119800CFEF08F0000E3E6E3F6A3F50000AD8B409
:1011A800D8EF08F0E3EF08F03E50000AD8B46EEF2D
:1011B80008F0010AD8B4B0EF08F0E3EF08F0120025
:1011C8003EEF09F03CC0D9FF3DC0DAFF000EDE6EED
:1011D800000EDD6E5BEF09F03AC0D9FF3BC0DAFFC5
:1011E800010EDE6E000EDD6E1EEF09F03AC0D9FF6B
:1011F8003BC0DAFF000EDE6E000EDD6E1EEF09F05A
:101208003AC0D9FF3BC0DAFFDECF3EF0DDCF3FF07A
:101218003F50000AD8B413EF09F01EEF09F03E5012
:10122800000AD8B4F0EF08F0010AD8B4FAEF08F0D1
:101238001EEF09F03CC0D9FF3DC0DAFF010EDE6E9B
:10124800000EDD6E5BEF09F03CC0D9FF3DC0DAFF50
:10125800DECF3EF0DDCF3FF03F50000AD8B437EF85
:1012680009F05BEF09F03E50000AD8B404EF09F02A
:101278005BEF09F080B243EF09F046EF09F0010E89
:1012880047EF09F0000E3E6E3F6A3F50000AD8B49F
:1012980050EF09F05BEF09F03E50000AD8B4E6EFD2
:1012A80008F0010AD8B428EF09F05BEF09F0120042
:1012B800000E416E2E0E406E000E436E020E426E00
:1012C800000E456E000E446E2D0E3B183E6E3C50CF
:1012D8003F6E010E6CEC0DF0410E3D6EEE0EE82EE9
:1012E800FED73D2EFCD700D02E0E6CEC0DF0410E33
:1012F8003D6EEE0EE82EFED73D2EFCD700D0020E36
:101308006CEC0DF0410E3D6EEE0EE82EFED73D2E34
:10131800FCD700D0000E6CEC0DF0410E3D6EEE0EC9
:10132800E82EFED73D2EFCD700D03B506CEC0DF0DC
:10133800410E3D6EEE0EE82EFED73D2EFCD700D0B6
:101348003E506CEC0DF01200000E416E130E406E14
:10135800000E436E010E426E000E456E000E446E86
:10136800130E3B183E6E3C503F6E010E6CEC0DF0B8
:10137800410E3D6EEE0EE82EFED73D2EFCD700D076
:10138800130E6CEC0DF0410E3D6EEE0EE82EFED7FE
:101398003D2EFCD700D0010E6CEC0DF0410E3D6ED9
:1013A800EE0EE82EFED73D2EFCD700D0000E6CECDA
:1013B8000DF0410E3D6EEE0EE82EFED73D2EFCD709
:1013C80000D03B506CEC0DF0410E3D6EEE0EE82E59
:1013D800FED73D2EFCD700D03E506CEC0DF012002D
:1013E800000E416E0F0E406E000E436E000E426EF0
:1013F800000E456E000E446E0E0E3B183E6E3C50BD
:101408003F6E010E6CEC0DF0410E3D6EEE0EE82EB7
:10141800FED73D2EFCD700D00F0E6CEC0DF0410E20
:101428003D6EEE0EE82EFED73D2EFCD700D0000E06
:101438006CEC0DF0410E3D6EEE0EE82EFED73D2E03
:10144800FCD700D0000E6CEC0DF0410E3D6EEE0E98
:10145800E82EFED73D2EFCD700D03B506CEC0DF0AB
:10146800410E3D6EEE0EE82EFED73D2EFCD700D085
:101478003E506CEC0DF01200000E416E0F0E406EE7
:10148800000E436E010E426E000E456E000E446E55
:101498000F0E3B183E6E3C503F6E010E6CEC0DF08B
:1014A800410E3D6EEE0EE82EFED73D2EFCD700D045
:1014B8000F0E6CEC0DF0410E3D6EEE0EE82EFED7D1
:1014C8003D2EFCD700D0010E6CEC0DF0410E3D6EA8
:1014D800EE0EE82EFED73D2EFCD700D0000E6CECA9
:1014E8000DF0410E3D6EEE0EE82EFED73D2EFCD7D8
:1014F80000D03B506CEC0DF0410E3D6EEE0EE82E28
:10150800FED73D2EFCD700D03E506CEC0DF01200FB
:10151800000E416E130E406E000E436E000E426EBA
:10152800000E456E000E446E120E3B183E6E3C5087
:101538003F6E010E6CEC0DF0410E3D6EEE0EE82E86
:10154800FED73D2EFCD700D0130E6CEC0DF0410EEB
:101558003D6EEE0EE82EFED73D2EFCD700D0000ED5
:101568006CEC0DF0410E3D6EEE0EE82EFED73D2ED2
:10157800FCD700D0000E6CEC0DF0410E3D6EEE0E67
:10158800E82EFED73D2EFCD700D03B506CEC0DF07A
:10159800410E3D6EEE0EE82EFED73D2EFCD700D054
:1015A8003E506CEC0DF01200000E416E130E406EB2
:1015B800000E436E020E426E000E456E000E446E23
:1015C800100E3B183E6E3C503F6E010E6CEC0DF059
:1015D800410E3D6EEE0EE82EFED73D2EFCD700D014
:1015E800130E6CEC0DF0410E3D6EEE0EE82EFED79C
:1015F8003D2EFCD700D0020E6CEC0DF0410E3D6E76
:10160800EE0EE82EFED73D2EFCD700D0000E6CEC77
:101618000DF0410E3D6EEE0EE82EFED73D2EFCD7A6
:1016280000D03B506CEC0DF0410E3D6EEE0EE82EF6
:10163800FED73D2EFCD700D03E506CEC0DF01200CA
:10164800000E416E0F0E406E000E436E020E426E8B
:10165800000E456E000E446E0C0E3B183E6E3C505C
:101668003F6E010E6CEC0DF0410E3D6EEE0EE82E55
:10167800FED73D2EFCD700D00F0E6CEC0DF0410EBE
:101688003D6EEE0EE82EFED73D2EFCD700D0020EA2
:101698006CEC0DF0410E3D6EEE0EE82EFED73D2EA1
:1016A800FCD700D0000E6CEC0DF0410E3D6EEE0E36
:1016B800E82EFED73D2EFCD700D03B506CEC0DF049
:1016C800410E3D6EEE0EE82EFED73D2EFCD700D023
:1016D8003E506CEC0DF01200000E416E0F0E406E85
:1016E800000E436E030E426E000E456E000E446EF1
:1016F8000D0E3B183E6E3C503F6E010E6CEC0DF02B
:10170800410E3D6EEE0EE82EFED73D2EFCD700D0E2
:101718000F0E6CEC0DF0410E3D6EEE0EE82EFED76E
:101728003D2EFCD700D0030E6CEC0DF0410E3D6E43
:10173800EE0EE82EFED73D2EFCD700D0000E6CEC46
:101748000DF0410E3D6EEE0EE82EFED73D2EFCD775
:1017580000D03B506CEC0DF0410E3D6EEE0EE82EC5
:10176800FED73D2EFCD700D03E506CEC0DF0120099
:10177800000E416E280E406E000E436E010E426E42
:10178800000E456E000E446E280E3B183E6E3C500F
:101798003F6E010E6CEC0DF0410E3D6EEE0EE82E24
:1017A800FED73D2EFCD700D0280E6CEC0DF0410E74
:1017B8003D6EEE0EE82EFED73D2EFCD700D0010E72
:1017C8006CEC0DF0410E3D6EEE0EE82EFED73D2E70
:1017D800FCD700D0000E6CEC0DF0410E3D6EEE0E05
:1017E800E82EFED73D2EFCD700D03B506CEC0DF018
:1017F800410E3D6EEE0EE82EFED73D2EFCD700D0F2
:101808003E506CEC0DF01200000E416E2E0E406E34
:10181800000E436E010E426E000E456E000E446EC1
:101828002E0E3B183E6E3C503F6E010E6CEC0DF0D8
:10183800410E3D6EEE0EE82EFED73D2EFCD700D0B1
:101848002E0E6CEC0DF0410E3D6EEE0EE82EFED71E
:101858003D2EFCD700D0010E6CEC0DF0410E3D6E14
:10186800EE0EE82EFED73D2EFCD700D0000E6CEC15
:101878000DF0410E3D6EEE0EE82EFED73D2EFCD744
:1018880000D03B506CEC0DF0410E3D6EEE0EE82E94
:10189800FED73D2EFCD700D03E506CEC0DF0120068
:1018A800000E3C6E000E3B6E8CEC0AF0000E3C6E97
:1018B800000E3B6EA8EC09F0000E3C6E000E3B6E6D
:1018C800D8EC0AF0000E3C6E000E3B6EBCEC0BF040
:1018D800000E3C6E000E3B6E70EC0BF0000E3C6E82
:1018E800000E3B6E24EC0BF0000E3C6E000E3B6EBF
:1018F8005CEC09F0000E3C6E000E3B6E08EC0CF040
:10190800000E3C6E000E3B6EF4EC09F0000E3C6ECF
:10191800000E3B6E40EC0AF01200406E40503E6EE6
:101928003F6AD8903E363F36D8903E363F36D890FC
:101938003E363F363EC045F03FC046F0000E46BE3C
:10194800FF0E476E486E3AC03EF0050E3F6ED890C7
:101958003E323F2EABEF0CF03E504524456E000E54
:101968004620466E000E4720476E000E4820486EFF
:1019780045C041F046C042F047C043F048C044F07B
:1019880041C03AF042C03BF043C03CF044C03DF097
:101998001200080EA76E800EAB6E240EAC6E080EF9
:1019A800AF6E020E7D6E000E3A6E000E3B6E90EC2E
:1019B8000DF0000E3A6E000E3B6E8BEC0DF0000E33
:1019C8003A6E000E3B6E95EC0DF0000E1D6E120087
:1019D800000E8D6E000E8C6E000E896E000E8A6EE3
:1019E800000E8B6E070E966ECF0E926EFB0E936EE8
:1019F800BF0E946E9568F00E0F015D6F670E5C6FF9
:101A0800000E5B6FF18E1200010E0001B46F620EC2
:101A1800B56F000EB66F000EB76F000EB86F010EEF
:101A2800B96F52C0BAF0B40E4C6E000E4D6E14EC85
:101A380003F01200010E0001A66F630EA76F000EDF
:101A4800A86F000EA96F000EAA6F010EAB6F52C0EF
:101A5800ACF0A60E4C6E000E4D6E14EC03F01200A6
:101A6800010E0001986F610E996F000E9A6F000EBB
:101A78009B6F000E9C6F010E9D6F52C09EF0980EDA
:101A88004C6E000E4D6E14EC03F0120000EE60F088
:101A9800620EEE6AE806FDE100EE01F0370EEE6A2E
:101AA800E806FDE15A905A92000EF86E000128EF00
:101AB80000F002D86AEF0DF00500FA6E1B50FD6EBB
:101AC8001C50FE6EF850FF6EFA501200779C120000
:101AD8003A6E9EA872EF0DF074EF0DF06DEF0DF0F9
:101AE8003AC0ADFF12009FEC0DF0ECEC0CF082EC6C
:101AF8000DF0CDEC0CF0CBEC05F01200600ED36EBF
:101B0800000ED26E000E9B6E000E9A6E12003AC046
:101B180056F03BC057F012003AC058F03BC059F09D
:101B280012003AC0C6F03BC0C7F012003AC01BF022
:0C1B38003BC01CF01200D09E12001200F6
:020000040020DA
:08000000FFFFFFFFFFFFFFFF00
:020000040030CA
:0E00000015027F7CFF8991FF0FC00FE00F40BB
:00000001FF
