:0400000026EF00F0F7
:100008005A82FACF38F0FBCF39F0F2AC0EEF00F09D
:1000180010EF00F020EF00F076AC15EF00F017EFCE
:1000280000F020EF00F077AC1CEF00F01EEF00F0BE
:1000380020EF00F04DEC0DF039C0FBFF38C0FAFF9F
:100048005A9211003AEF0DF067EC0DF01E0E4D6E4E
:10005800000E4E6E90EC04F00009D8B436EF00F0B4
:1000680038EF00F02AEF00F0220E1F1820102110A0
:100078002210D8A442EF00F044EF00F046EF00F061
:1000880048EF00F02AEF00F08B8C1A0E556E5E0ECA
:10009800546E6E0EE82EFED7542EFCD7552EFAD786
:1000A80000D044EC0CF00D0E556EAF0E546EB60E2B
:1000B800E82EFED7542EFCD7552EFAD700D0000EC6
:1000C8000001C36F000EC26F000EC56F000EC46F33
:1000D8000001C24BC32B020E556E450E546EAA0E7C
:1000E800E82EFED7542EFCD7552EFAD72E502F10B7
:1000F800D8B481EF00F083EF00F0BEEF00F00350BA
:100108000410D8A48AEF00F08CEF00F0BEEF00F0E6
:1001180017501810D8A493EF00F095EF00F0BEEF39
:1001280000F013501410D8A49CEF00F09EEF00F0DC
:10013800BEEF00F0000E026E010E016E000E536E4F
:10014800010E526EF8EC0CF0410E546EEE0EE82ED5
:10015800FED7542EFCD700D0000E3C6E010E3B6E2D
:1001680098EC09F0410E546EEE0EE82EFED7542E90
:10017800FCD700D036503710D8B4C5EF00F0C7EF21
:1001880000F002EF01F019501A10D8A4CEEF00F0D9
:10019800D0EF00F002EF01F013501410D8A4D7EFFD
:1001A80000F0D9EF00F002EF01F001500210D8A4DE
:1001B800E0EF00F0E2EF00F002EF01F0000E186E41
:1001C800010E176E000E536E010E526E0EEC0DF0FE
:1001D800410E546EEE0EE82EFED7542EFCD700D0FA
:1001E800000E3C6E010E3B6E7CEC0AF0410E546E24
:1001F800EE0EE82EFED7542EFCD700D03250331026
:10020800D8B409EF01F00BEF01F03CEF01F0155005
:100218001610D8A412EF01F014EF01F03CEF01F032
:10022800000E146E010E136E000E186E000E176E7F
:10023800000E026E000E016E000E536E010E526E1D
:1002480024EC0DF0410E546EEE0EE82EFED7542E1F
:10025800FCD700D0000E3C6E010E3B6EC8EC0AF0D5
:10026800410E546EEE0EE82EFED7542EFCD700D069
:100278002E502F10D8A443EF01F045EF01F06EEF98
:1002880001F003500410D8B44CEF01F04EEF01F028
:100298006EEF01F0000E026E000E016E000E536E3E
:1002A800000E526EF8EC0CF0410E546EEE0EE82E75
:1002B800FED7542EFCD700D0000E3C6E000E3B6ECD
:1002C80098EC09F0410E546EEE0EE82EFED7542E2F
:1002D800FCD700D036503710D8A475EF01F077EF6F
:1002E80001F0A0EF01F019501A10D8B47EEF01F018
:1002F80080EF01F0A0EF01F0000E186E000E176EEF
:10030800000E536E000E526E0EEC0DF0410E546E40
:10031800EE0EE82EFED7542EFCD700D0000E3C6E11
:10032800000E3B6E7CEC0AF0410E546EEE0EE82E89
:10033800FED7542EFCD700D032503310D8A4A7EFE4
:1003480001F0A9EF01F0D2EF01F015501610D8B462
:10035800B0EF01F0B2EF01F0D2EF01F0000E146E31
:10036800000E136E000E536E000E526E24EC0DF04C
:10037800410E546EEE0EE82EFED7542EFCD700D058
:10038800000E3C6E000E3B6EC8EC0AF0410E546E37
:10039800EE0EE82EFED7542EFCD700D036C019F04A
:1003A80037C01AF032C015F033C016F02EC003F073
:1003B8002FC004F0360E3A6E000E3B6E340E3C6EC3
:1003C800000E3D6E5CEC08F02E0E3A6E000E3B6E91
:1003D8002C0E3C6E000E3D6EE4EC07F0320E3A6EC9
:1003E800000E3B6E300E3C6E000E3D6ED4EC08F0F5
:1003F8000001C3BF09EF02F0C35109E10A0EC25D53
:10040800D8A009EF02F00BEF02F022EF02F0C429A6
:1004180008E1C529D8B413EF02F015EF02F022EF76
:1004280002F0000EC36F000EC26FC4C03BF0C5C01F
:100438003CF0E4EC09F00001C44BC52B1E0E4D6ED8
:10044800000E4E6E90EC04F00009D8B42EEF02F0C6
:1004580030EF02F06CEF00F01E04D8A436EF02F083
:1004680038EF02F06CEF00F0F40E1F180BE1020EEB
:10047800201821102210D8B444EF02F046EF02F001
:100488008AEF02F0F40E1F180BE1040E2018211059
:100498002210D8B452EF02F054EF02F08AEF02F0C3
:1004A800F40E1F180BE1050E201821102210D8B4E5
:1004B80060EF02F062EF02F08AEF02F0F40E1F180C
:1004C8000BE1070E201821102210D8B46EEF02F0AD
:1004D80070EF02F08AEF02F0F40E1F180BE1080E1D
:1004E800201821102210D8B47CEF02F07EEF02F021
:1004F8008AEF02F0120E1F18201021102210D8A423
:1005080088EF02F08AEF02F098EF02F0410E546E85
:10051800EE0EE82EFED7542EFCD700D0000E3C6E0F
:10052800010E3B6E4CEC09F0800E1F1820102110B4
:100538002210D8A4A2EF02F0A4EF02F0CAEF02F052
:100548002404D8A4AAEF02F0ACEF02F0BCEF02F04A
:10055800410E546EEE0EE82EFED7542EFCD700D076
:10056800000E3C6E010E3B6EF8EC0BF0CAEF02F089
:10057800410E546EEE0EE82EFED7542EFCD700D056
:10058800000E3C6E000E3B6EF8EC0BF0810E1F184F
:10059800201021102210D8A4D4EF02F0D6EF02F0D8
:1005A800E2EF02F0410E546EEE0EE82EFED7542E06
:1005B800FCD700D024C0C4F00001C56B110E1F1871
:1005C80008E1200421102210D8A4EDEF02F0EFEF8B
:1005D80002F0FFEF02F0410E546EEE0EE82EFED749
:1005E800542EFCD700D0000E3C6E000E3B6E4CEC37
:1005F80009F06CEF00F06CEF00F026EF00F0000E51
:100608004E6E000E4F6E000E506E000E516E0F01B2
:1006180020B711EF03F013EF03F08DEF03F020EE96
:1006280001F04C50D9264D50DA22DECF3AF0DECF19
:100638003BF0DECF3CF0DECF3DF04CC0D9FF4DC0E3
:10064800DAFFDF503E6E4E0E3F6E000E406E4F0ECC
:10065800416E000E426E500E436E000E446E510EF7
:10066800456E000E466E8DEC06F04EC023FF4FC05F
:1006780024FF50C021FF51C022FF20EE05F04C504E
:10068800D9264D50DA22DF500F01256F20EE06F0F3
:100698004C50D9264D50DA22DF50266F20EE07F055
:1006A8004C50D9264D50DA22DF50276F20EE08F043
:1006B8004C50D9264D50DA22DF50286F20EE09F031
:1006C8004C50D9264D50DA22DF50296F20EE0AF01F
:1006D8004C50D9264D50DA22DF502A6F20EE0BF00D
:1006E8004C50D9264D50DA22DF502B6F20EE0CF0FB
:1006F8004C50D9264D50DA22DF502C6F20EE0DF0E9
:100708004C50D9264D50DA22DF502D6F20878FEFBD
:1007180004F010B792EF03F094EF03F00EEF04F03B
:1007280020EE01F04C50D9264D50DA22DECF3AF0B7
:10073800DECF3BF0DECF3CF0DECF3DF04CC0D9FF42
:100748004DC0DAFFDF503E6E4E0E3F6E000E406E1B
:100758004F0E416E000E426E500E436E000E446EF8
:10076800510E456E000E466E8DEC06F04EC013FF1E
:100778004FC014FF50C011FF51C012FF20EE05F00A
:100788004C50D9264D50DA22DF500F01156F20EE5C
:1007980006F04C50D9264D50DA22DF50166F20EE65
:1007A80007F04C50D9264D50DA22DF50176F20EE53
:1007B80008F04C50D9264D50DA22DF50186F20EE41
:1007C80009F04C50D9264D50DA22DF50196F20EE2F
:1007D8000AF04C50D9264D50DA22DF501A6F20EE1D
:1007E8000BF04C50D9264D50DA22DF501B6F20EE0B
:1007F8000CF04C50D9264D50DA22DF501C6F20EEF9
:100808000DF04C50D9264D50DA22DF501D6F10875D
:100818008BEF03F000B713EF04F015EF04F08FEF40
:1008280004F020EE01F04C50D9264D50DA22DECFEC
:100838003AF0DECF3BF0DECF3CF0DECF3DF04CC0EF
:10084800D9FF4DC0DAFFDF503E6E4E0E3F6E000EF0
:10085800406E4F0E416E000E426E500E436E000EFB
:10086800446E510E456E000E466E8DEC06F04EC07D
:1008780003FF4FC004FF50C001FF51C002FF20EE2C
:1008880005F04C50D9264D50DA22DF500F01056F84
:1008980020EE06F04C50D9264D50DA22DF50066F74
:1008A80020EE07F04C50D9264D50DA22DF50076F62
:1008B80020EE08F04C50D9264D50DA22DF50086F50
:1008C80020EE09F04C50D9264D50DA22DF50096F3E
:1008D80020EE0AF04C50D9264D50DA22DF500A6F2C
:1008E80020EE0BF04C50D9264D50DA22DF500B6F1A
:1008F80020EE0CF04C50D9264D50DA22DF500C6F08
:1009080020EE0DF04C50D9264D50DA22DF500D6FF5
:1009180000878BEF03F01200000E4F6E60AE97EF6A
:1009280004F099EF04F025EF05F062A69EEF04F0BD
:10093800A0EF04F0BFEF04F04DC0D9FF4EC0DAFFBE
:10094800020EDF6E64CF3AF061CF3BF062CF3CF02D
:10095800635047EC07F020EE01F04D50D9264E5079
:10096800DA223AC0DEFF3BC0DEFF3CC0DEFF3DC0FE
:10097800DEFFD8EF04F04DC0D9FF4EC0DAFF010EFC
:10098800DF6E62CF3AF0615081EC0CF020EE01F09E
:100998004D50D9264E50DA223AC0DEFF3BC0DEFF6A
:1009A8003CC0DEFF3DC0DEFF20EE05F04D50D926ED
:1009B8004E50DA2265CFDFFF20EE06F04D50D926E3
:1009C8004E50DA2266CFDFFF20EE07F04D50D926D1
:1009D8004E50DA2267CFDFFF20EE08F04D50D926BF
:1009E8004E50DA2268CFDFFF20EE09F04D50D926AD
:1009F8004E50DA2269CFDFFF20EE0AF04D50D9269B
:100A08004E50DA226ACFDFFF20EE0BF04D50D92688
:100A18004E50DA226BCFDFFF20EE0CF04D50D92676
:100A28004E50DA226CCFDFFF20EE0DF04D50D92664
:100A38004E50DA226DCFDFFF609E010E4F6EB8EF89
:100A480005F00F0130AF2BEF05F02DEF05F0B8EFF3
:100A580005F032A732EF05F034EF05F053EF05F05B
:100A68004DC0D9FF4EC0DAFF020EDF6E34CF3AF028
:100A780031CF3BF032CF3CF0335147EC07F020EE5A
:100A880001F04D50D9264E50DA223AC0DEFF3BC065
:100A9800DEFF3CC0DEFF3DC0DEFF6CEF05F04DC061
:100AA800D9FF4EC0DAFF010EDF6E32CF3AF0315176
:100AB80081EC0CF020EE01F04D50D9264E50DA2290
:100AC8003AC0DEFF3BC0DEFF3CC0DEFF3DC0DEFFBC
:100AD80020EE05F04D50D9264E50DA2235CFDFFFF3
:100AE80020EE06F04D50D9264E50DA2236CFDFFFE1
:100AF80020EE07F04D50D9264E50DA2237CFDFFFCF
:100B080020EE08F04D50D9264E50DA2238CFDFFFBC
:100B180020EE09F04D50D9264E50DA2239CFDFFFAA
:100B280020EE0AF04D50D9264E50DA223ACFDFFF98
:100B380020EE0BF04D50D9264E50DA223BCFDFFF86
:100B480020EE0CF04D50D9264E50DA223CCFDFFF74
:100B580020EE0DF04D50D9264E50DA223DCFDFFF62
:100B68000F01309F21EF05F04F501200800E6F6E7D
:100B78006E50E00B800AD8A4C4EF05F0C6EF05F06C
:100B8800BCEF05F0400E726E200E706E000E0E0166
:100B98007D6FFA69FB69000EF86F030EF96FFE6945
:100BA800FF69FC69E30EFD6F010E466F000E476F8B
:100BB800000E796F000E7A6F000E7B6F000E7C6F4F
:100BC800000E716F000E726F000E736F000E746F5F
:100BD800000E756F000E766F000E776F000E786F3F
:100BE800080EE26FF40EE36F000EE06F080EE16F7F
:100BF800000EE66F000EE76F000EE46F000EE56F63
:100C0800000EEA6F000EEB6F000EE86F000EE96F42
:100C1800000EEE6F000EEF6F000EEC6F000EED6F22
:100C2800000EF26F000EF36F000EF06F000EF16F02
:100C3800000EF66F000EF76F000EF46F000EF56FE2
:100C4800000E4A6F000E4B6F000E486F000E496F82
:100C5800000E4E6F000E4F6F000E4C6F000E4D6F62
:100C6800000E526F000E536F000E506F000E516F42
:100C7800000E566F000E576F000E546F000E556F22
:100C8800000E5A6F000E5B6F000E586F000E596F02
:100C9800000E5E6F000E5F6F000E5C6F000E5D6FE2
:100CA800000E626F000E636F000E606F000E616FC2
:100CB800000E666F000E676F000E646F000E656FA2
:100CC800000E6A6F000E6B6F000E686F000E696F82
:100CD8006E696F696C69E30E6D6F030E436FA80E42
:100CE800446F010E456F220E3A6E1B0E3B6E8AEC66
:100CF8000DF0779C768C000E6F6E6ECF3CF0E00E98
:100D08003C16D8A48AEF06F08CEF06F081EF06F0C7
:100D18001200020E3E18D8A494EF06F096EF06F0E3
:100D280019EF07F041C0D9FF42C0DAFF3AC0DFFF30
:100D38003AC047F03BC048F03CC049F03DC04AF0DB
:100D480048C047F049C048F04AC049F04A6A47C01D
:100D58003AF048C03BF049C03CF04AC03DF03FC0C3
:100D6800D9FF40C0DAFF3AC0DFFF3AC047F03BC0C6
:100D780048F03CC049F03DC04AF048C047F049C07F
:100D880048F04AC049F04A6A47C03AF048C03BF0C8
:100D980049C03CF04AC03DF03A50030B4B6E3AC094
:100DA80047F03BC048F03CC049F03DC04AF0030E54
:100DB800D8904736483649364A36E82EDCEF06F0F2
:100DC80047C03AF048C03BF049C03CF04AC03DF04B
:100DD8003A50E00B4B244B6E4B50080F4B6E4B5068
:100DE800EB0B45C0D9FF46C0DAFFDF6E3AC047F0CB
:100DF8003BC048F03CC049F03DC04AF048C047F00D
:100E080049C048F04AC049F04A6A47C03AF048C069
:100E18003BF049C03CF04AC03DF043C0D9FF44C054
:100E2800DAFF3AC0DFFF46EF07F03FC0D9FF40C006
:100E3800DAFF000EDF6E41C0D9FF42C0DAFF000EB4
:100E4800DF6E3AC047F03BC048F03CC049F03DC0B7
:100E58004AF0050ED8904736483649364A36E82EC5
:100E68002EEF07F047C03AF048C03BF049C03CF0CD
:100E78004AC03DF045C0D9FF46C0DAFF3AC0DFFF9F
:100E8800FAEF06F01200426E000E496E000E4A6E2E
:100E9800000E4B6E000E4C6E3C50030B476E3C38F8
:100EA800E842070B486E3B503E6E3F6AD8903E368C
:100EB8003F36D8903E363F36D8903E363F363EC015
:100EC80049F03FC04AF0000E4ABEFF0E4B6E4C6E12
:100ED80048504924496E000E4A204A6E000E4B20A5
:100EE8004B6E000E4C204C6E49C03EF04AC03FF09D
:100EF8004BC040F04CC041F0020ED8903E363F3611
:100F080040364136E82E81EF07F03EC049F03FC039
:100F18004AF040C04BF041C04CF047504924496E5C
:100F2800000E4A204A6E000E4B204B6E000E4C20DD
:100F38004C6E49C03FF04AC040F04BC041F03E6A99
:100F48003EC049F03FC04AF040C04BF041C04CF0B1
:100F580042504924496E000E4A204A6E000E4B202A
:100F68004B6E000E4C204C6E49C03FF04AC040F01A
:100F78004BC041F03E6A3EC049F03FC04AF040C015
:100F88004BF041C04CF03A504924496E000E4A20BB
:100F98004A6E000E4B204B6E000E4C204C6E49C022
:100FA80043F04AC044F04BC045F04CC046F043C043
:100FB8003AF044C03BF045C03CF046C03DF012005A
:100FC8003EEF08F03CC0D9FF3DC0DAFF000EDE6EF0
:100FD800000EDD6E5BEF08F03AC0D9FF3BC0DAFFC8
:100FE800010EDE6E000EDD6E1EEF08F03AC0D9FF6E
:100FF8003BC0DAFF000EDE6E000EDD6E1EEF08F05D
:101008003AC0D9FF3BC0DAFFDECF3EF0DDCF3FF07C
:101018003F50000AD8B413EF08F01EEF08F03E5016
:10102800000AD8B4F0EF07F0010AD8B4FAEF07F0D5
:101038001EEF08F03CC0D9FF3DC0DAFF010EDE6E9E
:10104800000EDD6E5BEF08F03CC0D9FF3DC0DAFF53
:10105800DECF3EF0DDCF3FF03F50000AD8B437EF87
:1010680008F05BEF08F03E50000AD8B404EF08F02F
:101078005BEF08F082B243EF08F046EF08F0010E8C
:1010880047EF08F0000E3E6E3F6A3F50000AD8B4A2
:1010980050EF08F05BEF08F03E50000AD8B4E6EFD6
:1010A80007F0010AD8B428EF08F05BEF08F0120047
:1010B800B6EF08F03CC0D9FF3DC0DAFF000EDE6E87
:1010C800000EDD6ED3EF08F03AC0D9FF3BC0DAFF5F
:1010D800010EDE6E000EDD6E96EF08F03AC0D9FF05
:1010E8003BC0DAFF000EDE6E000EDD6E96EF08F0F4
:1010F8003AC0D9FF3BC0DAFFDECF3EF0DDCF3FF08C
:101108003F50000AD8B48BEF08F096EF08F03E5035
:10111800000AD8B468EF08F0010AD8B472EF08F0F2
:1011280096EF08F03CC0D9FF3DC0DAFF010EDE6E35
:10113800000EDD6ED3EF08F03CC0D9FF3DC0DAFFEA
:10114800DECF3EF0DDCF3FF03F50000AD8B4AFEF1E
:1011580008F0D3EF08F03E50000AD8B47CEF08F04E
:10116800D3EF08F080B0BBEF08F0BEEF08F0010E37
:10117800BFEF08F0000E3E6E3F6A3F50000AD8B439
:10118800C8EF08F0D3EF08F03E50000AD8B45EEF7D
:1011980008F0010AD8B4A0EF08F0D3EF08F0120065
:1011A8002EEF09F03CC0D9FF3DC0DAFF000EDE6E1D
:1011B800000EDD6E4BEF09F03AC0D9FF3BC0DAFFF5
:1011C800010EDE6E000EDD6E0EEF09F03AC0D9FF9B
:1011D8003BC0DAFF000EDE6E000EDD6E0EEF09F08A
:1011E8003AC0D9FF3BC0DAFFDECF3EF0DDCF3FF09B
:1011F8003F50000AD8B403EF09F00EEF09F03E5053
:10120800000AD8B4E0EF08F0010AD8B4EAEF08F011
:101218000EEF09F03CC0D9FF3DC0DAFF010EDE6ECB
:10122800000EDD6E4BEF09F03CC0D9FF3DC0DAFF80
:10123800DECF3EF0DDCF3FF03F50000AD8B427EFB5
:1012480009F04BEF09F03E50000AD8B4F4EF08F06B
:101258004BEF09F080B233EF09F036EF09F0010ED9
:1012680037EF09F0000E3E6E3F6A3F50000AD8B4CF
:1012780040EF09F04BEF09F03E50000AD8B4D6EF22
:1012880008F0010AD8B418EF09F04BEF09F0120082
:10129800000E416E2E0E406E000E436E020E426E20
:1012A800000E456E000E446E2D0E3B183E6E3C50EF
:1012B8003F6E010E5CEC0DF0410E3D6EEE0EE82E19
:1012C800FED73D2EFCD700D02E0E5CEC0DF0410E63
:1012D8003D6EEE0EE82EFED73D2EFCD700D0020E56
:1012E8005CEC0DF0410E3D6EEE0EE82EFED73D2E65
:1012F800FCD700D0000E5CEC0DF0410E3D6EEE0EFA
:10130800E82EFED73D2EFCD700D03B505CEC0DF00C
:10131800410E3D6EEE0EE82EFED73D2EFCD700D0D6
:101328003E505CEC0DF01200000E416E130E406E44
:10133800000E436E010E426E000E456E000E446EA6
:10134800130E3B183E6E3C503F6E010E5CEC0DF0E8
:10135800410E3D6EEE0EE82EFED73D2EFCD700D096
:10136800130E5CEC0DF0410E3D6EEE0EE82EFED72E
:101378003D2EFCD700D0010E5CEC0DF0410E3D6E09
:10138800EE0EE82EFED73D2EFCD700D0000E5CEC0A
:101398000DF0410E3D6EEE0EE82EFED73D2EFCD729
:1013A80000D03B505CEC0DF0410E3D6EEE0EE82E89
:1013B800FED73D2EFCD700D03E505CEC0DF012005D
:1013C800000E416E0F0E406E000E436E000E426E10
:1013D800000E456E000E446E0E0E3B183E6E3C50DD
:1013E8003F6E010E5CEC0DF0410E3D6EEE0EE82EE8
:1013F800FED73D2EFCD700D00F0E5CEC0DF0410E51
:101408003D6EEE0EE82EFED73D2EFCD700D0000E26
:101418005CEC0DF0410E3D6EEE0EE82EFED73D2E33
:10142800FCD700D0000E5CEC0DF0410E3D6EEE0EC8
:10143800E82EFED73D2EFCD700D03B505CEC0DF0DB
:10144800410E3D6EEE0EE82EFED73D2EFCD700D0A5
:101458003E505CEC0DF01200000E416E0F0E406E17
:10146800000E436E010E426E000E456E000E446E75
:101478000F0E3B183E6E3C503F6E010E5CEC0DF0BB
:10148800410E3D6EEE0EE82EFED73D2EFCD700D065
:101498000F0E5CEC0DF0410E3D6EEE0EE82EFED701
:1014A8003D2EFCD700D0010E5CEC0DF0410E3D6ED8
:1014B800EE0EE82EFED73D2EFCD700D0000E5CECD9
:1014C8000DF0410E3D6EEE0EE82EFED73D2EFCD7F8
:1014D80000D03B505CEC0DF0410E3D6EEE0EE82E58
:1014E800FED73D2EFCD700D03E505CEC0DF012002C
:1014F800000E416E130E406E000E436E000E426EDB
:10150800000E456E000E446E120E3B183E6E3C50A7
:101518003F6E010E5CEC0DF0410E3D6EEE0EE82EB6
:10152800FED73D2EFCD700D0130E5CEC0DF0410E1B
:101538003D6EEE0EE82EFED73D2EFCD700D0000EF5
:101548005CEC0DF0410E3D6EEE0EE82EFED73D2E02
:10155800FCD700D0000E5CEC0DF0410E3D6EEE0E97
:10156800E82EFED73D2EFCD700D03B505CEC0DF0AA
:10157800410E3D6EEE0EE82EFED73D2EFCD700D074
:101588003E505CEC0DF01200000E416E130E406EE2
:10159800000E436E020E426E000E456E000E446E43
:1015A800100E3B183E6E3C503F6E010E5CEC0DF089
:1015B800410E3D6EEE0EE82EFED73D2EFCD700D034
:1015C800130E5CEC0DF0410E3D6EEE0EE82EFED7CC
:1015D8003D2EFCD700D0020E5CEC0DF0410E3D6EA6
:1015E800EE0EE82EFED73D2EFCD700D0000E5CECA8
:1015F8000DF0410E3D6EEE0EE82EFED73D2EFCD7C7
:1016080000D03B505CEC0DF0410E3D6EEE0EE82E26
:10161800FED73D2EFCD700D03E505CEC0DF01200FA
:10162800000E416E0F0E406E000E436E020E426EAB
:10163800000E456E000E446E0C0E3B183E6E3C507C
:101648003F6E010E5CEC0DF0410E3D6EEE0EE82E85
:10165800FED73D2EFCD700D00F0E5CEC0DF0410EEE
:101668003D6EEE0EE82EFED73D2EFCD700D0020EC2
:101678005CEC0DF0410E3D6EEE0EE82EFED73D2ED1
:10168800FCD700D0000E5CEC0DF0410E3D6EEE0E66
:10169800E82EFED73D2EFCD700D03B505CEC0DF079
:1016A800410E3D6EEE0EE82EFED73D2EFCD700D043
:1016B8003E505CEC0DF01200000E416E0F0E406EB5
:1016C800000E436E030E426E000E456E000E446E11
:1016D8000D0E3B183E6E3C503F6E010E5CEC0DF05B
:1016E800410E3D6EEE0EE82EFED73D2EFCD700D003
:1016F8000F0E5CEC0DF0410E3D6EEE0EE82EFED79F
:101708003D2EFCD700D0030E5CEC0DF0410E3D6E73
:10171800EE0EE82EFED73D2EFCD700D0000E5CEC76
:101728000DF0410E3D6EEE0EE82EFED73D2EFCD795
:1017380000D03B505CEC0DF0410E3D6EEE0EE82EF5
:10174800FED73D2EFCD700D03E505CEC0DF01200C9
:10175800000E416E280E406E000E436E010E426E62
:10176800000E456E000E446E280E3B183E6E3C502F
:101778003F6E010E5CEC0DF0410E3D6EEE0EE82E54
:10178800FED73D2EFCD700D0280E5CEC0DF0410EA4
:101798003D6EEE0EE82EFED73D2EFCD700D0010E92
:1017A8005CEC0DF0410E3D6EEE0EE82EFED73D2EA0
:1017B800FCD700D0000E5CEC0DF0410E3D6EEE0E35
:1017C800E82EFED73D2EFCD700D03B505CEC0DF048
:1017D800410E3D6EEE0EE82EFED73D2EFCD700D012
:1017E8003E505CEC0DF01200000E416E2E0E406E65
:1017F800000E436E010E426E000E456E000E446EE2
:101808002E0E3B183E6E3C503F6E010E5CEC0DF008
:10181800410E3D6EEE0EE82EFED73D2EFCD700D0D1
:101828002E0E5CEC0DF0410E3D6EEE0EE82EFED74E
:101838003D2EFCD700D0010E5CEC0DF0410E3D6E44
:10184800EE0EE82EFED73D2EFCD700D0000E5CEC45
:101858000DF0410E3D6EEE0EE82EFED73D2EFCD764
:1018680000D03B505CEC0DF0410E3D6EEE0EE82EC4
:10187800FED73D2EFCD700D03E505CEC0DF0120098
:10188800000E3C6E000E3B6E7CEC0AF0000E3C6EC7
:10189800000E3B6E98EC09F0000E3C6E000E3B6E9D
:1018A800C8EC0AF0000E3C6E000E3B6EACEC0BF080
:1018B800000E3C6E000E3B6E60EC0BF0000E3C6EB2
:1018C800000E3B6E14EC0BF0000E3C6E000E3B6EEF
:1018D8004CEC09F0000E3C6E000E3B6EF8EC0BF081
:1018E800000E3C6E000E3B6EE4EC09F0000E3C6E00
:1018F800000E3B6E30EC0AF01200406E40503E6E17
:101908003F6AD8903E363F36D8903E363F36D8901C
:101918003E363F363EC045F03FC046F0000E46BE5C
:10192800FF0E476E486E3AC03EF0050E3F6ED890E7
:101938003E323F2E9BEF0CF03E504524456E000E84
:101948004620466E000E4720476E000E4820486E1F
:1019580045C041F046C042F047C043F048C044F09B
:1019680041C03AF042C03BF043C03CF044C03DF0B7
:101978001200080EA76E800EAB6E240EAC6E080E19
:10198800AF6E020E7D6E000E3A6E000E3B6E80EC5E
:101998000DF0000E3A6E000E3B6E7BEC0DF0000E63
:1019A8003A6E000E3B6E85EC0DF0000E1D6E1200B7
:1019B800000E8D6E000E8C6E000E896E000E8A6E03
:1019C800000E8B6E070E966ECF0E926EFB0E936E08
:1019D800BF0E946E9568F00E0F015D6F670E5C6F19
:1019E800000E5B6FF18E1200010E0001B46F620EE3
:1019F800B56F000EB66F000EB76F000EB86F010E10
:101A0800B96F52C0BAF0B40E4C6E000E4D6E03ECB6
:101A180003F01200010E0001A66F630EA76F000EFF
:101A2800A86F000EA96F000EAA6F010EAB6F52C00F
:101A3800ACF0A60E4C6E000E4D6E03EC03F01200D7
:101A4800010E0001986F610E996F000E9A6F000EDB
:101A58009B6F000E9C6F010E9D6F52C09EF0980EFA
:101A68004C6E000E4D6E03EC03F0120000EE60F0B9
:101A7800620EEE6AE806FDE100EE01F0370EEE6A4E
:101A8800E806FDE15A905A92000EF86E000128EF20
:101A980000F002D85AEF0DF00500FA6E1B50FD6EEB
:101AA8001C50FE6EF850FF6EFA501200779C120020
:101AB8003A6E9EA862EF0DF064EF0DF05DEF0DF049
:101AC8003AC0ADFF12008FEC0DF0DCEC0CF072ECBC
:101AD8000DF0BDEC0CF0BAEC05F01200600ED36E00
:101AE800000ED26E000E9B6E000E9A6E12003AC067
:101AF80056F03BC057F012003AC058F03BC059F0BE
:101B080012003AC0C6F03BC0C7F012003AC01BF042
:0C1B18003BC01CF01200D09E1200120016
:020000040020DA
:08000000FFFFFFFFFFFFFFFF00
:020000040030CA
:0E00000015027F7CFF8991FF0FC00FE00F40BB
:00000001FF
